{"contracts/ThreatLedger.sol":{"ThreatLedger":{"abi":[{"inputs":[],"stateMutability":"nonpayable","type":"constructor"},{"anonymous":false,"inputs":[{"indexed":true,"internalType":"uint256","name":"id","type":"uint256"},{"indexed":true,"internalType":"address","name":"attacker","type":"address"},{"indexed":true,"internalType":"address","name":"victim","type":"address"},{"indexed":false,"internalType":"bytes32","name":"proofHash","type":"bytes32"},{"indexed":false,"internalType":"bool","name":"slashed","type":"bool"},{"indexed":false,"internalType":"uint256","name":"slashAmount","type":"uint256"}],"name":"ThreatRecorded","type":"event"},{"anonymous":false,"inputs":[{"indexed":true,"internalType":"address","name":"agent","type":"address"},{"indexed":false,"internalType":"int256","name":"newScore","type":"int256"}],"name":"TrustUpdated","type":"event"},{"inputs":[],"name":"INITIAL_TRUST","outputs":[{"internalType":"uint256","name":"","type":"uint256"}],"stateMutability":"view","type":"function"},{"inputs":[],"name":"SLASH_TRUST_PENALTY","outputs":[{"internalType":"int256","name":"","type":"int256"}],"stateMutability":"view","type":"function"},{"inputs":[{"internalType":"address","name":"","type":"address"},{"internalType":"uint256","name":"","type":"uint256"}],"name":"attackerHistory","outputs":[{"internalType":"uint256","name":"","type":"uint256"}],"stateMutability":"view","type":"function"},{"inputs":[{"internalType":"address","name":"attacker","type":"address"}],"name":"getAttackerHistory","outputs":[{"internalType":"uint256[]","name":"","type":"uint256[]"}],"stateMutability":"view","type":"function"},{"inputs":[],"name":"getBootstrapData","outputs":[{"internalType":"address[]","name":"attackers","type":"address[]"},{"internalType":"int256[]","name":"scores","type":"int256[]"},{"internalType":"uint256[]","name":"slashCounts","type":"uint256[]"},{"internalType":"uint256","name":"total","type":"uint256"}],"stateMutability":"view","type":"function"},{"inputs":[{"internalType":"uint256","name":"n","type":"uint256"}],"name":"getRecentThreats","outputs":[{"components":[{"internalType":"uint256","name":"id","type":"uint256"},{"internalType":"address","name":"attacker","type":"address"},{"internalType":"address","name":"victim","type":"address"},{"internalType":"string","name":"attackerENS","type":"string"},{"internalType":"string","name":"victimENS","type":"string"},{"internalType":"string","name":"poisonSignature","type":"string"},{"internalType":"bytes32","name":"proofHash","type":"bytes32"},{"internalType":"uint256","name":"consensusVotes","type":"uint256"},{"internalType":"uint256","name":"consensusTotal","type":"uint256"},{"internalType":"bool","name":"slashed","type":"bool"},{"internalType":"uint256","name":"slashAmount","type":"uint256"},{"internalType":"uint256","name":"timestamp","type":"uint256"},{"internalType":"uint256","name":"blockNumber","type":"uint256"}],"internalType":"struct ThreatLedger.ThreatRecord[]","name":"","type":"tuple[]"}],"stateMutability":"view","type":"function"},{"inputs":[{"internalType":"uint256","name":"id","type":"uint256"}],"name":"getThreat","outputs":[{"components":[{"internalType":"uint256","name":"id","type":"uint256"},{"internalType":"address","name":"attacker","type":"address"},{"internalType":"address","name":"victim","type":"address"},{"internalType":"string","name":"attackerENS","type":"string"},{"internalType":"string","name":"victimENS","type":"string"},{"internalType":"string","name":"poisonSignature","type":"string"},{"internalType":"bytes32","name":"proofHash","type":"bytes32"},{"internalType":"uint256","name":"consensusVotes","type":"uint256"},{"internalType":"uint256","name":"consensusTotal","type":"uint256"},{"internalType":"bool","name":"slashed","type":"bool"},{"internalType":"uint256","name":"slashAmount","type":"uint256"},{"internalType":"uint256","name":"timestamp","type":"uint256"},{"internalType":"uint256","name":"blockNumber","type":"uint256"}],"internalType":"struct ThreatLedger.ThreatRecord","name":"","type":"tuple"}],"stateMutability":"view","type":"function"},{"inputs":[],"name":"getThreatCount","outputs":[{"internalType":"uint256","name":"","type":"uint256"}],"stateMutability":"view","type":"function"},{"inputs":[{"internalType":"address","name":"agent","type":"address"}],"name":"getTrustScore","outputs":[{"internalType":"int256","name":"","type":"int256"}],"stateMutability":"view","type":"function"},{"inputs":[{"internalType":"address","name":"agent","type":"address"}],"name":"isBlacklisted","outputs":[{"internalType":"bool","name":"","type":"bool"}],"stateMutability":"view","type":"function"},{"inputs":[],"name":"owner","outputs":[{"internalType":"address","name":"","type":"address"}],"stateMutability":"view","type":"function"},{"inputs":[{"internalType":"bytes32","name":"","type":"bytes32"},{"internalType":"uint256","name":"","type":"uint256"}],"name":"poisonHistory","outputs":[{"internalType":"uint256","name":"","type":"uint256"}],"stateMutability":"view","type":"function"},{"inputs":[{"internalType":"address","name":"attacker","type":"address"},{"internalType":"address","name":"victim","type":"address"},{"internalType":"string","name":"poisonSignature","type":"string"},{"internalType":"bytes32","name":"proofHash","type":"bytes32"},{"internalType":"uint256","name":"consensusVotes","type":"uint256"},{"internalType":"uint256","name":"consensusTotal","type":"uint256"},{"internalType":"bool","name":"slashed","type":"bool"},{"internalType":"uint256","name":"slashAmount","type":"uint256"}],"name":"recordThreat","outputs":[],"stateMutability":"nonpayable","type":"function"},{"inputs":[],"name":"registry","outputs":[{"internalType":"address","name":"","type":"address"}],"stateMutability":"view","type":"function"},{"inputs":[{"internalType":"address","name":"_registry","type":"address"}],"name":"setRegistry","outputs":[],"stateMutability":"nonpayable","type":"function"},{"inputs":[{"internalType":"address","name":"_vault","type":"address"}],"name":"setVault","outputs":[],"stateMutability":"nonpayable","type":"function"},{"inputs":[{"internalType":"uint256","name":"","type":"uint256"}],"name":"threats","outputs":[{"internalType":"uint256","name":"id","type":"uint256"},{"internalType":"address","name":"attacker","type":"address"},{"internalType":"address","name":"victim","type":"address"},{"internalType":"string","name":"attackerENS","type":"string"},{"internalType":"string","name":"victimENS","type":"string"},{"internalType":"string","name":"poisonSignature","type":"string"},{"internalType":"bytes32","name":"proofHash","type":"bytes32"},{"internalType":"uint256","name":"consensusVotes","type":"uint256"},{"internalType":"uint256","name":"consensusTotal","type":"uint256"},{"internalType":"bool","name":"slashed","type":"bool"},{"internalType":"uint256","name":"slashAmount","type":"uint256"},{"internalType":"uint256","name":"timestamp","type":"uint256"},{"internalType":"uint256","name":"blockNumber","type":"uint256"}],"stateMutability":"view","type":"function"},{"inputs":[{"internalType":"address","name":"","type":"address"}],"name":"trustScore","outputs":[{"internalType":"int256","name":"","type":"int256"}],"stateMutability":"view","type":"function"},{"inputs":[{"internalType":"uint256","name":"id","type":"uint256"},{"internalType":"string","name":"attackerENS","type":"string"},{"internalType":"string","name":"victimENS","type":"string"}],"name":"updateENSNames","outputs":[],"stateMutability":"nonpayable","type":"function"},{"inputs":[],"name":"vault","outputs":[{"internalType":"address","name":"","type":"address"}],"stateMutability":"view","type":"function"}],"evm":{"bytecode":{"linkReferences":{},"object":"608060405234801561001057600080fd5b50600080546001600160a01b03191633179055611f1e806100326000396000f3fe608060405234801561001057600080fd5b506004361061012c5760003560e01c80639225b69e116100ad578063d977372e11610071578063d977372e146102b2578063dad36388146102ba578063f2201fb9146102cd578063fbfa77cf146102e5578063fe575a87146102f857600080fd5b80639225b69e1461022c5780639a64d1071461024c578063a47f03411461025f578063a91ee0dc1461027f578063af6e40d31461029257600080fd5b80635e09eea1116100f45780635e09eea1146101be5780636096954f146101d15780636817031b146101d95780637b103999146101ee5780638da5cb5b1461021957600080fd5b806315d175891461013157806335707ebd1461015757806351dc17421461016a578063534a84651461019657806353b54438146101b6575b600080fd5b61014461013f366004611703565b61031b565b6040519081526020015b60405180910390f35b61014461016536600461172d565b61034c565b61017d61017836600461174f565b610368565b60405161014e9d9c9b9a999897969594939291906117ae565b6101446101a4366004611853565b60066020526000908152604090205481565b610144606481565b6101446101cc366004611853565b610586565b600354610144565b6101ec6101e7366004611853565b6105c9565b005b600254610201906001600160a01b031681565b6040516001600160a01b03909116815260200161014e565b600054610201906001600160a01b031681565b61023f61023a36600461174f565b610636565b60405161014e9190611961565b6101ec61025a366004611a0c565b610968565b61027261026d36600461174f565b610d67565b60405161014e9190611ab0565b6101ec61028d366004611853565b611015565b6102a56102a0366004611853565b61107d565b60405161014e9190611afe565b610144602381565b6101ec6102c8366004611b11565b6110e9565b6102d56111f6565b60405161014e9493929190611b8b565b600154610201906001600160a01b031681565b61030b610306366004611853565b611625565b604051901515815260200161014e565b6004602052816000526040600020818154811061033757600080fd5b90600052602060002001600091509150505481565b6005602052816000526040600020818154811061033757600080fd5b6003818154811061037857600080fd5b60009182526020909120600d909102018054600182015460028301546003840180549395506001600160a01b039283169492909116926103b790611c2a565b80601f01602080910402602001604051908101604052809291908181526020018280546103e390611c2a565b80156104305780601f1061040557610100808354040283529160200191610430565b820191906000526020600020905b81548152906001019060200180831161041357829003601f168201915b50505050509080600401805461044590611c2a565b80601f016020809104026020016040519081016040528092919081815260200182805461047190611c2a565b80156104be5780601f10610493576101008083540402835291602001916104be565b820191906000526020600020905b8154815290600101906020018083116104a157829003601f168201915b5050505050908060050180546104d390611c2a565b80601f01602080910402602001604051908101604052809291908181526020018280546104ff90611c2a565b801561054c5780601f106105215761010080835404028352916020019161054c565b820191906000526020600020905b81548152906001019060200180831161052f57829003601f168201915b5050506006840154600785015460088601546009870154600a880154600b890154600c909901549798949793965091945060ff169290918d565b6001600160a01b03811660009081526004602052604081205481036105ad57506064919050565b506001600160a01b031660009081526006602052604090205490565b6000546001600160a01b031633146106145760405162461bcd60e51b81526020600482015260096024820152682737ba1037bbb732b960b91b60448201526064015b60405180910390fd5b600180546001600160a01b0319166001600160a01b0392909216919091179055565b60606000826003805490501061064c5782610650565b6003545b905060008167ffffffffffffffff81111561066d5761066d611c64565b6040519080825280602002602001820160405280156106a657816020015b610693611668565b81526020019060019003908161068b5790505b50905060005b82811015610960576003805482906106c5908690611c90565b6106cf9190611ca3565b815481106106df576106df611cb6565b6000918252602091829020604080516101a081018252600d9093029091018054835260018101546001600160a01b039081169484019490945260028101549093169082015260038201805491929160608401919061073c90611c2a565b80601f016020809104026020016040519081016040528092919081815260200182805461076890611c2a565b80156107b55780601f1061078a576101008083540402835291602001916107b5565b820191906000526020600020905b81548152906001019060200180831161079857829003601f168201915b505050505081526020016004820180546107ce90611c2a565b80601f01602080910402602001604051908101604052809291908181526020018280546107fa90611c2a565b80156108475780601f1061081c57610100808354040283529160200191610847565b820191906000526020600020905b81548152906001019060200180831161082a57829003601f168201915b5050505050815260200160058201805461086090611c2a565b80601f016020809104026020016040519081016040528092919081815260200182805461088c90611c2a565b80156108d95780601f106108ae576101008083540402835291602001916108d9565b820191906000526020600020905b8154815290600101906020018083116108bc57829003601f168201915b5050509183525050600682015460208201526007820154604082015260088201546060820152600982015460ff1615156080820152600a82015460a0820152600b82015460c0820152600c9091015460e090910152825183908390811061094257610942611cb6565b6020026020010181905250808061095890611ccc565b9150506106ac565b509392505050565b6001546001600160a01b031633148061098b57506000546001600160a01b031633145b6109c85760405162461bcd60e51b815260206004820152600e60248201526d139bdd08185d5d1a1bdc9a5e995960921b604482015260640161060b565b600060038054905090506003604051806101a001604052808381526020018c6001600160a01b031681526020018b6001600160a01b031681526020016040518060200160405280600081525081526020016040518060200160405280600081525081526020018a8a8080601f016020809104026020016040519081016040528093929190818152602001838380828437600092018290525093855250505060208083018b905260408084018b905260608085018b9052891515608086015260a085018990524260c08601524360e090950194909452855460018181018855968452928290208551600d909402019283559084015194820180546001600160a01b039687166001600160a01b03199182161790915590840151600283018054919096169116179093558101519091906003820190610b059082611d30565b5060808201516004820190610b1a9082611d30565b5060a08201516005820190610b2f9082611d30565b5060c0820151600682015560e08201516007820155610100820151600882015561012082015160098201805460ff1916911515919091179055610140820151600a820155610160820151600b82015561018090910151600c909101556001600160a01b038a16600090815260046020908152604080832080546001810182559084528284200184905551610bc7918b918b9101611df0565b60408051601f19818403018152918152815160209283012060008181526005845291822080546001810182559083529290912090910183905590508315610cf9576001600160a01b038b166000908152600660205260408120549003610c44576001600160a01b038b166000908152600660205260409020606490555b6001600160a01b038b166000908152600660205260408120805460239290610c6d908490611e00565b90915550506001600160a01b038b166000908152600660205260408120541215610cab576001600160a01b038b166000908152600660205260408120555b6001600160a01b038b166000818152600660209081526040918290205491519182527f89812e1ad44bfdb32b1228cc1129e5027ccce1070b96f052af2329d0e2ffd6fb910160405180910390a25b896001600160a01b03168b6001600160a01b0316837f235efee1a5219a1f37cb0a519674b1be97caf1fee6382c65d22593cf909f6b278a8888604051610d52939291909283529015156020830152604082015260600190565b60405180910390a45050505050505050505050565b610d6f611668565b6003548210610dad5760405162461bcd60e51b815260206004820152600a602482015269125b9d985b1a5908125160b21b604482015260640161060b565b60038281548110610dc057610dc0611cb6565b6000918252602091829020604080516101a081018252600d9093029091018054835260018101546001600160a01b0390811694840194909452600281015490931690820152600382018054919291606084019190610e1d90611c2a565b80601f0160208091040260200160405190810160405280929190818152602001828054610e4990611c2a565b8015610e965780601f10610e6b57610100808354040283529160200191610e96565b820191906000526020600020905b815481529060010190602001808311610e7957829003601f168201915b50505050508152602001600482018054610eaf90611c2a565b80601f0160208091040260200160405190810160405280929190818152602001828054610edb90611c2a565b8015610f285780601f10610efd57610100808354040283529160200191610f28565b820191906000526020600020905b815481529060010190602001808311610f0b57829003601f168201915b50505050508152602001600582018054610f4190611c2a565b80601f0160208091040260200160405190810160405280929190818152602001828054610f6d90611c2a565b8015610fba5780601f10610f8f57610100808354040283529160200191610fba565b820191906000526020600020905b815481529060010190602001808311610f9d57829003601f168201915b5050509183525050600682015460208201526007820154604082015260088201546060820152600982015460ff1615156080820152600a82015460a0820152600b82015460c0820152600c9091015460e09091015292915050565b6000546001600160a01b0316331461105b5760405162461bcd60e51b81526020600482015260096024820152682737ba1037bbb732b960b91b604482015260640161060b565b600280546001600160a01b0319166001600160a01b0392909216919091179055565b6001600160a01b0381166000908152600460209081526040918290208054835181840281018401909452808452606093928301828280156110dd57602002820191906000526020600020905b8154815260200190600101908083116110c9575b50505050509050919050565b6001546001600160a01b031633148061110c57506000546001600160a01b031633145b6111495760405162461bcd60e51b815260206004820152600e60248201526d139bdd08185d5d1a1bdc9a5e995960921b604482015260640161060b565b60035485106111875760405162461bcd60e51b815260206004820152600a602482015269125b9d985b1a5908125160b21b604482015260640161060b565b83836003878154811061119c5761119c611cb6565b90600052602060002090600d020160030191826111ba929190611e27565b508181600387815481106111d0576111d0611cb6565b90600052602060002090600d020160040191826111ee929190611e27565b505050505050565b606080606060008060038054905067ffffffffffffffff81111561121c5761121c611c64565b604051908082528060200260200182016040528015611245578160200160208202803683370190505b5090506000805b60035481101561133a5760006003828154811061126b5761126b611cb6565b6000918252602082206001600d9092020101546001600160a01b03169150805b848110156112e057826001600160a01b03168682815181106112af576112af611cb6565b60200260200101516001600160a01b0316036112ce57600191506112e0565b806112d881611ccc565b91505061128b565b5080611325578185856112f281611ccc565b96508151811061130457611304611cb6565b60200260200101906001600160a01b031690816001600160a01b0316815250505b5050808061133290611ccc565b91505061124c565b508067ffffffffffffffff81111561135457611354611c64565b60405190808252806020026020018201604052801561137d578160200160208202803683370190505b5095508067ffffffffffffffff81111561139957611399611c64565b6040519080825280602002602001820160405280156113c2578160200160208202803683370190505b5094508067ffffffffffffffff8111156113de576113de611c64565b604051908082528060200260200182016040528015611407578160200160208202803683370190505b50935060005b818110156116175782818151811061142757611427611cb6565b602002602001015187828151811061144157611441611cb6565b60200260200101906001600160a01b031690816001600160a01b0316815250506006600084838151811061147757611477611cb6565b60200260200101516001600160a01b03166001600160a01b031681526020019081526020016000205460001480156114f057506000600460008584815181106114c2576114c2611cb6565b60200260200101516001600160a01b03166001600160a01b0316815260200190815260200160002080549050115b611585576006600084838151811061150a5761150a611cb6565b60200260200101516001600160a01b03166001600160a01b031681526020019081526020016000205460001461157e576006600084838151811061155057611550611cb6565b60200260200101516001600160a01b03166001600160a01b0316815260200190815260200160002054611588565b6064611588565b60005b86828151811061159a5761159a611cb6565b602002602001018181525050600460008483815181106115bc576115bc611cb6565b60200260200101516001600160a01b03166001600160a01b03168152602001908152602001600020805490508582815181106115fa576115fa611cb6565b60209081029190910101528061160f81611ccc565b91505061140d565b505060035491505090919293565b6001600160a01b03811660009081526006602052604081205415801561166257506001600160a01b03821660009081526004602052604090205415155b92915050565b604051806101a001604052806000815260200160006001600160a01b0316815260200160006001600160a01b031681526020016060815260200160608152602001606081526020016000801916815260200160008152602001600081526020016000151581526020016000815260200160008152602001600081525090565b80356001600160a01b03811681146116fe57600080fd5b919050565b6000806040838503121561171657600080fd5b61171f836116e7565b946020939093013593505050565b6000806040838503121561174057600080fd5b50508035926020909101359150565b60006020828403121561176157600080fd5b5035919050565b6000815180845260005b8181101561178e57602081850181015186830182015201611772565b506000602082860101526020601f19601f83011685010191505092915050565b8d81526001600160a01b038d811660208301528c16604082015260006101a08060608401526117df8184018e611768565b905082810360808401526117f3818d611768565b905082810360a0840152611807818c611768565b9150508860c08301528760e08301528661010083015261182c61012083018715159052565b8461014083015283610160830152826101808301529e9d5050505050505050505050505050565b60006020828403121561186557600080fd5b61186e826116e7565b9392505050565b60006101a082518452602083015161189860208601826001600160a01b03169052565b5060408301516118b360408601826001600160a01b03169052565b5060608301518160608601526118cb82860182611768565b915050608083015184820360808601526118e58282611768565b91505060a083015184820360a08601526118ff8282611768565b91505060c083015160c085015260e083015160e0850152610100808401518186015250610120808401516119368287018215159052565b5050610140838101519085015261016080840151908501526101809283015192909301919091525090565b6000602080830181845280855180835260408601915060408160051b870101925083870160005b828110156119b657603f198886030184526119a4858351611875565b94509285019290850190600101611988565b5092979650505050505050565b60008083601f8401126119d557600080fd5b50813567ffffffffffffffff8111156119ed57600080fd5b602083019150836020828501011115611a0557600080fd5b9250929050565b60008060008060008060008060006101008a8c031215611a2b57600080fd5b611a348a6116e7565b9850611a4260208b016116e7565b975060408a013567ffffffffffffffff811115611a5e57600080fd5b611a6a8c828d016119c3565b90985096505060608a0135945060808a0135935060a08a0135925060c08a01358015158114611a9857600080fd5b8092505060e08a013590509295985092959850929598565b60208152600061186e6020830184611875565b600081518084526020808501945080840160005b83811015611af357815187529582019590820190600101611ad7565b509495945050505050565b60208152600061186e6020830184611ac3565b600080600080600060608688031215611b2957600080fd5b85359450602086013567ffffffffffffffff80821115611b4857600080fd5b611b5489838a016119c3565b90965094506040880135915080821115611b6d57600080fd5b50611b7a888289016119c3565b969995985093965092949392505050565b6080808252855190820181905260009060209060a0840190828901845b82811015611bcd5781516001600160a01b031684529284019290840190600101611ba8565b5050508381038285015286518082528783019183019060005b81811015611c0257835183529284019291840191600101611be6565b50508481036040860152611c168188611ac3565b935050505082606083015295945050505050565b600181811c90821680611c3e57607f821691505b602082108103611c5e57634e487b7160e01b600052602260045260246000fd5b50919050565b634e487b7160e01b600052604160045260246000fd5b634e487b7160e01b600052601160045260246000fd5b8181038181111561166257611662611c7a565b8082018082111561166257611662611c7a565b634e487b7160e01b600052603260045260246000fd5b600060018201611cde57611cde611c7a565b5060010190565b601f821115611d2b57600081815260208120601f850160051c81016020861015611d0c5750805b601f850160051c820191505b818110156111ee57828155600101611d18565b505050565b815167ffffffffffffffff811115611d4a57611d4a611c64565b611d5e81611d588454611c2a565b84611ce5565b602080601f831160018114611d935760008415611d7b5750858301515b600019600386901b1c1916600185901b1785556111ee565b600085815260208120601f198616915b82811015611dc257888601518255948401946001909101908401611da3565b5085821015611de05787850151600019600388901b60f8161c191681555b5050505050600190811b01905550565b8183823760009101908152919050565b8181036000831280158383131683831282161715611e2057611e20611c7a565b5092915050565b67ffffffffffffffff831115611e3f57611e3f611c64565b611e5383611e4d8354611c2a565b83611ce5565b6000601f841160018114611e875760008515611e6f5750838201355b600019600387901b1c1916600186901b178355611ee1565b600083815260209020601f19861690835b82811015611eb85786850135825560209485019460019092019101611e98565b5086821015611ed55760001960f88860031b161c19848701351681555b505060018560011b0183555b505050505056fea26469706673582212201c4827feb12d35fd2e21de3315b6e95af181b49bc24d100abebcac760f4cc18264736f6c63430008140033","opcodes":"PUSH1 0x80 PUSH1 0x40 MSTORE CALLVALUE DUP1 ISZERO PUSH2 0x10 JUMPI PUSH1 0x0 DUP1 REVERT JUMPDEST POP PUSH1 0x0 DUP1 SLOAD PUSH1 0x1 PUSH1 0x1 PUSH1 0xA0 SHL SUB NOT AND CALLER OR SWAP1 SSTORE PUSH2 0x1F1E DUP1 PUSH2 0x32 PUSH1 0x0 CODECOPY PUSH1 0x0 RETURN INVALID PUSH1 0x80 PUSH1 0x40 MSTORE CALLVALUE DUP1 ISZERO PUSH2 0x10 JUMPI PUSH1 0x0 DUP1 REVERT JUMPDEST POP PUSH1 0x4 CALLDATASIZE LT PUSH2 0x12C JUMPI PUSH1 0x0 CALLDATALOAD PUSH1 0xE0 SHR DUP1 PUSH4 0x9225B69E GT PUSH2 0xAD JUMPI DUP1 PUSH4 0xD977372E GT PUSH2 0x71 JUMPI DUP1 PUSH4 0xD977372E EQ PUSH2 0x2B2 JUMPI DUP1 PUSH4 0xDAD36388 EQ PUSH2 0x2BA JUMPI DUP1 PUSH4 0xF2201FB9 EQ PUSH2 0x2CD JUMPI DUP1 PUSH4 0xFBFA77CF EQ PUSH2 0x2E5 JUMPI DUP1 PUSH4 0xFE575A87 EQ PUSH2 0x2F8 JUMPI PUSH1 0x0 DUP1 REVERT JUMPDEST DUP1 PUSH4 0x9225B69E EQ PUSH2 0x22C JUMPI DUP1 PUSH4 0x9A64D107 EQ PUSH2 0x24C JUMPI DUP1 PUSH4 0xA47F0341 EQ PUSH2 0x25F JUMPI DUP1 PUSH4 0xA91EE0DC EQ PUSH2 0x27F JUMPI DUP1 PUSH4 0xAF6E40D3 EQ PUSH2 0x292 JUMPI PUSH1 0x0 DUP1 REVERT JUMPDEST DUP1 PUSH4 0x5E09EEA1 GT PUSH2 0xF4 JUMPI DUP1 PUSH4 0x5E09EEA1 EQ PUSH2 0x1BE JUMPI DUP1 PUSH4 0x6096954F EQ PUSH2 0x1D1 JUMPI DUP1 PUSH4 0x6817031B EQ PUSH2 0x1D9 JUMPI DUP1 PUSH4 0x7B103999 EQ PUSH2 0x1EE JUMPI DUP1 PUSH4 0x8DA5CB5B EQ PUSH2 0x219 JUMPI PUSH1 0x0 DUP1 REVERT JUMPDEST DUP1 PUSH4 0x15D17589 EQ PUSH2 0x131 JUMPI DUP1 PUSH4 0x35707EBD EQ PUSH2 0x157 JUMPI DUP1 PUSH4 0x51DC1742 EQ PUSH2 0x16A JUMPI DUP1 PUSH4 0x534A8465 EQ PUSH2 0x196 JUMPI DUP1 PUSH4 0x53B54438 EQ PUSH2 0x1B6 JUMPI JUMPDEST PUSH1 0x0 DUP1 REVERT JUMPDEST PUSH2 0x144 PUSH2 0x13F CALLDATASIZE PUSH1 0x4 PUSH2 0x1703 JUMP JUMPDEST PUSH2 0x31B JUMP JUMPDEST PUSH1 0x40 MLOAD SWAP1 DUP2 MSTORE PUSH1 0x20 ADD JUMPDEST PUSH1 0x40 MLOAD DUP1 SWAP2 SUB SWAP1 RETURN JUMPDEST PUSH2 0x144 PUSH2 0x165 CALLDATASIZE PUSH1 0x4 PUSH2 0x172D JUMP JUMPDEST PUSH2 0x34C JUMP JUMPDEST PUSH2 0x17D PUSH2 0x178 CALLDATASIZE PUSH1 0x4 PUSH2 0x174F JUMP JUMPDEST PUSH2 0x368 JUMP JUMPDEST PUSH1 0x40 MLOAD PUSH2 0x14E SWAP14 SWAP13 SWAP12 SWAP11 SWAP10 SWAP9 SWAP8 SWAP7 SWAP6 SWAP5 SWAP4 SWAP3 SWAP2 SWAP1 PUSH2 0x17AE JUMP JUMPDEST PUSH2 0x144 PUSH2 0x1A4 CALLDATASIZE PUSH1 0x4 PUSH2 0x1853 JUMP JUMPDEST PUSH1 0x6 PUSH1 0x20 MSTORE PUSH1 0x0 SWAP1 DUP2 MSTORE PUSH1 0x40 SWAP1 KECCAK256 SLOAD DUP2 JUMP JUMPDEST PUSH2 0x144 PUSH1 0x64 DUP2 JUMP JUMPDEST PUSH2 0x144 PUSH2 0x1CC CALLDATASIZE PUSH1 0x4 PUSH2 0x1853 JUMP JUMPDEST PUSH2 0x586 JUMP JUMPDEST PUSH1 0x3 SLOAD PUSH2 0x144 JUMP JUMPDEST PUSH2 0x1EC PUSH2 0x1E7 CALLDATASIZE PUSH1 0x4 PUSH2 0x1853 JUMP JUMPDEST PUSH2 0x5C9 JUMP JUMPDEST STOP JUMPDEST PUSH1 0x2 SLOAD PUSH2 0x201 SWAP1 PUSH1 0x1 PUSH1 0x1 PUSH1 0xA0 SHL SUB AND DUP2 JUMP JUMPDEST PUSH1 0x40 MLOAD PUSH1 0x1 PUSH1 0x1 PUSH1 0xA0 SHL SUB SWAP1 SWAP2 AND DUP2 MSTORE PUSH1 0x20 ADD PUSH2 0x14E JUMP JUMPDEST PUSH1 0x0 SLOAD PUSH2 0x201 SWAP1 PUSH1 0x1 PUSH1 0x1 PUSH1 0xA0 SHL SUB AND DUP2 JUMP JUMPDEST PUSH2 0x23F PUSH2 0x23A CALLDATASIZE PUSH1 0x4 PUSH2 0x174F JUMP JUMPDEST PUSH2 0x636 JUMP JUMPDEST PUSH1 0x40 MLOAD PUSH2 0x14E SWAP2 SWAP1 PUSH2 0x1961 JUMP JUMPDEST PUSH2 0x1EC PUSH2 0x25A CALLDATASIZE PUSH1 0x4 PUSH2 0x1A0C JUMP JUMPDEST PUSH2 0x968 JUMP JUMPDEST PUSH2 0x272 PUSH2 0x26D CALLDATASIZE PUSH1 0x4 PUSH2 0x174F JUMP JUMPDEST PUSH2 0xD67 JUMP JUMPDEST PUSH1 0x40 MLOAD PUSH2 0x14E SWAP2 SWAP1 PUSH2 0x1AB0 JUMP JUMPDEST PUSH2 0x1EC PUSH2 0x28D CALLDATASIZE PUSH1 0x4 PUSH2 0x1853 JUMP JUMPDEST PUSH2 0x1015 JUMP JUMPDEST PUSH2 0x2A5 PUSH2 0x2A0 CALLDATASIZE PUSH1 0x4 PUSH2 0x1853 JUMP JUMPDEST PUSH2 0x107D JUMP JUMPDEST PUSH1 0x40 MLOAD PUSH2 0x14E SWAP2 SWAP1 PUSH2 0x1AFE JUMP JUMPDEST PUSH2 0x144 PUSH1 0x23 DUP2 JUMP JUMPDEST PUSH2 0x1EC PUSH2 0x2C8 CALLDATASIZE PUSH1 0x4 PUSH2 0x1B11 JUMP JUMPDEST PUSH2 0x10E9 JUMP JUMPDEST PUSH2 0x2D5 PUSH2 0x11F6 JUMP JUMPDEST PUSH1 0x40 MLOAD PUSH2 0x14E SWAP5 SWAP4 SWAP3 SWAP2 SWAP1 PUSH2 0x1B8B JUMP JUMPDEST PUSH1 0x1 SLOAD PUSH2 0x201 SWAP1 PUSH1 0x1 PUSH1 0x1 PUSH1 0xA0 SHL SUB AND DUP2 JUMP JUMPDEST PUSH2 0x30B PUSH2 0x306 CALLDATASIZE PUSH1 0x4 PUSH2 0x1853 JUMP JUMPDEST PUSH2 0x1625 JUMP JUMPDEST PUSH1 0x40 MLOAD SWAP1 ISZERO ISZERO DUP2 MSTORE PUSH1 0x20 ADD PUSH2 0x14E JUMP JUMPDEST PUSH1 0x4 PUSH1 0x20 MSTORE DUP2 PUSH1 0x0 MSTORE PUSH1 0x40 PUSH1 0x0 KECCAK256 DUP2 DUP2 SLOAD DUP2 LT PUSH2 0x337 JUMPI PUSH1 0x0 DUP1 REVERT JUMPDEST SWAP1 PUSH1 0x0 MSTORE PUSH1 0x20 PUSH1 0x0 KECCAK256 ADD PUSH1 0x0 SWAP2 POP SWAP2 POP POP SLOAD DUP2 JUMP JUMPDEST PUSH1 0x5 PUSH1 0x20 MSTORE DUP2 PUSH1 0x0 MSTORE PUSH1 0x40 PUSH1 0x0 KECCAK256 DUP2 DUP2 SLOAD DUP2 LT PUSH2 0x337 JUMPI PUSH1 0x0 DUP1 REVERT JUMPDEST PUSH1 0x3 DUP2 DUP2 SLOAD DUP2 LT PUSH2 0x378 JUMPI PUSH1 0x0 DUP1 REVERT JUMPDEST PUSH1 0x0 SWAP2 DUP3 MSTORE PUSH1 0x20 SWAP1 SWAP2 KECCAK256 PUSH1 0xD SWAP1 SWAP2 MUL ADD DUP1 SLOAD PUSH1 0x1 DUP3 ADD SLOAD PUSH1 0x2 DUP4 ADD SLOAD PUSH1 0x3 DUP5 ADD DUP1 SLOAD SWAP4 SWAP6 POP PUSH1 0x1 PUSH1 0x1 PUSH1 0xA0 SHL SUB SWAP3 DUP4 AND SWAP5 SWAP3 SWAP1 SWAP2 AND SWAP3 PUSH2 0x3B7 SWAP1 PUSH2 0x1C2A JUMP JUMPDEST DUP1 PUSH1 0x1F ADD PUSH1 0x20 DUP1 SWAP2 DIV MUL PUSH1 0x20 ADD PUSH1 0x40 MLOAD SWAP1 DUP2 ADD PUSH1 0x40 MSTORE DUP1 SWAP3 SWAP2 SWAP1 DUP2 DUP2 MSTORE PUSH1 0x20 ADD DUP3 DUP1 SLOAD PUSH2 0x3E3 SWAP1 PUSH2 0x1C2A JUMP JUMPDEST DUP1 ISZERO PUSH2 0x430 JUMPI DUP1 PUSH1 0x1F LT PUSH2 0x405 JUMPI PUSH2 0x100 DUP1 DUP4 SLOAD DIV MUL DUP4 MSTORE SWAP2 PUSH1 0x20 ADD SWAP2 PUSH2 0x430 JUMP JUMPDEST DUP3 ADD SWAP2 SWAP1 PUSH1 0x0 MSTORE PUSH1 0x20 PUSH1 0x0 KECCAK256 SWAP1 JUMPDEST DUP2 SLOAD DUP2 MSTORE SWAP1 PUSH1 0x1 ADD SWAP1 PUSH1 0x20 ADD DUP1 DUP4 GT PUSH2 0x413 JUMPI DUP3 SWAP1 SUB PUSH1 0x1F AND DUP3 ADD SWAP2 JUMPDEST POP POP POP POP POP SWAP1 DUP1 PUSH1 0x4 ADD DUP1 SLOAD PUSH2 0x445 SWAP1 PUSH2 0x1C2A JUMP JUMPDEST DUP1 PUSH1 0x1F ADD PUSH1 0x20 DUP1 SWAP2 DIV MUL PUSH1 0x20 ADD PUSH1 0x40 MLOAD SWAP1 DUP2 ADD PUSH1 0x40 MSTORE DUP1 SWAP3 SWAP2 SWAP1 DUP2 DUP2 MSTORE PUSH1 0x20 ADD DUP3 DUP1 SLOAD PUSH2 0x471 SWAP1 PUSH2 0x1C2A JUMP JUMPDEST DUP1 ISZERO PUSH2 0x4BE JUMPI DUP1 PUSH1 0x1F LT PUSH2 0x493 JUMPI PUSH2 0x100 DUP1 DUP4 SLOAD DIV MUL DUP4 MSTORE SWAP2 PUSH1 0x20 ADD SWAP2 PUSH2 0x4BE JUMP JUMPDEST DUP3 ADD SWAP2 SWAP1 PUSH1 0x0 MSTORE PUSH1 0x20 PUSH1 0x0 KECCAK256 SWAP1 JUMPDEST DUP2 SLOAD DUP2 MSTORE SWAP1 PUSH1 0x1 ADD SWAP1 PUSH1 0x20 ADD DUP1 DUP4 GT PUSH2 0x4A1 JUMPI DUP3 SWAP1 SUB PUSH1 0x1F AND DUP3 ADD SWAP2 JUMPDEST POP POP POP POP POP SWAP1 DUP1 PUSH1 0x5 ADD DUP1 SLOAD PUSH2 0x4D3 SWAP1 PUSH2 0x1C2A JUMP JUMPDEST DUP1 PUSH1 0x1F ADD PUSH1 0x20 DUP1 SWAP2 DIV MUL PUSH1 0x20 ADD PUSH1 0x40 MLOAD SWAP1 DUP2 ADD PUSH1 0x40 MSTORE DUP1 SWAP3 SWAP2 SWAP1 DUP2 DUP2 MSTORE PUSH1 0x20 ADD DUP3 DUP1 SLOAD PUSH2 0x4FF SWAP1 PUSH2 0x1C2A JUMP JUMPDEST DUP1 ISZERO PUSH2 0x54C JUMPI DUP1 PUSH1 0x1F LT PUSH2 0x521 JUMPI PUSH2 0x100 DUP1 DUP4 SLOAD DIV MUL DUP4 MSTORE SWAP2 PUSH1 0x20 ADD SWAP2 PUSH2 0x54C JUMP JUMPDEST DUP3 ADD SWAP2 SWAP1 PUSH1 0x0 MSTORE PUSH1 0x20 PUSH1 0x0 KECCAK256 SWAP1 JUMPDEST DUP2 SLOAD DUP2 MSTORE SWAP1 PUSH1 0x1 ADD SWAP1 PUSH1 0x20 ADD DUP1 DUP4 GT PUSH2 0x52F JUMPI DUP3 SWAP1 SUB PUSH1 0x1F AND DUP3 ADD SWAP2 JUMPDEST POP POP POP PUSH1 0x6 DUP5 ADD SLOAD PUSH1 0x7 DUP6 ADD SLOAD PUSH1 0x8 DUP7 ADD SLOAD PUSH1 0x9 DUP8 ADD SLOAD PUSH1 0xA DUP9 ADD SLOAD PUSH1 0xB DUP10 ADD SLOAD PUSH1 0xC SWAP1 SWAP10 ADD SLOAD SWAP8 SWAP9 SWAP5 SWAP8 SWAP4 SWAP7 POP SWAP2 SWAP5 POP PUSH1 0xFF AND SWAP3 SWAP1 SWAP2 DUP14 JUMP JUMPDEST PUSH1 0x1 PUSH1 0x1 PUSH1 0xA0 SHL SUB DUP2 AND PUSH1 0x0 SWAP1 DUP2 MSTORE PUSH1 0x4 PUSH1 0x20 MSTORE PUSH1 0x40 DUP2 KECCAK256 SLOAD DUP2 SUB PUSH2 0x5AD JUMPI POP PUSH1 0x64 SWAP2 SWAP1 POP JUMP JUMPDEST POP PUSH1 0x1 PUSH1 0x1 PUSH1 0xA0 SHL SUB AND PUSH1 0x0 SWAP1 DUP2 MSTORE PUSH1 0x6 PUSH1 0x20 MSTORE PUSH1 0x40 SWAP1 KECCAK256 SLOAD SWAP1 JUMP JUMPDEST PUSH1 0x0 SLOAD PUSH1 0x1 PUSH1 0x1 PUSH1 0xA0 SHL SUB AND CALLER EQ PUSH2 0x614 JUMPI PUSH1 0x40 MLOAD PUSH3 0x461BCD PUSH1 0xE5 SHL DUP2 MSTORE PUSH1 0x20 PUSH1 0x4 DUP3 ADD MSTORE PUSH1 0x9 PUSH1 0x24 DUP3 ADD MSTORE PUSH9 0x2737BA1037BBB732B9 PUSH1 0xB9 SHL PUSH1 0x44 DUP3 ADD MSTORE PUSH1 0x64 ADD JUMPDEST PUSH1 0x40 MLOAD DUP1 SWAP2 SUB SWAP1 REVERT JUMPDEST PUSH1 0x1 DUP1 SLOAD PUSH1 0x1 PUSH1 0x1 PUSH1 0xA0 SHL SUB NOT AND PUSH1 0x1 PUSH1 0x1 PUSH1 0xA0 SHL SUB SWAP3 SWAP1 SWAP3 AND SWAP2 SWAP1 SWAP2 OR SWAP1 SSTORE JUMP JUMPDEST PUSH1 0x60 PUSH1 0x0 DUP3 PUSH1 0x3 DUP1 SLOAD SWAP1 POP LT PUSH2 0x64C JUMPI DUP3 PUSH2 0x650 JUMP JUMPDEST PUSH1 0x3 SLOAD JUMPDEST SWAP1 POP PUSH1 0x0 DUP2 PUSH8 0xFFFFFFFFFFFFFFFF DUP2 GT ISZERO PUSH2 0x66D JUMPI PUSH2 0x66D PUSH2 0x1C64 JUMP JUMPDEST PUSH1 0x40 MLOAD SWAP1 DUP1 DUP3 MSTORE DUP1 PUSH1 0x20 MUL PUSH1 0x20 ADD DUP3 ADD PUSH1 0x40 MSTORE DUP1 ISZERO PUSH2 0x6A6 JUMPI DUP2 PUSH1 0x20 ADD JUMPDEST PUSH2 0x693 PUSH2 0x1668 JUMP JUMPDEST DUP2 MSTORE PUSH1 0x20 ADD SWAP1 PUSH1 0x1 SWAP1 SUB SWAP1 DUP2 PUSH2 0x68B JUMPI SWAP1 POP JUMPDEST POP SWAP1 POP PUSH1 0x0 JUMPDEST DUP3 DUP2 LT ISZERO PUSH2 0x960 JUMPI PUSH1 0x3 DUP1 SLOAD DUP3 SWAP1 PUSH2 0x6C5 SWAP1 DUP7 SWAP1 PUSH2 0x1C90 JUMP JUMPDEST PUSH2 0x6CF SWAP2 SWAP1 PUSH2 0x1CA3 JUMP JUMPDEST DUP2 SLOAD DUP2 LT PUSH2 0x6DF JUMPI PUSH2 0x6DF PUSH2 0x1CB6 JUMP JUMPDEST PUSH1 0x0 SWAP2 DUP3 MSTORE PUSH1 0x20 SWAP2 DUP3 SWAP1 KECCAK256 PUSH1 0x40 DUP1 MLOAD PUSH2 0x1A0 DUP2 ADD DUP3 MSTORE PUSH1 0xD SWAP1 SWAP4 MUL SWAP1 SWAP2 ADD DUP1 SLOAD DUP4 MSTORE PUSH1 0x1 DUP2 ADD SLOAD PUSH1 0x1 PUSH1 0x1 PUSH1 0xA0 SHL SUB SWAP1 DUP2 AND SWAP5 DUP5 ADD SWAP5 SWAP1 SWAP5 MSTORE PUSH1 0x2 DUP2 ADD SLOAD SWAP1 SWAP4 AND SWAP1 DUP3 ADD MSTORE PUSH1 0x3 DUP3 ADD DUP1 SLOAD SWAP2 SWAP3 SWAP2 PUSH1 0x60 DUP5 ADD SWAP2 SWAP1 PUSH2 0x73C SWAP1 PUSH2 0x1C2A JUMP JUMPDEST DUP1 PUSH1 0x1F ADD PUSH1 0x20 DUP1 SWAP2 DIV MUL PUSH1 0x20 ADD PUSH1 0x40 MLOAD SWAP1 DUP2 ADD PUSH1 0x40 MSTORE DUP1 SWAP3 SWAP2 SWAP1 DUP2 DUP2 MSTORE PUSH1 0x20 ADD DUP3 DUP1 SLOAD PUSH2 0x768 SWAP1 PUSH2 0x1C2A JUMP JUMPDEST DUP1 ISZERO PUSH2 0x7B5 JUMPI DUP1 PUSH1 0x1F LT PUSH2 0x78A JUMPI PUSH2 0x100 DUP1 DUP4 SLOAD DIV MUL DUP4 MSTORE SWAP2 PUSH1 0x20 ADD SWAP2 PUSH2 0x7B5 JUMP JUMPDEST DUP3 ADD SWAP2 SWAP1 PUSH1 0x0 MSTORE PUSH1 0x20 PUSH1 0x0 KECCAK256 SWAP1 JUMPDEST DUP2 SLOAD DUP2 MSTORE SWAP1 PUSH1 0x1 ADD SWAP1 PUSH1 0x20 ADD DUP1 DUP4 GT PUSH2 0x798 JUMPI DUP3 SWAP1 SUB PUSH1 0x1F AND DUP3 ADD SWAP2 JUMPDEST POP POP POP POP POP DUP2 MSTORE PUSH1 0x20 ADD PUSH1 0x4 DUP3 ADD DUP1 SLOAD PUSH2 0x7CE SWAP1 PUSH2 0x1C2A JUMP JUMPDEST DUP1 PUSH1 0x1F ADD PUSH1 0x20 DUP1 SWAP2 DIV MUL PUSH1 0x20 ADD PUSH1 0x40 MLOAD SWAP1 DUP2 ADD PUSH1 0x40 MSTORE DUP1 SWAP3 SWAP2 SWAP1 DUP2 DUP2 MSTORE PUSH1 0x20 ADD DUP3 DUP1 SLOAD PUSH2 0x7FA SWAP1 PUSH2 0x1C2A JUMP JUMPDEST DUP1 ISZERO PUSH2 0x847 JUMPI DUP1 PUSH1 0x1F LT PUSH2 0x81C JUMPI PUSH2 0x100 DUP1 DUP4 SLOAD DIV MUL DUP4 MSTORE SWAP2 PUSH1 0x20 ADD SWAP2 PUSH2 0x847 JUMP JUMPDEST DUP3 ADD SWAP2 SWAP1 PUSH1 0x0 MSTORE PUSH1 0x20 PUSH1 0x0 KECCAK256 SWAP1 JUMPDEST DUP2 SLOAD DUP2 MSTORE SWAP1 PUSH1 0x1 ADD SWAP1 PUSH1 0x20 ADD DUP1 DUP4 GT PUSH2 0x82A JUMPI DUP3 SWAP1 SUB PUSH1 0x1F AND DUP3 ADD SWAP2 JUMPDEST POP POP POP POP POP DUP2 MSTORE PUSH1 0x20 ADD PUSH1 0x5 DUP3 ADD DUP1 SLOAD PUSH2 0x860 SWAP1 PUSH2 0x1C2A JUMP JUMPDEST DUP1 PUSH1 0x1F ADD PUSH1 0x20 DUP1 SWAP2 DIV MUL PUSH1 0x20 ADD PUSH1 0x40 MLOAD SWAP1 DUP2 ADD PUSH1 0x40 MSTORE DUP1 SWAP3 SWAP2 SWAP1 DUP2 DUP2 MSTORE PUSH1 0x20 ADD DUP3 DUP1 SLOAD PUSH2 0x88C SWAP1 PUSH2 0x1C2A JUMP JUMPDEST DUP1 ISZERO PUSH2 0x8D9 JUMPI DUP1 PUSH1 0x1F LT PUSH2 0x8AE JUMPI PUSH2 0x100 DUP1 DUP4 SLOAD DIV MUL DUP4 MSTORE SWAP2 PUSH1 0x20 ADD SWAP2 PUSH2 0x8D9 JUMP JUMPDEST DUP3 ADD SWAP2 SWAP1 PUSH1 0x0 MSTORE PUSH1 0x20 PUSH1 0x0 KECCAK256 SWAP1 JUMPDEST DUP2 SLOAD DUP2 MSTORE SWAP1 PUSH1 0x1 ADD SWAP1 PUSH1 0x20 ADD DUP1 DUP4 GT PUSH2 0x8BC JUMPI DUP3 SWAP1 SUB PUSH1 0x1F AND DUP3 ADD SWAP2 JUMPDEST POP POP POP SWAP2 DUP4 MSTORE POP POP PUSH1 0x6 DUP3 ADD SLOAD PUSH1 0x20 DUP3 ADD MSTORE PUSH1 0x7 DUP3 ADD SLOAD PUSH1 0x40 DUP3 ADD MSTORE PUSH1 0x8 DUP3 ADD SLOAD PUSH1 0x60 DUP3 ADD MSTORE PUSH1 0x9 DUP3 ADD SLOAD PUSH1 0xFF AND ISZERO ISZERO PUSH1 0x80 DUP3 ADD MSTORE PUSH1 0xA DUP3 ADD SLOAD PUSH1 0xA0 DUP3 ADD MSTORE PUSH1 0xB DUP3 ADD SLOAD PUSH1 0xC0 DUP3 ADD MSTORE PUSH1 0xC SWAP1 SWAP2 ADD SLOAD PUSH1 0xE0 SWAP1 SWAP2 ADD MSTORE DUP3 MLOAD DUP4 SWAP1 DUP4 SWAP1 DUP2 LT PUSH2 0x942 JUMPI PUSH2 0x942 PUSH2 0x1CB6 JUMP JUMPDEST PUSH1 0x20 MUL PUSH1 0x20 ADD ADD DUP2 SWAP1 MSTORE POP DUP1 DUP1 PUSH2 0x958 SWAP1 PUSH2 0x1CCC JUMP JUMPDEST SWAP2 POP POP PUSH2 0x6AC JUMP JUMPDEST POP SWAP4 SWAP3 POP POP POP JUMP JUMPDEST PUSH1 0x1 SLOAD PUSH1 0x1 PUSH1 0x1 PUSH1 0xA0 SHL SUB AND CALLER EQ DUP1 PUSH2 0x98B JUMPI POP PUSH1 0x0 SLOAD PUSH1 0x1 PUSH1 0x1 PUSH1 0xA0 SHL SUB AND CALLER EQ JUMPDEST PUSH2 0x9C8 JUMPI PUSH1 0x40 MLOAD PUSH3 0x461BCD PUSH1 0xE5 SHL DUP2 MSTORE PUSH1 0x20 PUSH1 0x4 DUP3 ADD MSTORE PUSH1 0xE PUSH1 0x24 DUP3 ADD MSTORE PUSH14 0x139BDD08185D5D1A1BDC9A5E9959 PUSH1 0x92 SHL PUSH1 0x44 DUP3 ADD MSTORE PUSH1 0x64 ADD PUSH2 0x60B JUMP JUMPDEST PUSH1 0x0 PUSH1 0x3 DUP1 SLOAD SWAP1 POP SWAP1 POP PUSH1 0x3 PUSH1 0x40 MLOAD DUP1 PUSH2 0x1A0 ADD PUSH1 0x40 MSTORE DUP1 DUP4 DUP2 MSTORE PUSH1 0x20 ADD DUP13 PUSH1 0x1 PUSH1 0x1 PUSH1 0xA0 SHL SUB AND DUP2 MSTORE PUSH1 0x20 ADD DUP12 PUSH1 0x1 PUSH1 0x1 PUSH1 0xA0 SHL SUB AND DUP2 MSTORE PUSH1 0x20 ADD PUSH1 0x40 MLOAD DUP1 PUSH1 0x20 ADD PUSH1 0x40 MSTORE DUP1 PUSH1 0x0 DUP2 MSTORE POP DUP2 MSTORE PUSH1 0x20 ADD PUSH1 0x40 MLOAD DUP1 PUSH1 0x20 ADD PUSH1 0x40 MSTORE DUP1 PUSH1 0x0 DUP2 MSTORE POP DUP2 MSTORE PUSH1 0x20 ADD DUP11 DUP11 DUP1 DUP1 PUSH1 0x1F ADD PUSH1 0x20 DUP1 SWAP2 DIV MUL PUSH1 0x20 ADD PUSH1 0x40 MLOAD SWAP1 DUP2 ADD PUSH1 0x40 MSTORE DUP1 SWAP4 SWAP3 SWAP2 SWAP1 DUP2 DUP2 MSTORE PUSH1 0x20 ADD DUP4 DUP4 DUP1 DUP3 DUP5 CALLDATACOPY PUSH1 0x0 SWAP3 ADD DUP3 SWAP1 MSTORE POP SWAP4 DUP6 MSTORE POP POP POP PUSH1 0x20 DUP1 DUP4 ADD DUP12 SWAP1 MSTORE PUSH1 0x40 DUP1 DUP5 ADD DUP12 SWAP1 MSTORE PUSH1 0x60 DUP1 DUP6 ADD DUP12 SWAP1 MSTORE DUP10 ISZERO ISZERO PUSH1 0x80 DUP7 ADD MSTORE PUSH1 0xA0 DUP6 ADD DUP10 SWAP1 MSTORE TIMESTAMP PUSH1 0xC0 DUP7 ADD MSTORE NUMBER PUSH1 0xE0 SWAP1 SWAP6 ADD SWAP5 SWAP1 SWAP5 MSTORE DUP6 SLOAD PUSH1 0x1 DUP2 DUP2 ADD DUP9 SSTORE SWAP7 DUP5 MSTORE SWAP3 DUP3 SWAP1 KECCAK256 DUP6 MLOAD PUSH1 0xD SWAP1 SWAP5 MUL ADD SWAP3 DUP4 SSTORE SWAP1 DUP5 ADD MLOAD SWAP5 DUP3 ADD DUP1 SLOAD PUSH1 0x1 PUSH1 0x1 PUSH1 0xA0 SHL SUB SWAP7 DUP8 AND PUSH1 0x1 PUSH1 0x1 PUSH1 0xA0 SHL SUB NOT SWAP2 DUP3 AND OR SWAP1 SWAP2 SSTORE SWAP1 DUP5 ADD MLOAD PUSH1 0x2 DUP4 ADD DUP1 SLOAD SWAP2 SWAP1 SWAP7 AND SWAP2 AND OR SWAP1 SWAP4 SSTORE DUP2 ADD MLOAD SWAP1 SWAP2 SWAP1 PUSH1 0x3 DUP3 ADD SWAP1 PUSH2 0xB05 SWAP1 DUP3 PUSH2 0x1D30 JUMP JUMPDEST POP PUSH1 0x80 DUP3 ADD MLOAD PUSH1 0x4 DUP3 ADD SWAP1 PUSH2 0xB1A SWAP1 DUP3 PUSH2 0x1D30 JUMP JUMPDEST POP PUSH1 0xA0 DUP3 ADD MLOAD PUSH1 0x5 DUP3 ADD SWAP1 PUSH2 0xB2F SWAP1 DUP3 PUSH2 0x1D30 JUMP JUMPDEST POP PUSH1 0xC0 DUP3 ADD MLOAD PUSH1 0x6 DUP3 ADD SSTORE PUSH1 0xE0 DUP3 ADD MLOAD PUSH1 0x7 DUP3 ADD SSTORE PUSH2 0x100 DUP3 ADD MLOAD PUSH1 0x8 DUP3 ADD SSTORE PUSH2 0x120 DUP3 ADD MLOAD PUSH1 0x9 DUP3 ADD DUP1 SLOAD PUSH1 0xFF NOT AND SWAP2 ISZERO ISZERO SWAP2 SWAP1 SWAP2 OR SWAP1 SSTORE PUSH2 0x140 DUP3 ADD MLOAD PUSH1 0xA DUP3 ADD SSTORE PUSH2 0x160 DUP3 ADD MLOAD PUSH1 0xB DUP3 ADD SSTORE PUSH2 0x180 SWAP1 SWAP2 ADD MLOAD PUSH1 0xC SWAP1 SWAP2 ADD SSTORE PUSH1 0x1 PUSH1 0x1 PUSH1 0xA0 SHL SUB DUP11 AND PUSH1 0x0 SWAP1 DUP2 MSTORE PUSH1 0x4 PUSH1 0x20 SWAP1 DUP2 MSTORE PUSH1 0x40 DUP1 DUP4 KECCAK256 DUP1 SLOAD PUSH1 0x1 DUP2 ADD DUP3 SSTORE SWAP1 DUP5 MSTORE DUP3 DUP5 KECCAK256 ADD DUP5 SWAP1 SSTORE MLOAD PUSH2 0xBC7 SWAP2 DUP12 SWAP2 DUP12 SWAP2 ADD PUSH2 0x1DF0 JUMP JUMPDEST PUSH1 0x40 DUP1 MLOAD PUSH1 0x1F NOT DUP2 DUP5 SUB ADD DUP2 MSTORE SWAP2 DUP2 MSTORE DUP2 MLOAD PUSH1 0x20 SWAP3 DUP4 ADD KECCAK256 PUSH1 0x0 DUP2 DUP2 MSTORE PUSH1 0x5 DUP5 MSTORE SWAP2 DUP3 KECCAK256 DUP1 SLOAD PUSH1 0x1 DUP2 ADD DUP3 SSTORE SWAP1 DUP4 MSTORE SWAP3 SWAP1 SWAP2 KECCAK256 SWAP1 SWAP2 ADD DUP4 SWAP1 SSTORE SWAP1 POP DUP4 ISZERO PUSH2 0xCF9 JUMPI PUSH1 0x1 PUSH1 0x1 PUSH1 0xA0 SHL SUB DUP12 AND PUSH1 0x0 SWAP1 DUP2 MSTORE PUSH1 0x6 PUSH1 0x20 MSTORE PUSH1 0x40 DUP2 KECCAK256 SLOAD SWAP1 SUB PUSH2 0xC44 JUMPI PUSH1 0x1 PUSH1 0x1 PUSH1 0xA0 SHL SUB DUP12 AND PUSH1 0x0 SWAP1 DUP2 MSTORE PUSH1 0x6 PUSH1 0x20 MSTORE PUSH1 0x40 SWAP1 KECCAK256 PUSH1 0x64 SWAP1 SSTORE JUMPDEST PUSH1 0x1 PUSH1 0x1 PUSH1 0xA0 SHL SUB DUP12 AND PUSH1 0x0 SWAP1 DUP2 MSTORE PUSH1 0x6 PUSH1 0x20 MSTORE PUSH1 0x40 DUP2 KECCAK256 DUP1 SLOAD PUSH1 0x23 SWAP3 SWAP1 PUSH2 0xC6D SWAP1 DUP5 SWAP1 PUSH2 0x1E00 JUMP JUMPDEST SWAP1 SWAP2 SSTORE POP POP PUSH1 0x1 PUSH1 0x1 PUSH1 0xA0 SHL SUB DUP12 AND PUSH1 0x0 SWAP1 DUP2 MSTORE PUSH1 0x6 PUSH1 0x20 MSTORE PUSH1 0x40 DUP2 KECCAK256 SLOAD SLT ISZERO PUSH2 0xCAB JUMPI PUSH1 0x1 PUSH1 0x1 PUSH1 0xA0 SHL SUB DUP12 AND PUSH1 0x0 SWAP1 DUP2 MSTORE PUSH1 0x6 PUSH1 0x20 MSTORE PUSH1 0x40 DUP2 KECCAK256 SSTORE JUMPDEST PUSH1 0x1 PUSH1 0x1 PUSH1 0xA0 SHL SUB DUP12 AND PUSH1 0x0 DUP2 DUP2 MSTORE PUSH1 0x6 PUSH1 0x20 SWAP1 DUP2 MSTORE PUSH1 0x40 SWAP2 DUP3 SWAP1 KECCAK256 SLOAD SWAP2 MLOAD SWAP2 DUP3 MSTORE PUSH32 0x89812E1AD44BFDB32B1228CC1129E5027CCCE1070B96F052AF2329D0E2FFD6FB SWAP2 ADD PUSH1 0x40 MLOAD DUP1 SWAP2 SUB SWAP1 LOG2 JUMPDEST DUP10 PUSH1 0x1 PUSH1 0x1 PUSH1 0xA0 SHL SUB AND DUP12 PUSH1 0x1 PUSH1 0x1 PUSH1 0xA0 SHL SUB AND DUP4 PUSH32 0x235EFEE1A5219A1F37CB0A519674B1BE97CAF1FEE6382C65D22593CF909F6B27 DUP11 DUP9 DUP9 PUSH1 0x40 MLOAD PUSH2 0xD52 SWAP4 SWAP3 SWAP2 SWAP1 SWAP3 DUP4 MSTORE SWAP1 ISZERO ISZERO PUSH1 0x20 DUP4 ADD MSTORE PUSH1 0x40 DUP3 ADD MSTORE PUSH1 0x60 ADD SWAP1 JUMP JUMPDEST PUSH1 0x40 MLOAD DUP1 SWAP2 SUB SWAP1 LOG4 POP POP POP POP POP POP POP POP POP POP POP JUMP JUMPDEST PUSH2 0xD6F PUSH2 0x1668 JUMP JUMPDEST PUSH1 0x3 SLOAD DUP3 LT PUSH2 0xDAD JUMPI PUSH1 0x40 MLOAD PUSH3 0x461BCD PUSH1 0xE5 SHL DUP2 MSTORE PUSH1 0x20 PUSH1 0x4 DUP3 ADD MSTORE PUSH1 0xA PUSH1 0x24 DUP3 ADD MSTORE PUSH10 0x125B9D985B1A59081251 PUSH1 0xB2 SHL PUSH1 0x44 DUP3 ADD MSTORE PUSH1 0x64 ADD PUSH2 0x60B JUMP JUMPDEST PUSH1 0x3 DUP3 DUP2 SLOAD DUP2 LT PUSH2 0xDC0 JUMPI PUSH2 0xDC0 PUSH2 0x1CB6 JUMP JUMPDEST PUSH1 0x0 SWAP2 DUP3 MSTORE PUSH1 0x20 SWAP2 DUP3 SWAP1 KECCAK256 PUSH1 0x40 DUP1 MLOAD PUSH2 0x1A0 DUP2 ADD DUP3 MSTORE PUSH1 0xD SWAP1 SWAP4 MUL SWAP1 SWAP2 ADD DUP1 SLOAD DUP4 MSTORE PUSH1 0x1 DUP2 ADD SLOAD PUSH1 0x1 PUSH1 0x1 PUSH1 0xA0 SHL SUB SWAP1 DUP2 AND SWAP5 DUP5 ADD SWAP5 SWAP1 SWAP5 MSTORE PUSH1 0x2 DUP2 ADD SLOAD SWAP1 SWAP4 AND SWAP1 DUP3 ADD MSTORE PUSH1 0x3 DUP3 ADD DUP1 SLOAD SWAP2 SWAP3 SWAP2 PUSH1 0x60 DUP5 ADD SWAP2 SWAP1 PUSH2 0xE1D SWAP1 PUSH2 0x1C2A JUMP JUMPDEST DUP1 PUSH1 0x1F ADD PUSH1 0x20 DUP1 SWAP2 DIV MUL PUSH1 0x20 ADD PUSH1 0x40 MLOAD SWAP1 DUP2 ADD PUSH1 0x40 MSTORE DUP1 SWAP3 SWAP2 SWAP1 DUP2 DUP2 MSTORE PUSH1 0x20 ADD DUP3 DUP1 SLOAD PUSH2 0xE49 SWAP1 PUSH2 0x1C2A JUMP JUMPDEST DUP1 ISZERO PUSH2 0xE96 JUMPI DUP1 PUSH1 0x1F LT PUSH2 0xE6B JUMPI PUSH2 0x100 DUP1 DUP4 SLOAD DIV MUL DUP4 MSTORE SWAP2 PUSH1 0x20 ADD SWAP2 PUSH2 0xE96 JUMP JUMPDEST DUP3 ADD SWAP2 SWAP1 PUSH1 0x0 MSTORE PUSH1 0x20 PUSH1 0x0 KECCAK256 SWAP1 JUMPDEST DUP2 SLOAD DUP2 MSTORE SWAP1 PUSH1 0x1 ADD SWAP1 PUSH1 0x20 ADD DUP1 DUP4 GT PUSH2 0xE79 JUMPI DUP3 SWAP1 SUB PUSH1 0x1F AND DUP3 ADD SWAP2 JUMPDEST POP POP POP POP POP DUP2 MSTORE PUSH1 0x20 ADD PUSH1 0x4 DUP3 ADD DUP1 SLOAD PUSH2 0xEAF SWAP1 PUSH2 0x1C2A JUMP JUMPDEST DUP1 PUSH1 0x1F ADD PUSH1 0x20 DUP1 SWAP2 DIV MUL PUSH1 0x20 ADD PUSH1 0x40 MLOAD SWAP1 DUP2 ADD PUSH1 0x40 MSTORE DUP1 SWAP3 SWAP2 SWAP1 DUP2 DUP2 MSTORE PUSH1 0x20 ADD DUP3 DUP1 SLOAD PUSH2 0xEDB SWAP1 PUSH2 0x1C2A JUMP JUMPDEST DUP1 ISZERO PUSH2 0xF28 JUMPI DUP1 PUSH1 0x1F LT PUSH2 0xEFD JUMPI PUSH2 0x100 DUP1 DUP4 SLOAD DIV MUL DUP4 MSTORE SWAP2 PUSH1 0x20 ADD SWAP2 PUSH2 0xF28 JUMP JUMPDEST DUP3 ADD SWAP2 SWAP1 PUSH1 0x0 MSTORE PUSH1 0x20 PUSH1 0x0 KECCAK256 SWAP1 JUMPDEST DUP2 SLOAD DUP2 MSTORE SWAP1 PUSH1 0x1 ADD SWAP1 PUSH1 0x20 ADD DUP1 DUP4 GT PUSH2 0xF0B JUMPI DUP3 SWAP1 SUB PUSH1 0x1F AND DUP3 ADD SWAP2 JUMPDEST POP POP POP POP POP DUP2 MSTORE PUSH1 0x20 ADD PUSH1 0x5 DUP3 ADD DUP1 SLOAD PUSH2 0xF41 SWAP1 PUSH2 0x1C2A JUMP JUMPDEST DUP1 PUSH1 0x1F ADD PUSH1 0x20 DUP1 SWAP2 DIV MUL PUSH1 0x20 ADD PUSH1 0x40 MLOAD SWAP1 DUP2 ADD PUSH1 0x40 MSTORE DUP1 SWAP3 SWAP2 SWAP1 DUP2 DUP2 MSTORE PUSH1 0x20 ADD DUP3 DUP1 SLOAD PUSH2 0xF6D SWAP1 PUSH2 0x1C2A JUMP JUMPDEST DUP1 ISZERO PUSH2 0xFBA JUMPI DUP1 PUSH1 0x1F LT PUSH2 0xF8F JUMPI PUSH2 0x100 DUP1 DUP4 SLOAD DIV MUL DUP4 MSTORE SWAP2 PUSH1 0x20 ADD SWAP2 PUSH2 0xFBA JUMP JUMPDEST DUP3 ADD SWAP2 SWAP1 PUSH1 0x0 MSTORE PUSH1 0x20 PUSH1 0x0 KECCAK256 SWAP1 JUMPDEST DUP2 SLOAD DUP2 MSTORE SWAP1 PUSH1 0x1 ADD SWAP1 PUSH1 0x20 ADD DUP1 DUP4 GT PUSH2 0xF9D JUMPI DUP3 SWAP1 SUB PUSH1 0x1F AND DUP3 ADD SWAP2 JUMPDEST POP POP POP SWAP2 DUP4 MSTORE POP POP PUSH1 0x6 DUP3 ADD SLOAD PUSH1 0x20 DUP3 ADD MSTORE PUSH1 0x7 DUP3 ADD SLOAD PUSH1 0x40 DUP3 ADD MSTORE PUSH1 0x8 DUP3 ADD SLOAD PUSH1 0x60 DUP3 ADD MSTORE PUSH1 0x9 DUP3 ADD SLOAD PUSH1 0xFF AND ISZERO ISZERO PUSH1 0x80 DUP3 ADD MSTORE PUSH1 0xA DUP3 ADD SLOAD PUSH1 0xA0 DUP3 ADD MSTORE PUSH1 0xB DUP3 ADD SLOAD PUSH1 0xC0 DUP3 ADD MSTORE PUSH1 0xC SWAP1 SWAP2 ADD SLOAD PUSH1 0xE0 SWAP1 SWAP2 ADD MSTORE SWAP3 SWAP2 POP POP JUMP JUMPDEST PUSH1 0x0 SLOAD PUSH1 0x1 PUSH1 0x1 PUSH1 0xA0 SHL SUB AND CALLER EQ PUSH2 0x105B JUMPI PUSH1 0x40 MLOAD PUSH3 0x461BCD PUSH1 0xE5 SHL DUP2 MSTORE PUSH1 0x20 PUSH1 0x4 DUP3 ADD MSTORE PUSH1 0x9 PUSH1 0x24 DUP3 ADD MSTORE PUSH9 0x2737BA1037BBB732B9 PUSH1 0xB9 SHL PUSH1 0x44 DUP3 ADD MSTORE PUSH1 0x64 ADD PUSH2 0x60B JUMP JUMPDEST PUSH1 0x2 DUP1 SLOAD PUSH1 0x1 PUSH1 0x1 PUSH1 0xA0 SHL SUB NOT AND PUSH1 0x1 PUSH1 0x1 PUSH1 0xA0 SHL SUB SWAP3 SWAP1 SWAP3 AND SWAP2 SWAP1 SWAP2 OR SWAP1 SSTORE JUMP JUMPDEST PUSH1 0x1 PUSH1 0x1 PUSH1 0xA0 SHL SUB DUP2 AND PUSH1 0x0 SWAP1 DUP2 MSTORE PUSH1 0x4 PUSH1 0x20 SWAP1 DUP2 MSTORE PUSH1 0x40 SWAP2 DUP3 SWAP1 KECCAK256 DUP1 SLOAD DUP4 MLOAD DUP2 DUP5 MUL DUP2 ADD DUP5 ADD SWAP1 SWAP5 MSTORE DUP1 DUP5 MSTORE PUSH1 0x60 SWAP4 SWAP3 DUP4 ADD DUP3 DUP3 DUP1 ISZERO PUSH2 0x10DD JUMPI PUSH1 0x20 MUL DUP3 ADD SWAP2 SWAP1 PUSH1 0x0 MSTORE PUSH1 0x20 PUSH1 0x0 KECCAK256 SWAP1 JUMPDEST DUP2 SLOAD DUP2 MSTORE PUSH1 0x20 ADD SWAP1 PUSH1 0x1 ADD SWAP1 DUP1 DUP4 GT PUSH2 0x10C9 JUMPI JUMPDEST POP POP POP POP POP SWAP1 POP SWAP2 SWAP1 POP JUMP JUMPDEST PUSH1 0x1 SLOAD PUSH1 0x1 PUSH1 0x1 PUSH1 0xA0 SHL SUB AND CALLER EQ DUP1 PUSH2 0x110C JUMPI POP PUSH1 0x0 SLOAD PUSH1 0x1 PUSH1 0x1 PUSH1 0xA0 SHL SUB AND CALLER EQ JUMPDEST PUSH2 0x1149 JUMPI PUSH1 0x40 MLOAD PUSH3 0x461BCD PUSH1 0xE5 SHL DUP2 MSTORE PUSH1 0x20 PUSH1 0x4 DUP3 ADD MSTORE PUSH1 0xE PUSH1 0x24 DUP3 ADD MSTORE PUSH14 0x139BDD08185D5D1A1BDC9A5E9959 PUSH1 0x92 SHL PUSH1 0x44 DUP3 ADD MSTORE PUSH1 0x64 ADD PUSH2 0x60B JUMP JUMPDEST PUSH1 0x3 SLOAD DUP6 LT PUSH2 0x1187 JUMPI PUSH1 0x40 MLOAD PUSH3 0x461BCD PUSH1 0xE5 SHL DUP2 MSTORE PUSH1 0x20 PUSH1 0x4 DUP3 ADD MSTORE PUSH1 0xA PUSH1 0x24 DUP3 ADD MSTORE PUSH10 0x125B9D985B1A59081251 PUSH1 0xB2 SHL PUSH1 0x44 DUP3 ADD MSTORE PUSH1 0x64 ADD PUSH2 0x60B JUMP JUMPDEST DUP4 DUP4 PUSH1 0x3 DUP8 DUP2 SLOAD DUP2 LT PUSH2 0x119C JUMPI PUSH2 0x119C PUSH2 0x1CB6 JUMP JUMPDEST SWAP1 PUSH1 0x0 MSTORE PUSH1 0x20 PUSH1 0x0 KECCAK256 SWAP1 PUSH1 0xD MUL ADD PUSH1 0x3 ADD SWAP2 DUP3 PUSH2 0x11BA SWAP3 SWAP2 SWAP1 PUSH2 0x1E27 JUMP JUMPDEST POP DUP2 DUP2 PUSH1 0x3 DUP8 DUP2 SLOAD DUP2 LT PUSH2 0x11D0 JUMPI PUSH2 0x11D0 PUSH2 0x1CB6 JUMP JUMPDEST SWAP1 PUSH1 0x0 MSTORE PUSH1 0x20 PUSH1 0x0 KECCAK256 SWAP1 PUSH1 0xD MUL ADD PUSH1 0x4 ADD SWAP2 DUP3 PUSH2 0x11EE SWAP3 SWAP2 SWAP1 PUSH2 0x1E27 JUMP JUMPDEST POP POP POP POP POP POP JUMP JUMPDEST PUSH1 0x60 DUP1 PUSH1 0x60 PUSH1 0x0 DUP1 PUSH1 0x3 DUP1 SLOAD SWAP1 POP PUSH8 0xFFFFFFFFFFFFFFFF DUP2 GT ISZERO PUSH2 0x121C JUMPI PUSH2 0x121C PUSH2 0x1C64 JUMP JUMPDEST PUSH1 0x40 MLOAD SWAP1 DUP1 DUP3 MSTORE DUP1 PUSH1 0x20 MUL PUSH1 0x20 ADD DUP3 ADD PUSH1 0x40 MSTORE DUP1 ISZERO PUSH2 0x1245 JUMPI DUP2 PUSH1 0x20 ADD PUSH1 0x20 DUP3 MUL DUP1 CALLDATASIZE DUP4 CALLDATACOPY ADD SWAP1 POP JUMPDEST POP SWAP1 POP PUSH1 0x0 DUP1 JUMPDEST PUSH1 0x3 SLOAD DUP2 LT ISZERO PUSH2 0x133A JUMPI PUSH1 0x0 PUSH1 0x3 DUP3 DUP2 SLOAD DUP2 LT PUSH2 0x126B JUMPI PUSH2 0x126B PUSH2 0x1CB6 JUMP JUMPDEST PUSH1 0x0 SWAP2 DUP3 MSTORE PUSH1 0x20 DUP3 KECCAK256 PUSH1 0x1 PUSH1 0xD SWAP1 SWAP3 MUL ADD ADD SLOAD PUSH1 0x1 PUSH1 0x1 PUSH1 0xA0 SHL SUB AND SWAP2 POP DUP1 JUMPDEST DUP5 DUP2 LT ISZERO PUSH2 0x12E0 JUMPI DUP3 PUSH1 0x1 PUSH1 0x1 PUSH1 0xA0 SHL SUB AND DUP7 DUP3 DUP2 MLOAD DUP2 LT PUSH2 0x12AF JUMPI PUSH2 0x12AF PUSH2 0x1CB6 JUMP JUMPDEST PUSH1 0x20 MUL PUSH1 0x20 ADD ADD MLOAD PUSH1 0x1 PUSH1 0x1 PUSH1 0xA0 SHL SUB AND SUB PUSH2 0x12CE JUMPI PUSH1 0x1 SWAP2 POP PUSH2 0x12E0 JUMP JUMPDEST DUP1 PUSH2 0x12D8 DUP2 PUSH2 0x1CCC JUMP JUMPDEST SWAP2 POP POP PUSH2 0x128B JUMP JUMPDEST POP DUP1 PUSH2 0x1325 JUMPI DUP2 DUP6 DUP6 PUSH2 0x12F2 DUP2 PUSH2 0x1CCC JUMP JUMPDEST SWAP7 POP DUP2 MLOAD DUP2 LT PUSH2 0x1304 JUMPI PUSH2 0x1304 PUSH2 0x1CB6 JUMP JUMPDEST PUSH1 0x20 MUL PUSH1 0x20 ADD ADD SWAP1 PUSH1 0x1 PUSH1 0x1 PUSH1 0xA0 SHL SUB AND SWAP1 DUP2 PUSH1 0x1 PUSH1 0x1 PUSH1 0xA0 SHL SUB AND DUP2 MSTORE POP POP JUMPDEST POP POP DUP1 DUP1 PUSH2 0x1332 SWAP1 PUSH2 0x1CCC JUMP JUMPDEST SWAP2 POP POP PUSH2 0x124C JUMP JUMPDEST POP DUP1 PUSH8 0xFFFFFFFFFFFFFFFF DUP2 GT ISZERO PUSH2 0x1354 JUMPI PUSH2 0x1354 PUSH2 0x1C64 JUMP JUMPDEST PUSH1 0x40 MLOAD SWAP1 DUP1 DUP3 MSTORE DUP1 PUSH1 0x20 MUL PUSH1 0x20 ADD DUP3 ADD PUSH1 0x40 MSTORE DUP1 ISZERO PUSH2 0x137D JUMPI DUP2 PUSH1 0x20 ADD PUSH1 0x20 DUP3 MUL DUP1 CALLDATASIZE DUP4 CALLDATACOPY ADD SWAP1 POP JUMPDEST POP SWAP6 POP DUP1 PUSH8 0xFFFFFFFFFFFFFFFF DUP2 GT ISZERO PUSH2 0x1399 JUMPI PUSH2 0x1399 PUSH2 0x1C64 JUMP JUMPDEST PUSH1 0x40 MLOAD SWAP1 DUP1 DUP3 MSTORE DUP1 PUSH1 0x20 MUL PUSH1 0x20 ADD DUP3 ADD PUSH1 0x40 MSTORE DUP1 ISZERO PUSH2 0x13C2 JUMPI DUP2 PUSH1 0x20 ADD PUSH1 0x20 DUP3 MUL DUP1 CALLDATASIZE DUP4 CALLDATACOPY ADD SWAP1 POP JUMPDEST POP SWAP5 POP DUP1 PUSH8 0xFFFFFFFFFFFFFFFF DUP2 GT ISZERO PUSH2 0x13DE JUMPI PUSH2 0x13DE PUSH2 0x1C64 JUMP JUMPDEST PUSH1 0x40 MLOAD SWAP1 DUP1 DUP3 MSTORE DUP1 PUSH1 0x20 MUL PUSH1 0x20 ADD DUP3 ADD PUSH1 0x40 MSTORE DUP1 ISZERO PUSH2 0x1407 JUMPI DUP2 PUSH1 0x20 ADD PUSH1 0x20 DUP3 MUL DUP1 CALLDATASIZE DUP4 CALLDATACOPY ADD SWAP1 POP JUMPDEST POP SWAP4 POP PUSH1 0x0 JUMPDEST DUP2 DUP2 LT ISZERO PUSH2 0x1617 JUMPI DUP3 DUP2 DUP2 MLOAD DUP2 LT PUSH2 0x1427 JUMPI PUSH2 0x1427 PUSH2 0x1CB6 JUMP JUMPDEST PUSH1 0x20 MUL PUSH1 0x20 ADD ADD MLOAD DUP8 DUP3 DUP2 MLOAD DUP2 LT PUSH2 0x1441 JUMPI PUSH2 0x1441 PUSH2 0x1CB6 JUMP JUMPDEST PUSH1 0x20 MUL PUSH1 0x20 ADD ADD SWAP1 PUSH1 0x1 PUSH1 0x1 PUSH1 0xA0 SHL SUB AND SWAP1 DUP2 PUSH1 0x1 PUSH1 0x1 PUSH1 0xA0 SHL SUB AND DUP2 MSTORE POP POP PUSH1 0x6 PUSH1 0x0 DUP5 DUP4 DUP2 MLOAD DUP2 LT PUSH2 0x1477 JUMPI PUSH2 0x1477 PUSH2 0x1CB6 JUMP JUMPDEST PUSH1 0x20 MUL PUSH1 0x20 ADD ADD MLOAD PUSH1 0x1 PUSH1 0x1 PUSH1 0xA0 SHL SUB AND PUSH1 0x1 PUSH1 0x1 PUSH1 0xA0 SHL SUB AND DUP2 MSTORE PUSH1 0x20 ADD SWAP1 DUP2 MSTORE PUSH1 0x20 ADD PUSH1 0x0 KECCAK256 SLOAD PUSH1 0x0 EQ DUP1 ISZERO PUSH2 0x14F0 JUMPI POP PUSH1 0x0 PUSH1 0x4 PUSH1 0x0 DUP6 DUP5 DUP2 MLOAD DUP2 LT PUSH2 0x14C2 JUMPI PUSH2 0x14C2 PUSH2 0x1CB6 JUMP JUMPDEST PUSH1 0x20 MUL PUSH1 0x20 ADD ADD MLOAD PUSH1 0x1 PUSH1 0x1 PUSH1 0xA0 SHL SUB AND PUSH1 0x1 PUSH1 0x1 PUSH1 0xA0 SHL SUB AND DUP2 MSTORE PUSH1 0x20 ADD SWAP1 DUP2 MSTORE PUSH1 0x20 ADD PUSH1 0x0 KECCAK256 DUP1 SLOAD SWAP1 POP GT JUMPDEST PUSH2 0x1585 JUMPI PUSH1 0x6 PUSH1 0x0 DUP5 DUP4 DUP2 MLOAD DUP2 LT PUSH2 0x150A JUMPI PUSH2 0x150A PUSH2 0x1CB6 JUMP JUMPDEST PUSH1 0x20 MUL PUSH1 0x20 ADD ADD MLOAD PUSH1 0x1 PUSH1 0x1 PUSH1 0xA0 SHL SUB AND PUSH1 0x1 PUSH1 0x1 PUSH1 0xA0 SHL SUB AND DUP2 MSTORE PUSH1 0x20 ADD SWAP1 DUP2 MSTORE PUSH1 0x20 ADD PUSH1 0x0 KECCAK256 SLOAD PUSH1 0x0 EQ PUSH2 0x157E JUMPI PUSH1 0x6 PUSH1 0x0 DUP5 DUP4 DUP2 MLOAD DUP2 LT PUSH2 0x1550 JUMPI PUSH2 0x1550 PUSH2 0x1CB6 JUMP JUMPDEST PUSH1 0x20 MUL PUSH1 0x20 ADD ADD MLOAD PUSH1 0x1 PUSH1 0x1 PUSH1 0xA0 SHL SUB AND PUSH1 0x1 PUSH1 0x1 PUSH1 0xA0 SHL SUB AND DUP2 MSTORE PUSH1 0x20 ADD SWAP1 DUP2 MSTORE PUSH1 0x20 ADD PUSH1 0x0 KECCAK256 SLOAD PUSH2 0x1588 JUMP JUMPDEST PUSH1 0x64 PUSH2 0x1588 JUMP JUMPDEST PUSH1 0x0 JUMPDEST DUP7 DUP3 DUP2 MLOAD DUP2 LT PUSH2 0x159A JUMPI PUSH2 0x159A PUSH2 0x1CB6 JUMP JUMPDEST PUSH1 0x20 MUL PUSH1 0x20 ADD ADD DUP2 DUP2 MSTORE POP POP PUSH1 0x4 PUSH1 0x0 DUP5 DUP4 DUP2 MLOAD DUP2 LT PUSH2 0x15BC JUMPI PUSH2 0x15BC PUSH2 0x1CB6 JUMP JUMPDEST PUSH1 0x20 MUL PUSH1 0x20 ADD ADD MLOAD PUSH1 0x1 PUSH1 0x1 PUSH1 0xA0 SHL SUB AND PUSH1 0x1 PUSH1 0x1 PUSH1 0xA0 SHL SUB AND DUP2 MSTORE PUSH1 0x20 ADD SWAP1 DUP2 MSTORE PUSH1 0x20 ADD PUSH1 0x0 KECCAK256 DUP1 SLOAD SWAP1 POP DUP6 DUP3 DUP2 MLOAD DUP2 LT PUSH2 0x15FA JUMPI PUSH2 0x15FA PUSH2 0x1CB6 JUMP JUMPDEST PUSH1 0x20 SWAP1 DUP2 MUL SWAP2 SWAP1 SWAP2 ADD ADD MSTORE DUP1 PUSH2 0x160F DUP2 PUSH2 0x1CCC JUMP JUMPDEST SWAP2 POP POP PUSH2 0x140D JUMP JUMPDEST POP POP PUSH1 0x3 SLOAD SWAP2 POP POP SWAP1 SWAP2 SWAP3 SWAP4 JUMP JUMPDEST PUSH1 0x1 PUSH1 0x1 PUSH1 0xA0 SHL SUB DUP2 AND PUSH1 0x0 SWAP1 DUP2 MSTORE PUSH1 0x6 PUSH1 0x20 MSTORE PUSH1 0x40 DUP2 KECCAK256 SLOAD ISZERO DUP1 ISZERO PUSH2 0x1662 JUMPI POP PUSH1 0x1 PUSH1 0x1 PUSH1 0xA0 SHL SUB DUP3 AND PUSH1 0x0 SWAP1 DUP2 MSTORE PUSH1 0x4 PUSH1 0x20 MSTORE PUSH1 0x40 SWAP1 KECCAK256 SLOAD ISZERO ISZERO JUMPDEST SWAP3 SWAP2 POP POP JUMP JUMPDEST PUSH1 0x40 MLOAD DUP1 PUSH2 0x1A0 ADD PUSH1 0x40 MSTORE DUP1 PUSH1 0x0 DUP2 MSTORE PUSH1 0x20 ADD PUSH1 0x0 PUSH1 0x1 PUSH1 0x1 PUSH1 0xA0 SHL SUB AND DUP2 MSTORE PUSH1 0x20 ADD PUSH1 0x0 PUSH1 0x1 PUSH1 0x1 PUSH1 0xA0 SHL SUB AND DUP2 MSTORE PUSH1 0x20 ADD PUSH1 0x60 DUP2 MSTORE PUSH1 0x20 ADD PUSH1 0x60 DUP2 MSTORE PUSH1 0x20 ADD PUSH1 0x60 DUP2 MSTORE PUSH1 0x20 ADD PUSH1 0x0 DUP1 NOT AND DUP2 MSTORE PUSH1 0x20 ADD PUSH1 0x0 DUP2 MSTORE PUSH1 0x20 ADD PUSH1 0x0 DUP2 MSTORE PUSH1 0x20 ADD PUSH1 0x0 ISZERO ISZERO DUP2 MSTORE PUSH1 0x20 ADD PUSH1 0x0 DUP2 MSTORE PUSH1 0x20 ADD PUSH1 0x0 DUP2 MSTORE PUSH1 0x20 ADD PUSH1 0x0 DUP2 MSTORE POP SWAP1 JUMP JUMPDEST DUP1 CALLDATALOAD PUSH1 0x1 PUSH1 0x1 PUSH1 0xA0 SHL SUB DUP2 AND DUP2 EQ PUSH2 0x16FE JUMPI PUSH1 0x0 DUP1 REVERT JUMPDEST SWAP2 SWAP1 POP JUMP JUMPDEST PUSH1 0x0 DUP1 PUSH1 0x40 DUP4 DUP6 SUB SLT ISZERO PUSH2 0x1716 JUMPI PUSH1 0x0 DUP1 REVERT JUMPDEST PUSH2 0x171F DUP4 PUSH2 0x16E7 JUMP JUMPDEST SWAP5 PUSH1 0x20 SWAP4 SWAP1 SWAP4 ADD CALLDATALOAD SWAP4 POP POP POP JUMP JUMPDEST PUSH1 0x0 DUP1 PUSH1 0x40 DUP4 DUP6 SUB SLT ISZERO PUSH2 0x1740 JUMPI PUSH1 0x0 DUP1 REVERT JUMPDEST POP POP DUP1 CALLDATALOAD SWAP3 PUSH1 0x20 SWAP1 SWAP2 ADD CALLDATALOAD SWAP2 POP JUMP JUMPDEST PUSH1 0x0 PUSH1 0x20 DUP3 DUP5 SUB SLT ISZERO PUSH2 0x1761 JUMPI PUSH1 0x0 DUP1 REVERT JUMPDEST POP CALLDATALOAD SWAP2 SWAP1 POP JUMP JUMPDEST PUSH1 0x0 DUP2 MLOAD DUP1 DUP5 MSTORE PUSH1 0x0 JUMPDEST DUP2 DUP2 LT ISZERO PUSH2 0x178E JUMPI PUSH1 0x20 DUP2 DUP6 ADD DUP2 ADD MLOAD DUP7 DUP4 ADD DUP3 ADD MSTORE ADD PUSH2 0x1772 JUMP JUMPDEST POP PUSH1 0x0 PUSH1 0x20 DUP3 DUP7 ADD ADD MSTORE PUSH1 0x20 PUSH1 0x1F NOT PUSH1 0x1F DUP4 ADD AND DUP6 ADD ADD SWAP2 POP POP SWAP3 SWAP2 POP POP JUMP JUMPDEST DUP14 DUP2 MSTORE PUSH1 0x1 PUSH1 0x1 PUSH1 0xA0 SHL SUB DUP14 DUP2 AND PUSH1 0x20 DUP4 ADD MSTORE DUP13 AND PUSH1 0x40 DUP3 ADD MSTORE PUSH1 0x0 PUSH2 0x1A0 DUP1 PUSH1 0x60 DUP5 ADD MSTORE PUSH2 0x17DF DUP2 DUP5 ADD DUP15 PUSH2 0x1768 JUMP JUMPDEST SWAP1 POP DUP3 DUP2 SUB PUSH1 0x80 DUP5 ADD MSTORE PUSH2 0x17F3 DUP2 DUP14 PUSH2 0x1768 JUMP JUMPDEST SWAP1 POP DUP3 DUP2 SUB PUSH1 0xA0 DUP5 ADD MSTORE PUSH2 0x1807 DUP2 DUP13 PUSH2 0x1768 JUMP JUMPDEST SWAP2 POP POP DUP9 PUSH1 0xC0 DUP4 ADD MSTORE DUP8 PUSH1 0xE0 DUP4 ADD MSTORE DUP7 PUSH2 0x100 DUP4 ADD MSTORE PUSH2 0x182C PUSH2 0x120 DUP4 ADD DUP8 ISZERO ISZERO SWAP1 MSTORE JUMP JUMPDEST DUP5 PUSH2 0x140 DUP4 ADD MSTORE DUP4 PUSH2 0x160 DUP4 ADD MSTORE DUP3 PUSH2 0x180 DUP4 ADD MSTORE SWAP15 SWAP14 POP POP POP POP POP POP POP POP POP POP POP POP POP POP JUMP JUMPDEST PUSH1 0x0 PUSH1 0x20 DUP3 DUP5 SUB SLT ISZERO PUSH2 0x1865 JUMPI PUSH1 0x0 DUP1 REVERT JUMPDEST PUSH2 0x186E DUP3 PUSH2 0x16E7 JUMP JUMPDEST SWAP4 SWAP3 POP POP POP JUMP JUMPDEST PUSH1 0x0 PUSH2 0x1A0 DUP3 MLOAD DUP5 MSTORE PUSH1 0x20 DUP4 ADD MLOAD PUSH2 0x1898 PUSH1 0x20 DUP7 ADD DUP3 PUSH1 0x1 PUSH1 0x1 PUSH1 0xA0 SHL SUB AND SWAP1 MSTORE JUMP JUMPDEST POP PUSH1 0x40 DUP4 ADD MLOAD PUSH2 0x18B3 PUSH1 0x40 DUP7 ADD DUP3 PUSH1 0x1 PUSH1 0x1 PUSH1 0xA0 SHL SUB AND SWAP1 MSTORE JUMP JUMPDEST POP PUSH1 0x60 DUP4 ADD MLOAD DUP2 PUSH1 0x60 DUP7 ADD MSTORE PUSH2 0x18CB DUP3 DUP7 ADD DUP3 PUSH2 0x1768 JUMP JUMPDEST SWAP2 POP POP PUSH1 0x80 DUP4 ADD MLOAD DUP5 DUP3 SUB PUSH1 0x80 DUP7 ADD MSTORE PUSH2 0x18E5 DUP3 DUP3 PUSH2 0x1768 JUMP JUMPDEST SWAP2 POP POP PUSH1 0xA0 DUP4 ADD MLOAD DUP5 DUP3 SUB PUSH1 0xA0 DUP7 ADD MSTORE PUSH2 0x18FF DUP3 DUP3 PUSH2 0x1768 JUMP JUMPDEST SWAP2 POP POP PUSH1 0xC0 DUP4 ADD MLOAD PUSH1 0xC0 DUP6 ADD MSTORE PUSH1 0xE0 DUP4 ADD MLOAD PUSH1 0xE0 DUP6 ADD MSTORE PUSH2 0x100 DUP1 DUP5 ADD MLOAD DUP2 DUP7 ADD MSTORE POP PUSH2 0x120 DUP1 DUP5 ADD MLOAD PUSH2 0x1936 DUP3 DUP8 ADD DUP3 ISZERO ISZERO SWAP1 MSTORE JUMP JUMPDEST POP POP PUSH2 0x140 DUP4 DUP2 ADD MLOAD SWAP1 DUP6 ADD MSTORE PUSH2 0x160 DUP1 DUP5 ADD MLOAD SWAP1 DUP6 ADD MSTORE PUSH2 0x180 SWAP3 DUP4 ADD MLOAD SWAP3 SWAP1 SWAP4 ADD SWAP2 SWAP1 SWAP2 MSTORE POP SWAP1 JUMP JUMPDEST PUSH1 0x0 PUSH1 0x20 DUP1 DUP4 ADD DUP2 DUP5 MSTORE DUP1 DUP6 MLOAD DUP1 DUP4 MSTORE PUSH1 0x40 DUP7 ADD SWAP2 POP PUSH1 0x40 DUP2 PUSH1 0x5 SHL DUP8 ADD ADD SWAP3 POP DUP4 DUP8 ADD PUSH1 0x0 JUMPDEST DUP3 DUP2 LT ISZERO PUSH2 0x19B6 JUMPI PUSH1 0x3F NOT DUP9 DUP7 SUB ADD DUP5 MSTORE PUSH2 0x19A4 DUP6 DUP4 MLOAD PUSH2 0x1875 JUMP JUMPDEST SWAP5 POP SWAP3 DUP6 ADD SWAP3 SWAP1 DUP6 ADD SWAP1 PUSH1 0x1 ADD PUSH2 0x1988 JUMP JUMPDEST POP SWAP3 SWAP8 SWAP7 POP POP POP POP POP POP POP JUMP JUMPDEST PUSH1 0x0 DUP1 DUP4 PUSH1 0x1F DUP5 ADD SLT PUSH2 0x19D5 JUMPI PUSH1 0x0 DUP1 REVERT JUMPDEST POP DUP2 CALLDATALOAD PUSH8 0xFFFFFFFFFFFFFFFF DUP2 GT ISZERO PUSH2 0x19ED JUMPI PUSH1 0x0 DUP1 REVERT JUMPDEST PUSH1 0x20 DUP4 ADD SWAP2 POP DUP4 PUSH1 0x20 DUP3 DUP6 ADD ADD GT ISZERO PUSH2 0x1A05 JUMPI PUSH1 0x0 DUP1 REVERT JUMPDEST SWAP3 POP SWAP3 SWAP1 POP JUMP JUMPDEST PUSH1 0x0 DUP1 PUSH1 0x0 DUP1 PUSH1 0x0 DUP1 PUSH1 0x0 DUP1 PUSH1 0x0 PUSH2 0x100 DUP11 DUP13 SUB SLT ISZERO PUSH2 0x1A2B JUMPI PUSH1 0x0 DUP1 REVERT JUMPDEST PUSH2 0x1A34 DUP11 PUSH2 0x16E7 JUMP JUMPDEST SWAP9 POP PUSH2 0x1A42 PUSH1 0x20 DUP12 ADD PUSH2 0x16E7 JUMP JUMPDEST SWAP8 POP PUSH1 0x40 DUP11 ADD CALLDATALOAD PUSH8 0xFFFFFFFFFFFFFFFF DUP2 GT ISZERO PUSH2 0x1A5E JUMPI PUSH1 0x0 DUP1 REVERT JUMPDEST PUSH2 0x1A6A DUP13 DUP3 DUP14 ADD PUSH2 0x19C3 JUMP JUMPDEST SWAP1 SWAP9 POP SWAP7 POP POP PUSH1 0x60 DUP11 ADD CALLDATALOAD SWAP5 POP PUSH1 0x80 DUP11 ADD CALLDATALOAD SWAP4 POP PUSH1 0xA0 DUP11 ADD CALLDATALOAD SWAP3 POP PUSH1 0xC0 DUP11 ADD CALLDATALOAD DUP1 ISZERO ISZERO DUP2 EQ PUSH2 0x1A98 JUMPI PUSH1 0x0 DUP1 REVERT JUMPDEST DUP1 SWAP3 POP POP PUSH1 0xE0 DUP11 ADD CALLDATALOAD SWAP1 POP SWAP3 SWAP6 SWAP9 POP SWAP3 SWAP6 SWAP9 POP SWAP3 SWAP6 SWAP9 JUMP JUMPDEST PUSH1 0x20 DUP2 MSTORE PUSH1 0x0 PUSH2 0x186E PUSH1 0x20 DUP4 ADD DUP5 PUSH2 0x1875 JUMP JUMPDEST PUSH1 0x0 DUP2 MLOAD DUP1 DUP5 MSTORE PUSH1 0x20 DUP1 DUP6 ADD SWAP5 POP DUP1 DUP5 ADD PUSH1 0x0 JUMPDEST DUP4 DUP2 LT ISZERO PUSH2 0x1AF3 JUMPI DUP2 MLOAD DUP8 MSTORE SWAP6 DUP3 ADD SWAP6 SWAP1 DUP3 ADD SWAP1 PUSH1 0x1 ADD PUSH2 0x1AD7 JUMP JUMPDEST POP SWAP5 SWAP6 SWAP5 POP POP POP POP POP JUMP JUMPDEST PUSH1 0x20 DUP2 MSTORE PUSH1 0x0 PUSH2 0x186E PUSH1 0x20 DUP4 ADD DUP5 PUSH2 0x1AC3 JUMP JUMPDEST PUSH1 0x0 DUP1 PUSH1 0x0 DUP1 PUSH1 0x0 PUSH1 0x60 DUP7 DUP9 SUB SLT ISZERO PUSH2 0x1B29 JUMPI PUSH1 0x0 DUP1 REVERT JUMPDEST DUP6 CALLDATALOAD SWAP5 POP PUSH1 0x20 DUP7 ADD CALLDATALOAD PUSH8 0xFFFFFFFFFFFFFFFF DUP1 DUP3 GT ISZERO PUSH2 0x1B48 JUMPI PUSH1 0x0 DUP1 REVERT JUMPDEST PUSH2 0x1B54 DUP10 DUP4 DUP11 ADD PUSH2 0x19C3 JUMP JUMPDEST SWAP1 SWAP7 POP SWAP5 POP PUSH1 0x40 DUP9 ADD CALLDATALOAD SWAP2 POP DUP1 DUP3 GT ISZERO PUSH2 0x1B6D JUMPI PUSH1 0x0 DUP1 REVERT JUMPDEST POP PUSH2 0x1B7A DUP9 DUP3 DUP10 ADD PUSH2 0x19C3 JUMP JUMPDEST SWAP7 SWAP10 SWAP6 SWAP9 POP SWAP4 SWAP7 POP SWAP3 SWAP5 SWAP4 SWAP3 POP POP POP JUMP JUMPDEST PUSH1 0x80 DUP1 DUP3 MSTORE DUP6 MLOAD SWAP1 DUP3 ADD DUP2 SWAP1 MSTORE PUSH1 0x0 SWAP1 PUSH1 0x20 SWAP1 PUSH1 0xA0 DUP5 ADD SWAP1 DUP3 DUP10 ADD DUP5 JUMPDEST DUP3 DUP2 LT ISZERO PUSH2 0x1BCD JUMPI DUP2 MLOAD PUSH1 0x1 PUSH1 0x1 PUSH1 0xA0 SHL SUB AND DUP5 MSTORE SWAP3 DUP5 ADD SWAP3 SWAP1 DUP5 ADD SWAP1 PUSH1 0x1 ADD PUSH2 0x1BA8 JUMP JUMPDEST POP POP POP DUP4 DUP2 SUB DUP3 DUP6 ADD MSTORE DUP7 MLOAD DUP1 DUP3 MSTORE DUP8 DUP4 ADD SWAP2 DUP4 ADD SWAP1 PUSH1 0x0 JUMPDEST DUP2 DUP2 LT ISZERO PUSH2 0x1C02 JUMPI DUP4 MLOAD DUP4 MSTORE SWAP3 DUP5 ADD SWAP3 SWAP2 DUP5 ADD SWAP2 PUSH1 0x1 ADD PUSH2 0x1BE6 JUMP JUMPDEST POP POP DUP5 DUP2 SUB PUSH1 0x40 DUP7 ADD MSTORE PUSH2 0x1C16 DUP2 DUP9 PUSH2 0x1AC3 JUMP JUMPDEST SWAP4 POP POP POP POP DUP3 PUSH1 0x60 DUP4 ADD MSTORE SWAP6 SWAP5 POP POP POP POP POP JUMP JUMPDEST PUSH1 0x1 DUP2 DUP2 SHR SWAP1 DUP3 AND DUP1 PUSH2 0x1C3E JUMPI PUSH1 0x7F DUP3 AND SWAP2 POP JUMPDEST PUSH1 0x20 DUP3 LT DUP2 SUB PUSH2 0x1C5E JUMPI PUSH4 0x4E487B71 PUSH1 0xE0 SHL PUSH1 0x0 MSTORE PUSH1 0x22 PUSH1 0x4 MSTORE PUSH1 0x24 PUSH1 0x0 REVERT JUMPDEST POP SWAP2 SWAP1 POP JUMP JUMPDEST PUSH4 0x4E487B71 PUSH1 0xE0 SHL PUSH1 0x0 MSTORE PUSH1 0x41 PUSH1 0x4 MSTORE PUSH1 0x24 PUSH1 0x0 REVERT JUMPDEST PUSH4 0x4E487B71 PUSH1 0xE0 SHL PUSH1 0x0 MSTORE PUSH1 0x11 PUSH1 0x4 MSTORE PUSH1 0x24 PUSH1 0x0 REVERT JUMPDEST DUP2 DUP2 SUB DUP2 DUP2 GT ISZERO PUSH2 0x1662 JUMPI PUSH2 0x1662 PUSH2 0x1C7A JUMP JUMPDEST DUP1 DUP3 ADD DUP1 DUP3 GT ISZERO PUSH2 0x1662 JUMPI PUSH2 0x1662 PUSH2 0x1C7A JUMP JUMPDEST PUSH4 0x4E487B71 PUSH1 0xE0 SHL PUSH1 0x0 MSTORE PUSH1 0x32 PUSH1 0x4 MSTORE PUSH1 0x24 PUSH1 0x0 REVERT JUMPDEST PUSH1 0x0 PUSH1 0x1 DUP3 ADD PUSH2 0x1CDE JUMPI PUSH2 0x1CDE PUSH2 0x1C7A JUMP JUMPDEST POP PUSH1 0x1 ADD SWAP1 JUMP JUMPDEST PUSH1 0x1F DUP3 GT ISZERO PUSH2 0x1D2B JUMPI PUSH1 0x0 DUP2 DUP2 MSTORE PUSH1 0x20 DUP2 KECCAK256 PUSH1 0x1F DUP6 ADD PUSH1 0x5 SHR DUP2 ADD PUSH1 0x20 DUP7 LT ISZERO PUSH2 0x1D0C JUMPI POP DUP1 JUMPDEST PUSH1 0x1F DUP6 ADD PUSH1 0x5 SHR DUP3 ADD SWAP2 POP JUMPDEST DUP2 DUP2 LT ISZERO PUSH2 0x11EE JUMPI DUP3 DUP2 SSTORE PUSH1 0x1 ADD PUSH2 0x1D18 JUMP JUMPDEST POP POP POP JUMP JUMPDEST DUP2 MLOAD PUSH8 0xFFFFFFFFFFFFFFFF DUP2 GT ISZERO PUSH2 0x1D4A JUMPI PUSH2 0x1D4A PUSH2 0x1C64 JUMP JUMPDEST PUSH2 0x1D5E DUP2 PUSH2 0x1D58 DUP5 SLOAD PUSH2 0x1C2A JUMP JUMPDEST DUP5 PUSH2 0x1CE5 JUMP JUMPDEST PUSH1 0x20 DUP1 PUSH1 0x1F DUP4 GT PUSH1 0x1 DUP2 EQ PUSH2 0x1D93 JUMPI PUSH1 0x0 DUP5 ISZERO PUSH2 0x1D7B JUMPI POP DUP6 DUP4 ADD MLOAD JUMPDEST PUSH1 0x0 NOT PUSH1 0x3 DUP7 SWAP1 SHL SHR NOT AND PUSH1 0x1 DUP6 SWAP1 SHL OR DUP6 SSTORE PUSH2 0x11EE JUMP JUMPDEST PUSH1 0x0 DUP6 DUP2 MSTORE PUSH1 0x20 DUP2 KECCAK256 PUSH1 0x1F NOT DUP7 AND SWAP2 JUMPDEST DUP3 DUP2 LT ISZERO PUSH2 0x1DC2 JUMPI DUP9 DUP7 ADD MLOAD DUP3 SSTORE SWAP5 DUP5 ADD SWAP5 PUSH1 0x1 SWAP1 SWAP2 ADD SWAP1 DUP5 ADD PUSH2 0x1DA3 JUMP JUMPDEST POP DUP6 DUP3 LT ISZERO PUSH2 0x1DE0 JUMPI DUP8 DUP6 ADD MLOAD PUSH1 0x0 NOT PUSH1 0x3 DUP9 SWAP1 SHL PUSH1 0xF8 AND SHR NOT AND DUP2 SSTORE JUMPDEST POP POP POP POP POP PUSH1 0x1 SWAP1 DUP2 SHL ADD SWAP1 SSTORE POP JUMP JUMPDEST DUP2 DUP4 DUP3 CALLDATACOPY PUSH1 0x0 SWAP2 ADD SWAP1 DUP2 MSTORE SWAP2 SWAP1 POP JUMP JUMPDEST DUP2 DUP2 SUB PUSH1 0x0 DUP4 SLT DUP1 ISZERO DUP4 DUP4 SGT AND DUP4 DUP4 SLT DUP3 AND OR ISZERO PUSH2 0x1E20 JUMPI PUSH2 0x1E20 PUSH2 0x1C7A JUMP JUMPDEST POP SWAP3 SWAP2 POP POP JUMP JUMPDEST PUSH8 0xFFFFFFFFFFFFFFFF DUP4 GT ISZERO PUSH2 0x1E3F JUMPI PUSH2 0x1E3F PUSH2 0x1C64 JUMP JUMPDEST PUSH2 0x1E53 DUP4 PUSH2 0x1E4D DUP4 SLOAD PUSH2 0x1C2A JUMP JUMPDEST DUP4 PUSH2 0x1CE5 JUMP JUMPDEST PUSH1 0x0 PUSH1 0x1F DUP5 GT PUSH1 0x1 DUP2 EQ PUSH2 0x1E87 JUMPI PUSH1 0x0 DUP6 ISZERO PUSH2 0x1E6F JUMPI POP DUP4 DUP3 ADD CALLDATALOAD JUMPDEST PUSH1 0x0 NOT PUSH1 0x3 DUP8 SWAP1 SHL SHR NOT AND PUSH1 0x1 DUP7 SWAP1 SHL OR DUP4 SSTORE PUSH2 0x1EE1 JUMP JUMPDEST PUSH1 0x0 DUP4 DUP2 MSTORE PUSH1 0x20 SWAP1 KECCAK256 PUSH1 0x1F NOT DUP7 AND SWAP1 DUP4 JUMPDEST DUP3 DUP2 LT ISZERO PUSH2 0x1EB8 JUMPI DUP7 DUP6 ADD CALLDATALOAD DUP3 SSTORE PUSH1 0x20 SWAP5 DUP6 ADD SWAP5 PUSH1 0x1 SWAP1 SWAP3 ADD SWAP2 ADD PUSH2 0x1E98 JUMP JUMPDEST POP DUP7 DUP3 LT ISZERO PUSH2 0x1ED5 JUMPI PUSH1 0x0 NOT PUSH1 0xF8 DUP9 PUSH1 0x3 SHL AND SHR NOT DUP5 DUP8 ADD CALLDATALOAD AND DUP2 SSTORE JUMPDEST POP POP PUSH1 0x1 DUP6 PUSH1 0x1 SHL ADD DUP4 SSTORE JUMPDEST POP POP POP POP POP JUMP INVALID LOG2 PUSH5 0x6970667358 0x22 SLT KECCAK256 SHR BASEFEE 0x27 INVALID 0xB1 0x2D CALLDATALOAD REVERT 0x2E 0x21 0xDE CALLER ISZERO 0xB6 0xE9 GAS CALL DUP2 0xB4 SWAP12 0xC2 0x4D LT EXP 0xBE 0xBC 0xAC PUSH23 0xF4CC18264736F6C634300081400330000000000000000 "},"methodIdentifiers":{"INITIAL_TRUST()":"53b54438","SLASH_TRUST_PENALTY()":"d977372e","attackerHistory(address,uint256)":"15d17589","getAttackerHistory(address)":"af6e40d3","getBootstrapData()":"f2201fb9","getRecentThreats(uint256)":"9225b69e","getThreat(uint256)":"a47f0341","getThreatCount()":"6096954f","getTrustScore(address)":"5e09eea1","isBlacklisted(address)":"fe575a87","owner()":"8da5cb5b","poisonHistory(bytes32,uint256)":"35707ebd","recordThreat(address,address,string,bytes32,uint256,uint256,bool,uint256)":"9a64d107","registry()":"7b103999","setRegistry(address)":"a91ee0dc","setVault(address)":"6817031b","threats(uint256)":"51dc1742","trustScore(address)":"534a8465","updateENSNames(uint256,string,string)":"dad36388","vault()":"fbfa77cf"}}}}}