{"contracts/SlashingVault.sol":{"SlashingVault":{"abi":[{"inputs":[{"internalType":"address","name":"_registry","type":"address"}],"stateMutability":"nonpayable","type":"constructor"},{"anonymous":false,"inputs":[{"indexed":true,"internalType":"bytes32","name":"proofHash","type":"bytes32"},{"indexed":false,"internalType":"bool","name":"slashed","type":"bool"},{"indexed":false,"internalType":"uint256","name":"votesFor","type":"uint256"},{"indexed":false,"internalType":"uint256","name":"total","type":"uint256"}],"name":"ConsensusReached","type":"event"},{"anonymous":false,"inputs":[{"indexed":true,"internalType":"address","name":"agent","type":"address"},{"indexed":false,"internalType":"uint256","name":"amount","type":"uint256"}],"name":"Deposited","type":"event"},{"anonymous":false,"inputs":[{"indexed":true,"internalType":"bytes32","name":"proofHash","type":"bytes32"},{"indexed":false,"internalType":"address","name":"attacker","type":"address"},{"indexed":false,"internalType":"address","name":"victim","type":"address"},{"indexed":false,"internalType":"string","name":"poison","type":"string"}],"name":"ProofSubmitted","type":"event"},{"anonymous":false,"inputs":[{"indexed":true,"internalType":"address","name":"attacker","type":"address"},{"indexed":false,"internalType":"uint256","name":"amount","type":"uint256"},{"indexed":false,"internalType":"address[]","name":"validators","type":"address[]"}],"name":"Slashed","type":"event"},{"anonymous":false,"inputs":[{"indexed":true,"internalType":"address","name":"agent","type":"address"},{"indexed":false,"internalType":"uint256","name":"amount","type":"uint256"}],"name":"StakeWithdrawn","type":"event"},{"anonymous":false,"inputs":[{"indexed":true,"internalType":"address","name":"validator","type":"address"},{"indexed":false,"internalType":"uint256","name":"amount","type":"uint256"}],"name":"ValidatorRewarded","type":"event"},{"anonymous":false,"inputs":[{"indexed":true,"internalType":"bytes32","name":"proofHash","type":"bytes32"},{"indexed":false,"internalType":"address","name":"validator","type":"address"},{"indexed":false,"internalType":"bool","name":"vote","type":"bool"}],"name":"VoteCast","type":"event"},{"inputs":[],"name":"CONSENSUS_DENOMINATOR","outputs":[{"internalType":"uint256","name":"","type":"uint256"}],"stateMutability":"view","type":"function"},{"inputs":[],"name":"CONSENSUS_NUMERATOR","outputs":[{"internalType":"uint256","name":"","type":"uint256"}],"stateMutability":"view","type":"function"},{"inputs":[],"name":"SLASH_AMOUNT","outputs":[{"internalType":"uint256","name":"","type":"uint256"}],"stateMutability":"view","type":"function"},{"inputs":[],"name":"VALIDATOR_REWARD","outputs":[{"internalType":"uint256","name":"","type":"uint256"}],"stateMutability":"view","type":"function"},{"inputs":[{"internalType":"bytes32","name":"proofHash","type":"bytes32"},{"internalType":"bool","name":"vote","type":"bool"},{"internalType":"address[]","name":"validators","type":"address[]"}],"name":"castVote","outputs":[],"stateMutability":"nonpayable","type":"function"},{"inputs":[{"internalType":"address","name":"agent","type":"address"}],"name":"deposit","outputs":[],"stateMutability":"payable","type":"function"},{"inputs":[{"internalType":"bytes32","name":"proofHash","type":"bytes32"}],"name":"getProof","outputs":[{"internalType":"address","name":"attacker","type":"address"},{"internalType":"address","name":"victim","type":"address"},{"internalType":"string","name":"poisonSignature","type":"string"},{"internalType":"uint256","name":"timestamp","type":"uint256"},{"internalType":"bool","name":"executed","type":"bool"},{"internalType":"uint256","name":"votesFor","type":"uint256"},{"internalType":"uint256","name":"votesAgainst","type":"uint256"},{"internalType":"uint256","name":"totalValidators","type":"uint256"}],"stateMutability":"view","type":"function"},{"inputs":[],"name":"getProofCount","outputs":[{"internalType":"uint256","name":"","type":"uint256"}],"stateMutability":"view","type":"function"},{"inputs":[{"internalType":"address","name":"agent","type":"address"}],"name":"getStake","outputs":[{"internalType":"uint256","name":"","type":"uint256"}],"stateMutability":"view","type":"function"},{"inputs":[],"name":"getTotals","outputs":[{"internalType":"uint256","name":"slashed","type":"uint256"},{"internalType":"uint256","name":"rewarded","type":"uint256"}],"stateMutability":"view","type":"function"},{"inputs":[],"name":"ledger","outputs":[{"internalType":"contract IThreatLedger","name":"","type":"address"}],"stateMutability":"view","type":"function"},{"inputs":[],"name":"owner","outputs":[{"internalType":"address","name":"","type":"address"}],"stateMutability":"view","type":"function"},{"inputs":[{"internalType":"uint256","name":"","type":"uint256"}],"name":"proofList","outputs":[{"internalType":"bytes32","name":"","type":"bytes32"}],"stateMutability":"view","type":"function"},{"inputs":[{"internalType":"bytes32","name":"","type":"bytes32"}],"name":"proofs","outputs":[{"internalType":"address","name":"attacker","type":"address"},{"internalType":"address","name":"victim","type":"address"},{"internalType":"string","name":"poisonSignature","type":"string"},{"internalType":"bytes32","name":"proofHash","type":"bytes32"},{"internalType":"uint256","name":"timestamp","type":"uint256"},{"internalType":"bool","name":"executed","type":"bool"},{"internalType":"uint256","name":"votesFor","type":"uint256"},{"internalType":"uint256","name":"votesAgainst","type":"uint256"},{"internalType":"uint256","name":"totalValidators","type":"uint256"}],"stateMutability":"view","type":"function"},{"inputs":[],"name":"registry","outputs":[{"internalType":"contract ISYBILRegistry","name":"","type":"address"}],"stateMutability":"view","type":"function"},{"inputs":[{"internalType":"address","name":"_ledger","type":"address"}],"name":"setLedger","outputs":[],"stateMutability":"nonpayable","type":"function"},{"inputs":[{"internalType":"address","name":"attacker","type":"address"},{"internalType":"address","name":"victim","type":"address"},{"internalType":"address[]","name":"validators","type":"address[]"},{"internalType":"uint256","name":"amount","type":"uint256"}],"name":"slash","outputs":[],"stateMutability":"nonpayable","type":"function"},{"inputs":[{"internalType":"address","name":"","type":"address"}],"name":"stakes","outputs":[{"internalType":"uint256","name":"","type":"uint256"}],"stateMutability":"view","type":"function"},{"inputs":[{"internalType":"address","name":"attacker","type":"address"},{"internalType":"string","name":"poisonSignature","type":"string"},{"internalType":"bytes32","name":"proofHash","type":"bytes32"}],"name":"submitProof","outputs":[],"stateMutability":"nonpayable","type":"function"},{"inputs":[],"name":"totalRewarded","outputs":[{"internalType":"uint256","name":"","type":"uint256"}],"stateMutability":"view","type":"function"},{"inputs":[],"name":"totalSlashed","outputs":[{"internalType":"uint256","name":"","type":"uint256"}],"stateMutability":"view","type":"function"},{"inputs":[],"name":"withdraw","outputs":[],"stateMutability":"nonpayable","type":"function"},{"stateMutability":"payable","type":"receive"}],"evm":{"bytecode":{"linkReferences":{},"object":"608060405234801561001057600080fd5b50604051611fd8380380611fd883398101604081905261002f91610062565b60008054336001600160a01b031991821617909155600180549091166001600160a01b0392909216919091179055610092565b60006020828403121561007457600080fd5b81516001600160a01b038116811461008b57600080fd5b9392505050565b611f37806100a16000396000f3fe6080604052600436106101395760003560e01c80637a766460116100ab578063a201bbdd1161006f578063a201bbdd146103a0578063a3c3cda0146103b6578063a79fca9e146103d1578063aed29d07146103f1578063e4c1171014610407578063f340fa011461041c57600080fd5b80637a766460146102e25780637b1039991461031857806384e10a90146103385780638da5cb5b146103605780639f9941851461038057600080fd5b806337720606116100fd578063377206061461021b5780633ccfd60b14610236578063444d95b01461024b57806356397c35146102805780635be4ee1b146102b857806362ff7b8b146102cd57600080fd5b806316934fc4146101455780631abe87b2146101855780631b80bb3a146101a75780631e41ef12146101db5780633246887d146101fb57600080fd5b3661014057005b600080fd5b34801561015157600080fd5b50610172610160366004611822565b60036020526000908152604090205481565b6040519081526020015b60405180910390f35b34801561019157600080fd5b506101a56101a0366004611844565b61042f565b005b3480156101b357600080fd5b506101c76101c23660046118cd565b61066a565b60405161017c98979695949392919061192c565b3480156101e757600080fd5b506101a56101f63660046119e2565b610772565b34801561020757600080fd5b506101a5610216366004611822565b6109d5565b34801561022757600080fd5b506101726611c37937e0800081565b34801561024257600080fd5b506101a5610a3d565b34801561025757600080fd5b5061026b6102663660046118cd565b610c1b565b60405161017c99989796959493929190611a3e565b34801561028c57600080fd5b506002546102a0906001600160a01b031681565b6040516001600160a01b03909116815260200161017c565b3480156102c457600080fd5b50600554610172565b3480156102d957600080fd5b50610172600581565b3480156102ee57600080fd5b506101726102fd366004611822565b6001600160a01b031660009081526003602052604090205490565b34801561032457600080fd5b506001546102a0906001600160a01b031681565b34801561034457600080fd5b506006546007546040805192835260208301919091520161017c565b34801561036c57600080fd5b506000546102a0906001600160a01b031681565b34801561038c57600080fd5b5061017261039b3660046118cd565b610cfe565b3480156103ac57600080fd5b5061017260065481565b3480156103c257600080fd5b506101726601c6bf5263400081565b3480156103dd57600080fd5b506101a56103ec366004611aa0565b610d1f565b3480156103fd57600080fd5b5061017260075481565b34801561041357600080fd5b50610172600381565b6101a561042a366004611822565b611052565b336000908152600360205260409020546104845760405162461bcd60e51b8152602060048201526011602482015270159a58dd1a5b481b9bdd081cdd185ad959607a1b60448201526064015b60405180910390fd5b6001600160a01b0384166000908152600360205260409020546104df5760405162461bcd60e51b8152602060048201526013602482015272105d1d1858dad95c881b9bdd081cdd185ad959606a1b604482015260640161047b565b60008181526004602052604090206005015460ff16156105345760405162461bcd60e51b815260206004820152601060248201526f105b1c9958591e48195e1958dd5d195960821b604482015260640161047b565b60008181526004602081905260409091200154156105835760405162461bcd60e51b815260206004820152600c60248201526b50726f6f662065786973747360a01b604482015260640161047b565b600081815260046020526040902080546001600160a01b0386166001600160a01b031991821617825560018201805490911633179055600281016105c8848683611ba8565b50600381018290554260048201556005808201805460ff191690556000600683018190556007830181905581546001810183559190527f036b6384b5eca791c62761152d0c79bb0604c104a5fb6f4eb0703f3154bb3db00182905560405182907f96e8ce741395f1922f1f9ced91de31bf6ed0ec9ddcb5251a4c2ef89d2ef622d79061065b908890339089908990611c68565b60405180910390a25050505050565b60008181526004602081905260408220805460018201549282015460058301546006840154600785015460088601546002870180548a996060998b998a998a998a998a9994986001600160a01b03948516989690941696929460ff90921693909286906106d690611b1f565b80601f016020809104026020016040519081016040528092919081815260200182805461070290611b1f565b801561074f5780601f106107245761010080835404028352916020019161074f565b820191906000526020600020905b81548152906001019060200180831161073257829003601f168201915b505050505095509850985098509850985098509850985050919395975091939597565b6000848152600460208190526040909120908101546107c55760405162461bcd60e51b815260206004820152600f60248201526e141c9bdbd9881b9bdd08199bdd5b99608a1b604482015260640161047b565b600581015460ff161561080d5760405162461bcd60e51b815260206004820152601060248201526f105b1c9958591e48195e1958dd5d195960821b604482015260640161047b565b33600090815260098201602052604090205460ff161561085f5760405162461bcd60e51b815260206004820152600d60248201526c105b1c9958591e481d9bdd1959609a1b604482015260640161047b565b336000908152600360205260409020546108b25760405162461bcd60e51b815260206004820152601460248201527315985b1a59185d1bdc881b9bdd081cdd185ad95960621b604482015260640161047b565b3360009081526009820160209081526040808320805460ff19908116600117909155600a850190925290912080548615801591909316179055600882018390556109125760068101805490600061090883611cca565b919050555061092a565b60078101805490600061092483611cca565b91905055505b6001546040516324b07fd160e21b81523360048201526001600160a01b03909116906392c1ff4490602401600060405180830381600087803b15801561096f57600080fd5b505af1158015610983573d6000803e3d6000fd5b50506040805133815287151560208201528893507f8b40665146691327ee30f5bf56e9b2d6f445d2830d3b09b56385cd30f630ecfb92500160405180910390a26109ce8584846110ff565b5050505050565b6000546001600160a01b03163314610a1b5760405162461bcd60e51b81526020600482015260096024820152682737ba1037bbb732b960b91b604482015260640161047b565b600280546001600160a01b0319166001600160a01b0392909216919091179055565b3360009081526003602052604090205480610a905760405162461bcd60e51b81526020600482015260136024820152724e6f7468696e6720746f20776974686472617760681b604482015260640161047b565b6001546040516397f735d560e01b81523360048201526001600160a01b03909116906397f735d590602401602060405180830381865afa158015610ad8573d6000803e3d6000fd5b505050506040513d601f19601f82011682018060405250810190610afc9190611ce3565b15610b495760405162461bcd60e51b815260206004820152601d60248201527f42616e6e6564206167656e74732063616e6e6f74207769746864726177000000604482015260640161047b565b336000818152600360205260408082208290555190919083908381818185875af1925050503d8060008114610b9a576040519150601f19603f3d011682016040523d82523d6000602084013e610b9f565b606091505b5050905080610be25760405162461bcd60e51b815260206004820152600f60248201526e151c985b9cd9995c8819985a5b1959608a1b604482015260640161047b565b60405182815233907f8108595eb6bad3acefa9da467d90cc2217686d5c5ac85460f8b7849c840645fc9060200160405180910390a25050565b6004602052600090815260409020805460018201546002830180546001600160a01b03938416949290931692610c5090611b1f565b80601f0160208091040260200160405190810160405280929190818152602001828054610c7c90611b1f565b8015610cc95780601f10610c9e57610100808354040283529160200191610cc9565b820191906000526020600020905b815481529060010190602001808311610cac57829003601f168201915b505050600384015460048501546005860154600687015460078801546008909801549697939692955060ff9091169350919089565b60058181548110610d0e57600080fd5b600091825260209091200154905081565b6000546001600160a01b03163314610d655760405162461bcd60e51b81526020600482015260096024820152682737ba1037bbb732b960b91b604482015260640161047b565b6001600160a01b038516600090815260036020526040902054811115610dc25760405162461bcd60e51b8152602060048201526012602482015271496e73756666696369656e74207374616b6560701b604482015260640161047b565b6001600160a01b03851660009081526003602052604081208054839290610dea908490611d00565b925050819055508060066000828254610e039190611d19565b90915550600090506064610e1883601e611d2c565b610e229190611d43565b9050600083610e32576000610e3c565b610e3c8483611d43565b905060005b84811015610f45578115610f33578160036000888885818110610e6657610e66611d65565b9050602002016020810190610e7b9190611822565b6001600160a01b03166001600160a01b031681526020019081526020016000206000828254610eaa9190611d19565b925050819055508160076000828254610ec39190611d19565b909155508690508582818110610edb57610edb611d65565b9050602002016020810190610ef09190611822565b6001600160a01b03167f38cbdc591b5cf62cc9a88b92dcee4809f0d0ca6cd9bdad9f818d74c38e78bf2983604051610f2a91815260200190565b60405180910390a25b80610f3d81611cca565b915050610e41565b506001546040516314c2559360e21b81526001600160a01b03898116600483015290911690635309564c90602401600060405180830381600087803b158015610f8d57600080fd5b505af1158015610fa1573d6000803e3d6000fd5b50506001546040516325da1c4160e11b81526001600160a01b038a811660048301529091169250634bb438829150602401600060405180830381600087803b158015610fec57600080fd5b505af1158015611000573d6000803e3d6000fd5b50505050866001600160a01b03167f0fb1d27616d96fa475502ddf9ccd3c937eda660265901a85183c7286edc26e3684878760405161104193929190611d7b565b60405180910390a250505050505050565b600034116110915760405162461bcd60e51b815260206004820152600c60248201526b16995c9bc819195c1bdcda5d60a21b604482015260640161047b565b6001600160a01b038116600090815260036020526040812080543492906110b9908490611d19565b90915550506040513481526001600160a01b038216907f2da466a7b24304f47e87fa2e1e5a81b9831ce54fec19055ce277ca2f39ba42c49060200160405180910390a250565b6000838152600460205260409020600581015460ff16156111205750505050565b816000819003611131575050505050565b600061113e600383611d2c565b6005846006015461114f9190611d2c565b101590506000611160600384611d2c565b600585600701546111719190611d2c565b1015905081156111e55760058401805460ff191660019081179091556006850154604080519283526020830191909152810184905287907f043828844832e7e9c83a282c1f717245b989a7f7d3dcd1d31ceb33100be855969060600160405180910390a26111e0878787611249565b611240565b80156112405760058401805460ff19166001179055600684015460408051600081526020810192909252810184905287907f043828844832e7e9c83a282c1f717245b989a7f7d3dcd1d31ceb33100be8559690606001611041565b50505050505050565b600083815260046020908152604080832080546001600160a01b031684526003909252909120546611c37937e080009081111561129c575080546001600160a01b03166000908152600360205260409020545b81546001600160a01b0316600090815260036020526040812080548392906112c5908490611d00565b9250508190555080600660008282546112de9190611d19565b90915550600090508367ffffffffffffffff8111156112ff576112ff611b09565b604051908082528060200260200182016040528015611328578160200160208202803683370190505b5090506000805b8581101561144f5784600901600088888481811061134f5761134f611d65565b90506020020160208101906113649190611822565b6001600160a01b0316815260208101919091526040016000205460ff1680156113d3575084600a0160008888848181106113a0576113a0611d65565b90506020020160208101906113b59190611822565b6001600160a01b0316815260208101919091526040016000205460ff165b1561143d578686828181106113ea576113ea611d65565b90506020020160208101906113ff9190611822565b838361140a81611cca565b94508151811061141c5761141c611d65565b60200260200101906001600160a01b031690816001600160a01b0316815250505b8061144781611cca565b91505061132f565b506000606461145f85601e611d2c565b6114699190611d43565b905060006114778286611d00565b90506000808411611489576000611493565b6114938484611d43565b90506000805b8581101561161e57821561157d5782600360008984815181106114be576114be611d65565b60200260200101516001600160a01b03166001600160a01b0316815260200190815260200160002060008282546114f59190611d19565b92505081905550826007600082825461150e9190611d19565b9091555061151e90508383611d19565b915086818151811061153257611532611d65565b60200260200101516001600160a01b03167f38cbdc591b5cf62cc9a88b92dcee4809f0d0ca6cd9bdad9f818d74c38e78bf298460405161157491815260200190565b60405180910390a25b60015487516001600160a01b03909116906392c1ff44908990849081106115a6576115a6611d65565b60200260200101516040518263ffffffff1660e01b81526004016115d991906001600160a01b0391909116815260200190565b600060405180830381600087803b1580156115f357600080fd5b505af1158015611607573d6000803e3d6000fd5b50505050808061161690611cca565b915050611499565b5060015488546040516314c2559360e21b81526001600160a01b039182166004820152911690635309564c90602401600060405180830381600087803b15801561166757600080fd5b505af115801561167b573d6000803e3d6000fd5b505060018054908b01546040516325da1c4160e11b81526001600160a01b03918216600482015291169250634bb438829150602401600060405180830381600087803b1580156116ca57600080fd5b505af11580156116de573d6000803e3d6000fd5b50506002546001600160a01b03161591506117b1905057600260009054906101000a90046001600160a01b03166001600160a01b0316639a64d1078960000160009054906101000a90046001600160a01b03168a60010160009054906101000a90046001600160a01b03168b6002018f8d600601548e6008015460018f6040518963ffffffff1660e01b815260040161177e989796959493929190611dd1565b600060405180830381600087803b15801561179857600080fd5b505af11580156117ac573d6000803e3d6000fd5b505050505b87546040516001600160a01b03909116907f0fb1d27616d96fa475502ddf9ccd3c937eda660265901a85183c7286edc26e36906117f1908a908a90611eaa565b60405180910390a25050505050505050505050565b80356001600160a01b038116811461181d57600080fd5b919050565b60006020828403121561183457600080fd5b61183d82611806565b9392505050565b6000806000806060858703121561185a57600080fd5b61186385611806565b9350602085013567ffffffffffffffff8082111561188057600080fd5b818701915087601f83011261189457600080fd5b8135818111156118a357600080fd5b8860208285010111156118b557600080fd5b95986020929092019750949560400135945092505050565b6000602082840312156118df57600080fd5b5035919050565b6000815180845260005b8181101561190c576020818501810151868301820152016118f0565b506000602082860101526020601f19601f83011685010191505092915050565b6001600160a01b03898116825288166020820152610100604082018190526000906119598382018a6118e6565b60608401989098525050931515608085015260a084019290925260c083015260e0909101529392505050565b801515811461199357600080fd5b50565b60008083601f8401126119a857600080fd5b50813567ffffffffffffffff8111156119c057600080fd5b6020830191508360208260051b85010111156119db57600080fd5b9250929050565b600080600080606085870312156119f857600080fd5b843593506020850135611a0a81611985565b9250604085013567ffffffffffffffff811115611a2657600080fd5b611a3287828801611996565b95989497509550505050565b6001600160a01b038a811682528916602082015261012060408201819052600090611a6b8382018b6118e6565b60608401999099525050608081019590955292151560a085015260c084019190915260e0830152610100909101529392505050565b600080600080600060808688031215611ab857600080fd5b611ac186611806565b9450611acf60208701611806565b9350604086013567ffffffffffffffff811115611aeb57600080fd5b611af788828901611996565b96999598509660600135949350505050565b634e487b7160e01b600052604160045260246000fd5b600181811c90821680611b3357607f821691505b602082108103611b5357634e487b7160e01b600052602260045260246000fd5b50919050565b601f821115611ba357600081815260208120601f850160051c81016020861015611b805750805b601f850160051c820191505b81811015611b9f57828155600101611b8c565b5050505b505050565b67ffffffffffffffff831115611bc057611bc0611b09565b611bd483611bce8354611b1f565b83611b59565b6000601f841160018114611c085760008515611bf05750838201355b600019600387901b1c1916600186901b1783556109ce565b600083815260209020601f19861690835b82811015611c395786850135825560209485019460019092019101611c19565b5086821015611c565760001960f88860031b161c19848701351681555b505060018560011b0183555050505050565b6001600160a01b0385811682528416602082015260606040820181905281018290526000828460808401376000608084840101526080601f19601f850116830101905095945050505050565b634e487b7160e01b600052601160045260246000fd5b600060018201611cdc57611cdc611cb4565b5060010190565b600060208284031215611cf557600080fd5b815161183d81611985565b81810381811115611d1357611d13611cb4565b92915050565b80820180821115611d1357611d13611cb4565b8082028115828204841417611d1357611d13611cb4565b600082611d6057634e487b7160e01b600052601260045260246000fd5b500490565b634e487b7160e01b600052603260045260246000fd5b83815260406020808301829052908201839052600090849060608401835b86811015611dc5576001600160a01b03611db285611806565b1682529282019290820190600101611d99565b50979650505050505050565b6001600160a01b03898116825288166020808301919091526101006040830181905288546000928391611e0381611b1f565b9386018490526101209360018281168015611e255760018114611e3f57611e6d565b60ff1984168988015282151560051b890187019550611e6d565b8e6000528460002060005b84811015611e655781548b82018a0152908301908601611e4a565b8a0188019650505b505050505080925050508660608301528560808301528460a0830152611e9760c083018515159052565b8260e08301529998505050505050505050565b6000604082018483526020604081850152818551808452606086019150828701935060005b81811015611ef45784516001600160a01b031683529383019391830191600101611ecf565b509097965050505050505056fea2646970667358221220a6d5e299900970f9e8974ab75a84c5db64389d07fca54933196a40a3985d88b064736f6c63430008140033","opcodes":"PUSH1 0x80 PUSH1 0x40 MSTORE CALLVALUE DUP1 ISZERO PUSH2 0x10 JUMPI PUSH1 0x0 DUP1 REVERT JUMPDEST POP PUSH1 0x40 MLOAD PUSH2 0x1FD8 CODESIZE SUB DUP1 PUSH2 0x1FD8 DUP4 CODECOPY DUP2 ADD PUSH1 0x40 DUP2 SWAP1 MSTORE PUSH2 0x2F SWAP2 PUSH2 0x62 JUMP JUMPDEST PUSH1 0x0 DUP1 SLOAD CALLER PUSH1 0x1 PUSH1 0x1 PUSH1 0xA0 SHL SUB NOT SWAP2 DUP3 AND OR SWAP1 SWAP2 SSTORE PUSH1 0x1 DUP1 SLOAD SWAP1 SWAP2 AND PUSH1 0x1 PUSH1 0x1 PUSH1 0xA0 SHL SUB SWAP3 SWAP1 SWAP3 AND SWAP2 SWAP1 SWAP2 OR SWAP1 SSTORE PUSH2 0x92 JUMP JUMPDEST PUSH1 0x0 PUSH1 0x20 DUP3 DUP5 SUB SLT ISZERO PUSH2 0x74 JUMPI PUSH1 0x0 DUP1 REVERT JUMPDEST DUP2 MLOAD PUSH1 0x1 PUSH1 0x1 PUSH1 0xA0 SHL SUB DUP2 AND DUP2 EQ PUSH2 0x8B JUMPI PUSH1 0x0 DUP1 REVERT JUMPDEST SWAP4 SWAP3 POP POP POP JUMP JUMPDEST PUSH2 0x1F37 DUP1 PUSH2 0xA1 PUSH1 0x0 CODECOPY PUSH1 0x0 RETURN INVALID PUSH1 0x80 PUSH1 0x40 MSTORE PUSH1 0x4 CALLDATASIZE LT PUSH2 0x139 JUMPI PUSH1 0x0 CALLDATALOAD PUSH1 0xE0 SHR DUP1 PUSH4 0x7A766460 GT PUSH2 0xAB JUMPI DUP1 PUSH4 0xA201BBDD GT PUSH2 0x6F JUMPI DUP1 PUSH4 0xA201BBDD EQ PUSH2 0x3A0 JUMPI DUP1 PUSH4 0xA3C3CDA0 EQ PUSH2 0x3B6 JUMPI DUP1 PUSH4 0xA79FCA9E EQ PUSH2 0x3D1 JUMPI DUP1 PUSH4 0xAED29D07 EQ PUSH2 0x3F1 JUMPI DUP1 PUSH4 0xE4C11710 EQ PUSH2 0x407 JUMPI DUP1 PUSH4 0xF340FA01 EQ PUSH2 0x41C JUMPI PUSH1 0x0 DUP1 REVERT JUMPDEST DUP1 PUSH4 0x7A766460 EQ PUSH2 0x2E2 JUMPI DUP1 PUSH4 0x7B103999 EQ PUSH2 0x318 JUMPI DUP1 PUSH4 0x84E10A90 EQ PUSH2 0x338 JUMPI DUP1 PUSH4 0x8DA5CB5B EQ PUSH2 0x360 JUMPI DUP1 PUSH4 0x9F994185 EQ PUSH2 0x380 JUMPI PUSH1 0x0 DUP1 REVERT JUMPDEST DUP1 PUSH4 0x37720606 GT PUSH2 0xFD JUMPI DUP1 PUSH4 0x37720606 EQ PUSH2 0x21B JUMPI DUP1 PUSH4 0x3CCFD60B EQ PUSH2 0x236 JUMPI DUP1 PUSH4 0x444D95B0 EQ PUSH2 0x24B JUMPI DUP1 PUSH4 0x56397C35 EQ PUSH2 0x280 JUMPI DUP1 PUSH4 0x5BE4EE1B EQ PUSH2 0x2B8 JUMPI DUP1 PUSH4 0x62FF7B8B EQ PUSH2 0x2CD JUMPI PUSH1 0x0 DUP1 REVERT JUMPDEST DUP1 PUSH4 0x16934FC4 EQ PUSH2 0x145 JUMPI DUP1 PUSH4 0x1ABE87B2 EQ PUSH2 0x185 JUMPI DUP1 PUSH4 0x1B80BB3A EQ PUSH2 0x1A7 JUMPI DUP1 PUSH4 0x1E41EF12 EQ PUSH2 0x1DB JUMPI DUP1 PUSH4 0x3246887D EQ PUSH2 0x1FB JUMPI PUSH1 0x0 DUP1 REVERT JUMPDEST CALLDATASIZE PUSH2 0x140 JUMPI STOP JUMPDEST PUSH1 0x0 DUP1 REVERT JUMPDEST CALLVALUE DUP1 ISZERO PUSH2 0x151 JUMPI PUSH1 0x0 DUP1 REVERT JUMPDEST POP PUSH2 0x172 PUSH2 0x160 CALLDATASIZE PUSH1 0x4 PUSH2 0x1822 JUMP JUMPDEST PUSH1 0x3 PUSH1 0x20 MSTORE PUSH1 0x0 SWAP1 DUP2 MSTORE PUSH1 0x40 SWAP1 KECCAK256 SLOAD DUP2 JUMP JUMPDEST PUSH1 0x40 MLOAD SWAP1 DUP2 MSTORE PUSH1 0x20 ADD JUMPDEST PUSH1 0x40 MLOAD DUP1 SWAP2 SUB SWAP1 RETURN JUMPDEST CALLVALUE DUP1 ISZERO PUSH2 0x191 JUMPI PUSH1 0x0 DUP1 REVERT JUMPDEST POP PUSH2 0x1A5 PUSH2 0x1A0 CALLDATASIZE PUSH1 0x4 PUSH2 0x1844 JUMP JUMPDEST PUSH2 0x42F JUMP JUMPDEST STOP JUMPDEST CALLVALUE DUP1 ISZERO PUSH2 0x1B3 JUMPI PUSH1 0x0 DUP1 REVERT JUMPDEST POP PUSH2 0x1C7 PUSH2 0x1C2 CALLDATASIZE PUSH1 0x4 PUSH2 0x18CD JUMP JUMPDEST PUSH2 0x66A JUMP JUMPDEST PUSH1 0x40 MLOAD PUSH2 0x17C SWAP9 SWAP8 SWAP7 SWAP6 SWAP5 SWAP4 SWAP3 SWAP2 SWAP1 PUSH2 0x192C JUMP JUMPDEST CALLVALUE DUP1 ISZERO PUSH2 0x1E7 JUMPI PUSH1 0x0 DUP1 REVERT JUMPDEST POP PUSH2 0x1A5 PUSH2 0x1F6 CALLDATASIZE PUSH1 0x4 PUSH2 0x19E2 JUMP JUMPDEST PUSH2 0x772 JUMP JUMPDEST CALLVALUE DUP1 ISZERO PUSH2 0x207 JUMPI PUSH1 0x0 DUP1 REVERT JUMPDEST POP PUSH2 0x1A5 PUSH2 0x216 CALLDATASIZE PUSH1 0x4 PUSH2 0x1822 JUMP JUMPDEST PUSH2 0x9D5 JUMP JUMPDEST CALLVALUE DUP1 ISZERO PUSH2 0x227 JUMPI PUSH1 0x0 DUP1 REVERT JUMPDEST POP PUSH2 0x172 PUSH7 0x11C37937E08000 DUP2 JUMP JUMPDEST CALLVALUE DUP1 ISZERO PUSH2 0x242 JUMPI PUSH1 0x0 DUP1 REVERT JUMPDEST POP PUSH2 0x1A5 PUSH2 0xA3D JUMP JUMPDEST CALLVALUE DUP1 ISZERO PUSH2 0x257 JUMPI PUSH1 0x0 DUP1 REVERT JUMPDEST POP PUSH2 0x26B PUSH2 0x266 CALLDATASIZE PUSH1 0x4 PUSH2 0x18CD JUMP JUMPDEST PUSH2 0xC1B JUMP JUMPDEST PUSH1 0x40 MLOAD PUSH2 0x17C SWAP10 SWAP9 SWAP8 SWAP7 SWAP6 SWAP5 SWAP4 SWAP3 SWAP2 SWAP1 PUSH2 0x1A3E JUMP JUMPDEST CALLVALUE DUP1 ISZERO PUSH2 0x28C JUMPI PUSH1 0x0 DUP1 REVERT JUMPDEST POP PUSH1 0x2 SLOAD PUSH2 0x2A0 SWAP1 PUSH1 0x1 PUSH1 0x1 PUSH1 0xA0 SHL SUB AND DUP2 JUMP JUMPDEST PUSH1 0x40 MLOAD PUSH1 0x1 PUSH1 0x1 PUSH1 0xA0 SHL SUB SWAP1 SWAP2 AND DUP2 MSTORE PUSH1 0x20 ADD PUSH2 0x17C JUMP JUMPDEST CALLVALUE DUP1 ISZERO PUSH2 0x2C4 JUMPI PUSH1 0x0 DUP1 REVERT JUMPDEST POP PUSH1 0x5 SLOAD PUSH2 0x172 JUMP JUMPDEST CALLVALUE DUP1 ISZERO PUSH2 0x2D9 JUMPI PUSH1 0x0 DUP1 REVERT JUMPDEST POP PUSH2 0x172 PUSH1 0x5 DUP2 JUMP JUMPDEST CALLVALUE DUP1 ISZERO PUSH2 0x2EE JUMPI PUSH1 0x0 DUP1 REVERT JUMPDEST POP PUSH2 0x172 PUSH2 0x2FD CALLDATASIZE PUSH1 0x4 PUSH2 0x1822 JUMP JUMPDEST PUSH1 0x1 PUSH1 0x1 PUSH1 0xA0 SHL SUB AND PUSH1 0x0 SWAP1 DUP2 MSTORE PUSH1 0x3 PUSH1 0x20 MSTORE PUSH1 0x40 SWAP1 KECCAK256 SLOAD SWAP1 JUMP JUMPDEST CALLVALUE DUP1 ISZERO PUSH2 0x324 JUMPI PUSH1 0x0 DUP1 REVERT JUMPDEST POP PUSH1 0x1 SLOAD PUSH2 0x2A0 SWAP1 PUSH1 0x1 PUSH1 0x1 PUSH1 0xA0 SHL SUB AND DUP2 JUMP JUMPDEST CALLVALUE DUP1 ISZERO PUSH2 0x344 JUMPI PUSH1 0x0 DUP1 REVERT JUMPDEST POP PUSH1 0x6 SLOAD PUSH1 0x7 SLOAD PUSH1 0x40 DUP1 MLOAD SWAP3 DUP4 MSTORE PUSH1 0x20 DUP4 ADD SWAP2 SWAP1 SWAP2 MSTORE ADD PUSH2 0x17C JUMP JUMPDEST CALLVALUE DUP1 ISZERO PUSH2 0x36C JUMPI PUSH1 0x0 DUP1 REVERT JUMPDEST POP PUSH1 0x0 SLOAD PUSH2 0x2A0 SWAP1 PUSH1 0x1 PUSH1 0x1 PUSH1 0xA0 SHL SUB AND DUP2 JUMP JUMPDEST CALLVALUE DUP1 ISZERO PUSH2 0x38C JUMPI PUSH1 0x0 DUP1 REVERT JUMPDEST POP PUSH2 0x172 PUSH2 0x39B CALLDATASIZE PUSH1 0x4 PUSH2 0x18CD JUMP JUMPDEST PUSH2 0xCFE JUMP JUMPDEST CALLVALUE DUP1 ISZERO PUSH2 0x3AC JUMPI PUSH1 0x0 DUP1 REVERT JUMPDEST POP PUSH2 0x172 PUSH1 0x6 SLOAD DUP2 JUMP JUMPDEST CALLVALUE DUP1 ISZERO PUSH2 0x3C2 JUMPI PUSH1 0x0 DUP1 REVERT JUMPDEST POP PUSH2 0x172 PUSH7 0x1C6BF52634000 DUP2 JUMP JUMPDEST CALLVALUE DUP1 ISZERO PUSH2 0x3DD JUMPI PUSH1 0x0 DUP1 REVERT JUMPDEST POP PUSH2 0x1A5 PUSH2 0x3EC CALLDATASIZE PUSH1 0x4 PUSH2 0x1AA0 JUMP JUMPDEST PUSH2 0xD1F JUMP JUMPDEST CALLVALUE DUP1 ISZERO PUSH2 0x3FD JUMPI PUSH1 0x0 DUP1 REVERT JUMPDEST POP PUSH2 0x172 PUSH1 0x7 SLOAD DUP2 JUMP JUMPDEST CALLVALUE DUP1 ISZERO PUSH2 0x413 JUMPI PUSH1 0x0 DUP1 REVERT JUMPDEST POP PUSH2 0x172 PUSH1 0x3 DUP2 JUMP JUMPDEST PUSH2 0x1A5 PUSH2 0x42A CALLDATASIZE PUSH1 0x4 PUSH2 0x1822 JUMP JUMPDEST PUSH2 0x1052 JUMP JUMPDEST CALLER PUSH1 0x0 SWAP1 DUP2 MSTORE PUSH1 0x3 PUSH1 0x20 MSTORE PUSH1 0x40 SWAP1 KECCAK256 SLOAD PUSH2 0x484 JUMPI PUSH1 0x40 MLOAD PUSH3 0x461BCD PUSH1 0xE5 SHL DUP2 MSTORE PUSH1 0x20 PUSH1 0x4 DUP3 ADD MSTORE PUSH1 0x11 PUSH1 0x24 DUP3 ADD MSTORE PUSH17 0x159A58DD1A5B481B9BDD081CDD185AD959 PUSH1 0x7A SHL PUSH1 0x44 DUP3 ADD MSTORE PUSH1 0x64 ADD JUMPDEST PUSH1 0x40 MLOAD DUP1 SWAP2 SUB SWAP1 REVERT JUMPDEST PUSH1 0x1 PUSH1 0x1 PUSH1 0xA0 SHL SUB DUP5 AND PUSH1 0x0 SWAP1 DUP2 MSTORE PUSH1 0x3 PUSH1 0x20 MSTORE PUSH1 0x40 SWAP1 KECCAK256 SLOAD PUSH2 0x4DF JUMPI PUSH1 0x40 MLOAD PUSH3 0x461BCD PUSH1 0xE5 SHL DUP2 MSTORE PUSH1 0x20 PUSH1 0x4 DUP3 ADD MSTORE PUSH1 0x13 PUSH1 0x24 DUP3 ADD MSTORE PUSH19 0x105D1D1858DAD95C881B9BDD081CDD185AD959 PUSH1 0x6A SHL PUSH1 0x44 DUP3 ADD MSTORE PUSH1 0x64 ADD PUSH2 0x47B JUMP JUMPDEST PUSH1 0x0 DUP2 DUP2 MSTORE PUSH1 0x4 PUSH1 0x20 MSTORE PUSH1 0x40 SWAP1 KECCAK256 PUSH1 0x5 ADD SLOAD PUSH1 0xFF AND ISZERO PUSH2 0x534 JUMPI PUSH1 0x40 MLOAD PUSH3 0x461BCD PUSH1 0xE5 SHL DUP2 MSTORE PUSH1 0x20 PUSH1 0x4 DUP3 ADD MSTORE PUSH1 0x10 PUSH1 0x24 DUP3 ADD MSTORE PUSH16 0x105B1C9958591E48195E1958DD5D1959 PUSH1 0x82 SHL PUSH1 0x44 DUP3 ADD MSTORE PUSH1 0x64 ADD PUSH2 0x47B JUMP JUMPDEST PUSH1 0x0 DUP2 DUP2 MSTORE PUSH1 0x4 PUSH1 0x20 DUP2 SWAP1 MSTORE PUSH1 0x40 SWAP1 SWAP2 KECCAK256 ADD SLOAD ISZERO PUSH2 0x583 JUMPI PUSH1 0x40 MLOAD PUSH3 0x461BCD PUSH1 0xE5 SHL DUP2 MSTORE PUSH1 0x20 PUSH1 0x4 DUP3 ADD MSTORE PUSH1 0xC PUSH1 0x24 DUP3 ADD MSTORE PUSH12 0x50726F6F6620657869737473 PUSH1 0xA0 SHL PUSH1 0x44 DUP3 ADD MSTORE PUSH1 0x64 ADD PUSH2 0x47B JUMP JUMPDEST PUSH1 0x0 DUP2 DUP2 MSTORE PUSH1 0x4 PUSH1 0x20 MSTORE PUSH1 0x40 SWAP1 KECCAK256 DUP1 SLOAD PUSH1 0x1 PUSH1 0x1 PUSH1 0xA0 SHL SUB DUP7 AND PUSH1 0x1 PUSH1 0x1 PUSH1 0xA0 SHL SUB NOT SWAP2 DUP3 AND OR DUP3 SSTORE PUSH1 0x1 DUP3 ADD DUP1 SLOAD SWAP1 SWAP2 AND CALLER OR SWAP1 SSTORE PUSH1 0x2 DUP2 ADD PUSH2 0x5C8 DUP5 DUP7 DUP4 PUSH2 0x1BA8 JUMP JUMPDEST POP PUSH1 0x3 DUP2 ADD DUP3 SWAP1 SSTORE TIMESTAMP PUSH1 0x4 DUP3 ADD SSTORE PUSH1 0x5 DUP1 DUP3 ADD DUP1 SLOAD PUSH1 0xFF NOT AND SWAP1 SSTORE PUSH1 0x0 PUSH1 0x6 DUP4 ADD DUP2 SWAP1 SSTORE PUSH1 0x7 DUP4 ADD DUP2 SWAP1 SSTORE DUP2 SLOAD PUSH1 0x1 DUP2 ADD DUP4 SSTORE SWAP2 SWAP1 MSTORE PUSH32 0x36B6384B5ECA791C62761152D0C79BB0604C104A5FB6F4EB0703F3154BB3DB0 ADD DUP3 SWAP1 SSTORE PUSH1 0x40 MLOAD DUP3 SWAP1 PUSH32 0x96E8CE741395F1922F1F9CED91DE31BF6ED0EC9DDCB5251A4C2EF89D2EF622D7 SWAP1 PUSH2 0x65B SWAP1 DUP9 SWAP1 CALLER SWAP1 DUP10 SWAP1 DUP10 SWAP1 PUSH2 0x1C68 JUMP JUMPDEST PUSH1 0x40 MLOAD DUP1 SWAP2 SUB SWAP1 LOG2 POP POP POP POP POP JUMP JUMPDEST PUSH1 0x0 DUP2 DUP2 MSTORE PUSH1 0x4 PUSH1 0x20 DUP2 SWAP1 MSTORE PUSH1 0x40 DUP3 KECCAK256 DUP1 SLOAD PUSH1 0x1 DUP3 ADD SLOAD SWAP3 DUP3 ADD SLOAD PUSH1 0x5 DUP4 ADD SLOAD PUSH1 0x6 DUP5 ADD SLOAD PUSH1 0x7 DUP6 ADD SLOAD PUSH1 0x8 DUP7 ADD SLOAD PUSH1 0x2 DUP8 ADD DUP1 SLOAD DUP11 SWAP10 PUSH1 0x60 SWAP10 DUP12 SWAP10 DUP11 SWAP10 DUP11 SWAP10 DUP11 SWAP10 DUP11 SWAP10 SWAP5 SWAP9 PUSH1 0x1 PUSH1 0x1 PUSH1 0xA0 SHL SUB SWAP5 DUP6 AND SWAP9 SWAP7 SWAP1 SWAP5 AND SWAP7 SWAP3 SWAP5 PUSH1 0xFF SWAP1 SWAP3 AND SWAP4 SWAP1 SWAP3 DUP7 SWAP1 PUSH2 0x6D6 SWAP1 PUSH2 0x1B1F JUMP JUMPDEST DUP1 PUSH1 0x1F ADD PUSH1 0x20 DUP1 SWAP2 DIV MUL PUSH1 0x20 ADD PUSH1 0x40 MLOAD SWAP1 DUP2 ADD PUSH1 0x40 MSTORE DUP1 SWAP3 SWAP2 SWAP1 DUP2 DUP2 MSTORE PUSH1 0x20 ADD DUP3 DUP1 SLOAD PUSH2 0x702 SWAP1 PUSH2 0x1B1F JUMP JUMPDEST DUP1 ISZERO PUSH2 0x74F JUMPI DUP1 PUSH1 0x1F LT PUSH2 0x724 JUMPI PUSH2 0x100 DUP1 DUP4 SLOAD DIV MUL DUP4 MSTORE SWAP2 PUSH1 0x20 ADD SWAP2 PUSH2 0x74F JUMP JUMPDEST DUP3 ADD SWAP2 SWAP1 PUSH1 0x0 MSTORE PUSH1 0x20 PUSH1 0x0 KECCAK256 SWAP1 JUMPDEST DUP2 SLOAD DUP2 MSTORE SWAP1 PUSH1 0x1 ADD SWAP1 PUSH1 0x20 ADD DUP1 DUP4 GT PUSH2 0x732 JUMPI DUP3 SWAP1 SUB PUSH1 0x1F AND DUP3 ADD SWAP2 JUMPDEST POP POP POP POP POP SWAP6 POP SWAP9 POP SWAP9 POP SWAP9 POP SWAP9 POP SWAP9 POP SWAP9 POP SWAP9 POP SWAP9 POP POP SWAP2 SWAP4 SWAP6 SWAP8 POP SWAP2 SWAP4 SWAP6 SWAP8 JUMP JUMPDEST PUSH1 0x0 DUP5 DUP2 MSTORE PUSH1 0x4 PUSH1 0x20 DUP2 SWAP1 MSTORE PUSH1 0x40 SWAP1 SWAP2 KECCAK256 SWAP1 DUP2 ADD SLOAD PUSH2 0x7C5 JUMPI PUSH1 0x40 MLOAD PUSH3 0x461BCD PUSH1 0xE5 SHL DUP2 MSTORE PUSH1 0x20 PUSH1 0x4 DUP3 ADD MSTORE PUSH1 0xF PUSH1 0x24 DUP3 ADD MSTORE PUSH15 0x141C9BDBD9881B9BDD08199BDD5B99 PUSH1 0x8A SHL PUSH1 0x44 DUP3 ADD MSTORE PUSH1 0x64 ADD PUSH2 0x47B JUMP JUMPDEST PUSH1 0x5 DUP2 ADD SLOAD PUSH1 0xFF AND ISZERO PUSH2 0x80D JUMPI PUSH1 0x40 MLOAD PUSH3 0x461BCD PUSH1 0xE5 SHL DUP2 MSTORE PUSH1 0x20 PUSH1 0x4 DUP3 ADD MSTORE PUSH1 0x10 PUSH1 0x24 DUP3 ADD MSTORE PUSH16 0x105B1C9958591E48195E1958DD5D1959 PUSH1 0x82 SHL PUSH1 0x44 DUP3 ADD MSTORE PUSH1 0x64 ADD PUSH2 0x47B JUMP JUMPDEST CALLER PUSH1 0x0 SWAP1 DUP2 MSTORE PUSH1 0x9 DUP3 ADD PUSH1 0x20 MSTORE PUSH1 0x40 SWAP1 KECCAK256 SLOAD PUSH1 0xFF AND ISZERO PUSH2 0x85F JUMPI PUSH1 0x40 MLOAD PUSH3 0x461BCD PUSH1 0xE5 SHL DUP2 MSTORE PUSH1 0x20 PUSH1 0x4 DUP3 ADD MSTORE PUSH1 0xD PUSH1 0x24 DUP3 ADD MSTORE PUSH13 0x105B1C9958591E481D9BDD1959 PUSH1 0x9A SHL PUSH1 0x44 DUP3 ADD MSTORE PUSH1 0x64 ADD PUSH2 0x47B JUMP JUMPDEST CALLER PUSH1 0x0 SWAP1 DUP2 MSTORE PUSH1 0x3 PUSH1 0x20 MSTORE PUSH1 0x40 SWAP1 KECCAK256 SLOAD PUSH2 0x8B2 JUMPI PUSH1 0x40 MLOAD PUSH3 0x461BCD PUSH1 0xE5 SHL DUP2 MSTORE PUSH1 0x20 PUSH1 0x4 DUP3 ADD MSTORE PUSH1 0x14 PUSH1 0x24 DUP3 ADD MSTORE PUSH20 0x15985B1A59185D1BDC881B9BDD081CDD185AD959 PUSH1 0x62 SHL PUSH1 0x44 DUP3 ADD MSTORE PUSH1 0x64 ADD PUSH2 0x47B JUMP JUMPDEST CALLER PUSH1 0x0 SWAP1 DUP2 MSTORE PUSH1 0x9 DUP3 ADD PUSH1 0x20 SWAP1 DUP2 MSTORE PUSH1 0x40 DUP1 DUP4 KECCAK256 DUP1 SLOAD PUSH1 0xFF NOT SWAP1 DUP2 AND PUSH1 0x1 OR SWAP1 SWAP2 SSTORE PUSH1 0xA DUP6 ADD SWAP1 SWAP3 MSTORE SWAP1 SWAP2 KECCAK256 DUP1 SLOAD DUP7 ISZERO DUP1 ISZERO SWAP2 SWAP1 SWAP4 AND OR SWAP1 SSTORE PUSH1 0x8 DUP3 ADD DUP4 SWAP1 SSTORE PUSH2 0x912 JUMPI PUSH1 0x6 DUP2 ADD DUP1 SLOAD SWAP1 PUSH1 0x0 PUSH2 0x908 DUP4 PUSH2 0x1CCA JUMP JUMPDEST SWAP2 SWAP1 POP SSTORE POP PUSH2 0x92A JUMP JUMPDEST PUSH1 0x7 DUP2 ADD DUP1 SLOAD SWAP1 PUSH1 0x0 PUSH2 0x924 DUP4 PUSH2 0x1CCA JUMP JUMPDEST SWAP2 SWAP1 POP SSTORE POP JUMPDEST PUSH1 0x1 SLOAD PUSH1 0x40 MLOAD PUSH4 0x24B07FD1 PUSH1 0xE2 SHL DUP2 MSTORE CALLER PUSH1 0x4 DUP3 ADD MSTORE PUSH1 0x1 PUSH1 0x1 PUSH1 0xA0 SHL SUB SWAP1 SWAP2 AND SWAP1 PUSH4 0x92C1FF44 SWAP1 PUSH1 0x24 ADD PUSH1 0x0 PUSH1 0x40 MLOAD DUP1 DUP4 SUB DUP2 PUSH1 0x0 DUP8 DUP1 EXTCODESIZE ISZERO DUP1 ISZERO PUSH2 0x96F JUMPI PUSH1 0x0 DUP1 REVERT JUMPDEST POP GAS CALL ISZERO DUP1 ISZERO PUSH2 0x983 JUMPI RETURNDATASIZE PUSH1 0x0 DUP1 RETURNDATACOPY RETURNDATASIZE PUSH1 0x0 REVERT JUMPDEST POP POP PUSH1 0x40 DUP1 MLOAD CALLER DUP2 MSTORE DUP8 ISZERO ISZERO PUSH1 0x20 DUP3 ADD MSTORE DUP9 SWAP4 POP PUSH32 0x8B40665146691327EE30F5BF56E9B2D6F445D2830D3B09B56385CD30F630ECFB SWAP3 POP ADD PUSH1 0x40 MLOAD DUP1 SWAP2 SUB SWAP1 LOG2 PUSH2 0x9CE DUP6 DUP5 DUP5 PUSH2 0x10FF JUMP JUMPDEST POP POP POP POP POP JUMP JUMPDEST PUSH1 0x0 SLOAD PUSH1 0x1 PUSH1 0x1 PUSH1 0xA0 SHL SUB AND CALLER EQ PUSH2 0xA1B JUMPI PUSH1 0x40 MLOAD PUSH3 0x461BCD PUSH1 0xE5 SHL DUP2 MSTORE PUSH1 0x20 PUSH1 0x4 DUP3 ADD MSTORE PUSH1 0x9 PUSH1 0x24 DUP3 ADD MSTORE PUSH9 0x2737BA1037BBB732B9 PUSH1 0xB9 SHL PUSH1 0x44 DUP3 ADD MSTORE PUSH1 0x64 ADD PUSH2 0x47B JUMP JUMPDEST PUSH1 0x2 DUP1 SLOAD PUSH1 0x1 PUSH1 0x1 PUSH1 0xA0 SHL SUB NOT AND PUSH1 0x1 PUSH1 0x1 PUSH1 0xA0 SHL SUB SWAP3 SWAP1 SWAP3 AND SWAP2 SWAP1 SWAP2 OR SWAP1 SSTORE JUMP JUMPDEST CALLER PUSH1 0x0 SWAP1 DUP2 MSTORE PUSH1 0x3 PUSH1 0x20 MSTORE PUSH1 0x40 SWAP1 KECCAK256 SLOAD DUP1 PUSH2 0xA90 JUMPI PUSH1 0x40 MLOAD PUSH3 0x461BCD PUSH1 0xE5 SHL DUP2 MSTORE PUSH1 0x20 PUSH1 0x4 DUP3 ADD MSTORE PUSH1 0x13 PUSH1 0x24 DUP3 ADD MSTORE PUSH19 0x4E6F7468696E6720746F207769746864726177 PUSH1 0x68 SHL PUSH1 0x44 DUP3 ADD MSTORE PUSH1 0x64 ADD PUSH2 0x47B JUMP JUMPDEST PUSH1 0x1 SLOAD PUSH1 0x40 MLOAD PUSH4 0x97F735D5 PUSH1 0xE0 SHL DUP2 MSTORE CALLER PUSH1 0x4 DUP3 ADD MSTORE PUSH1 0x1 PUSH1 0x1 PUSH1 0xA0 SHL SUB SWAP1 SWAP2 AND SWAP1 PUSH4 0x97F735D5 SWAP1 PUSH1 0x24 ADD PUSH1 0x20 PUSH1 0x40 MLOAD DUP1 DUP4 SUB DUP2 DUP7 GAS STATICCALL ISZERO DUP1 ISZERO PUSH2 0xAD8 JUMPI RETURNDATASIZE PUSH1 0x0 DUP1 RETURNDATACOPY RETURNDATASIZE PUSH1 0x0 REVERT JUMPDEST POP POP POP POP PUSH1 0x40 MLOAD RETURNDATASIZE PUSH1 0x1F NOT PUSH1 0x1F DUP3 ADD AND DUP3 ADD DUP1 PUSH1 0x40 MSTORE POP DUP2 ADD SWAP1 PUSH2 0xAFC SWAP2 SWAP1 PUSH2 0x1CE3 JUMP JUMPDEST ISZERO PUSH2 0xB49 JUMPI PUSH1 0x40 MLOAD PUSH3 0x461BCD PUSH1 0xE5 SHL DUP2 MSTORE PUSH1 0x20 PUSH1 0x4 DUP3 ADD MSTORE PUSH1 0x1D PUSH1 0x24 DUP3 ADD MSTORE PUSH32 0x42616E6E6564206167656E74732063616E6E6F74207769746864726177000000 PUSH1 0x44 DUP3 ADD MSTORE PUSH1 0x64 ADD PUSH2 0x47B JUMP JUMPDEST CALLER PUSH1 0x0 DUP2 DUP2 MSTORE PUSH1 0x3 PUSH1 0x20 MSTORE PUSH1 0x40 DUP1 DUP3 KECCAK256 DUP3 SWAP1 SSTORE MLOAD SWAP1 SWAP2 SWAP1 DUP4 SWAP1 DUP4 DUP2 DUP2 DUP2 DUP6 DUP8 GAS CALL SWAP3 POP POP POP RETURNDATASIZE DUP1 PUSH1 0x0 DUP2 EQ PUSH2 0xB9A JUMPI PUSH1 0x40 MLOAD SWAP2 POP PUSH1 0x1F NOT PUSH1 0x3F RETURNDATASIZE ADD AND DUP3 ADD PUSH1 0x40 MSTORE RETURNDATASIZE DUP3 MSTORE RETURNDATASIZE PUSH1 0x0 PUSH1 0x20 DUP5 ADD RETURNDATACOPY PUSH2 0xB9F JUMP JUMPDEST PUSH1 0x60 SWAP2 POP JUMPDEST POP POP SWAP1 POP DUP1 PUSH2 0xBE2 JUMPI PUSH1 0x40 MLOAD PUSH3 0x461BCD PUSH1 0xE5 SHL DUP2 MSTORE PUSH1 0x20 PUSH1 0x4 DUP3 ADD MSTORE PUSH1 0xF PUSH1 0x24 DUP3 ADD MSTORE PUSH15 0x151C985B9CD9995C8819985A5B1959 PUSH1 0x8A SHL PUSH1 0x44 DUP3 ADD MSTORE PUSH1 0x64 ADD PUSH2 0x47B JUMP JUMPDEST PUSH1 0x40 MLOAD DUP3 DUP2 MSTORE CALLER SWAP1 PUSH32 0x8108595EB6BAD3ACEFA9DA467D90CC2217686D5C5AC85460F8B7849C840645FC SWAP1 PUSH1 0x20 ADD PUSH1 0x40 MLOAD DUP1 SWAP2 SUB SWAP1 LOG2 POP POP JUMP JUMPDEST PUSH1 0x4 PUSH1 0x20 MSTORE PUSH1 0x0 SWAP1 DUP2 MSTORE PUSH1 0x40 SWAP1 KECCAK256 DUP1 SLOAD PUSH1 0x1 DUP3 ADD SLOAD PUSH1 0x2 DUP4 ADD DUP1 SLOAD PUSH1 0x1 PUSH1 0x1 PUSH1 0xA0 SHL SUB SWAP4 DUP5 AND SWAP5 SWAP3 SWAP1 SWAP4 AND SWAP3 PUSH2 0xC50 SWAP1 PUSH2 0x1B1F JUMP JUMPDEST DUP1 PUSH1 0x1F ADD PUSH1 0x20 DUP1 SWAP2 DIV MUL PUSH1 0x20 ADD PUSH1 0x40 MLOAD SWAP1 DUP2 ADD PUSH1 0x40 MSTORE DUP1 SWAP3 SWAP2 SWAP1 DUP2 DUP2 MSTORE PUSH1 0x20 ADD DUP3 DUP1 SLOAD PUSH2 0xC7C SWAP1 PUSH2 0x1B1F JUMP JUMPDEST DUP1 ISZERO PUSH2 0xCC9 JUMPI DUP1 PUSH1 0x1F LT PUSH2 0xC9E JUMPI PUSH2 0x100 DUP1 DUP4 SLOAD DIV MUL DUP4 MSTORE SWAP2 PUSH1 0x20 ADD SWAP2 PUSH2 0xCC9 JUMP JUMPDEST DUP3 ADD SWAP2 SWAP1 PUSH1 0x0 MSTORE PUSH1 0x20 PUSH1 0x0 KECCAK256 SWAP1 JUMPDEST DUP2 SLOAD DUP2 MSTORE SWAP1 PUSH1 0x1 ADD SWAP1 PUSH1 0x20 ADD DUP1 DUP4 GT PUSH2 0xCAC JUMPI DUP3 SWAP1 SUB PUSH1 0x1F AND DUP3 ADD SWAP2 JUMPDEST POP POP POP PUSH1 0x3 DUP5 ADD SLOAD PUSH1 0x4 DUP6 ADD SLOAD PUSH1 0x5 DUP7 ADD SLOAD PUSH1 0x6 DUP8 ADD SLOAD PUSH1 0x7 DUP9 ADD SLOAD PUSH1 0x8 SWAP1 SWAP9 ADD SLOAD SWAP7 SWAP8 SWAP4 SWAP7 SWAP3 SWAP6 POP PUSH1 0xFF SWAP1 SWAP2 AND SWAP4 POP SWAP2 SWAP1 DUP10 JUMP JUMPDEST PUSH1 0x5 DUP2 DUP2 SLOAD DUP2 LT PUSH2 0xD0E JUMPI PUSH1 0x0 DUP1 REVERT JUMPDEST PUSH1 0x0 SWAP2 DUP3 MSTORE PUSH1 0x20 SWAP1 SWAP2 KECCAK256 ADD SLOAD SWAP1 POP DUP2 JUMP JUMPDEST PUSH1 0x0 SLOAD PUSH1 0x1 PUSH1 0x1 PUSH1 0xA0 SHL SUB AND CALLER EQ PUSH2 0xD65 JUMPI PUSH1 0x40 MLOAD PUSH3 0x461BCD PUSH1 0xE5 SHL DUP2 MSTORE PUSH1 0x20 PUSH1 0x4 DUP3 ADD MSTORE PUSH1 0x9 PUSH1 0x24 DUP3 ADD MSTORE PUSH9 0x2737BA1037BBB732B9 PUSH1 0xB9 SHL PUSH1 0x44 DUP3 ADD MSTORE PUSH1 0x64 ADD PUSH2 0x47B JUMP JUMPDEST PUSH1 0x1 PUSH1 0x1 PUSH1 0xA0 SHL SUB DUP6 AND PUSH1 0x0 SWAP1 DUP2 MSTORE PUSH1 0x3 PUSH1 0x20 MSTORE PUSH1 0x40 SWAP1 KECCAK256 SLOAD DUP2 GT ISZERO PUSH2 0xDC2 JUMPI PUSH1 0x40 MLOAD PUSH3 0x461BCD PUSH1 0xE5 SHL DUP2 MSTORE PUSH1 0x20 PUSH1 0x4 DUP3 ADD MSTORE PUSH1 0x12 PUSH1 0x24 DUP3 ADD MSTORE PUSH18 0x496E73756666696369656E74207374616B65 PUSH1 0x70 SHL PUSH1 0x44 DUP3 ADD MSTORE PUSH1 0x64 ADD PUSH2 0x47B JUMP JUMPDEST PUSH1 0x1 PUSH1 0x1 PUSH1 0xA0 SHL SUB DUP6 AND PUSH1 0x0 SWAP1 DUP2 MSTORE PUSH1 0x3 PUSH1 0x20 MSTORE PUSH1 0x40 DUP2 KECCAK256 DUP1 SLOAD DUP4 SWAP3 SWAP1 PUSH2 0xDEA SWAP1 DUP5 SWAP1 PUSH2 0x1D00 JUMP JUMPDEST SWAP3 POP POP DUP2 SWAP1 SSTORE POP DUP1 PUSH1 0x6 PUSH1 0x0 DUP3 DUP3 SLOAD PUSH2 0xE03 SWAP2 SWAP1 PUSH2 0x1D19 JUMP JUMPDEST SWAP1 SWAP2 SSTORE POP PUSH1 0x0 SWAP1 POP PUSH1 0x64 PUSH2 0xE18 DUP4 PUSH1 0x1E PUSH2 0x1D2C JUMP JUMPDEST PUSH2 0xE22 SWAP2 SWAP1 PUSH2 0x1D43 JUMP JUMPDEST SWAP1 POP PUSH1 0x0 DUP4 PUSH2 0xE32 JUMPI PUSH1 0x0 PUSH2 0xE3C JUMP JUMPDEST PUSH2 0xE3C DUP5 DUP4 PUSH2 0x1D43 JUMP JUMPDEST SWAP1 POP PUSH1 0x0 JUMPDEST DUP5 DUP2 LT ISZERO PUSH2 0xF45 JUMPI DUP2 ISZERO PUSH2 0xF33 JUMPI DUP2 PUSH1 0x3 PUSH1 0x0 DUP9 DUP9 DUP6 DUP2 DUP2 LT PUSH2 0xE66 JUMPI PUSH2 0xE66 PUSH2 0x1D65 JUMP JUMPDEST SWAP1 POP PUSH1 0x20 MUL ADD PUSH1 0x20 DUP2 ADD SWAP1 PUSH2 0xE7B SWAP2 SWAP1 PUSH2 0x1822 JUMP JUMPDEST PUSH1 0x1 PUSH1 0x1 PUSH1 0xA0 SHL SUB AND PUSH1 0x1 PUSH1 0x1 PUSH1 0xA0 SHL SUB AND DUP2 MSTORE PUSH1 0x20 ADD SWAP1 DUP2 MSTORE PUSH1 0x20 ADD PUSH1 0x0 KECCAK256 PUSH1 0x0 DUP3 DUP3 SLOAD PUSH2 0xEAA SWAP2 SWAP1 PUSH2 0x1D19 JUMP JUMPDEST SWAP3 POP POP DUP2 SWAP1 SSTORE POP DUP2 PUSH1 0x7 PUSH1 0x0 DUP3 DUP3 SLOAD PUSH2 0xEC3 SWAP2 SWAP1 PUSH2 0x1D19 JUMP JUMPDEST SWAP1 SWAP2 SSTORE POP DUP7 SWAP1 POP DUP6 DUP3 DUP2 DUP2 LT PUSH2 0xEDB JUMPI PUSH2 0xEDB PUSH2 0x1D65 JUMP JUMPDEST SWAP1 POP PUSH1 0x20 MUL ADD PUSH1 0x20 DUP2 ADD SWAP1 PUSH2 0xEF0 SWAP2 SWAP1 PUSH2 0x1822 JUMP JUMPDEST PUSH1 0x1 PUSH1 0x1 PUSH1 0xA0 SHL SUB AND PUSH32 0x38CBDC591B5CF62CC9A88B92DCEE4809F0D0CA6CD9BDAD9F818D74C38E78BF29 DUP4 PUSH1 0x40 MLOAD PUSH2 0xF2A SWAP2 DUP2 MSTORE PUSH1 0x20 ADD SWAP1 JUMP JUMPDEST PUSH1 0x40 MLOAD DUP1 SWAP2 SUB SWAP1 LOG2 JUMPDEST DUP1 PUSH2 0xF3D DUP2 PUSH2 0x1CCA JUMP JUMPDEST SWAP2 POP POP PUSH2 0xE41 JUMP JUMPDEST POP PUSH1 0x1 SLOAD PUSH1 0x40 MLOAD PUSH4 0x14C25593 PUSH1 0xE2 SHL DUP2 MSTORE PUSH1 0x1 PUSH1 0x1 PUSH1 0xA0 SHL SUB DUP10 DUP2 AND PUSH1 0x4 DUP4 ADD MSTORE SWAP1 SWAP2 AND SWAP1 PUSH4 0x5309564C SWAP1 PUSH1 0x24 ADD PUSH1 0x0 PUSH1 0x40 MLOAD DUP1 DUP4 SUB DUP2 PUSH1 0x0 DUP8 DUP1 EXTCODESIZE ISZERO DUP1 ISZERO PUSH2 0xF8D JUMPI PUSH1 0x0 DUP1 REVERT JUMPDEST POP GAS CALL ISZERO DUP1 ISZERO PUSH2 0xFA1 JUMPI RETURNDATASIZE PUSH1 0x0 DUP1 RETURNDATACOPY RETURNDATASIZE PUSH1 0x0 REVERT JUMPDEST POP POP PUSH1 0x1 SLOAD PUSH1 0x40 MLOAD PUSH4 0x25DA1C41 PUSH1 0xE1 SHL DUP2 MSTORE PUSH1 0x1 PUSH1 0x1 PUSH1 0xA0 SHL SUB DUP11 DUP2 AND PUSH1 0x4 DUP4 ADD MSTORE SWAP1 SWAP2 AND SWAP3 POP PUSH4 0x4BB43882 SWAP2 POP PUSH1 0x24 ADD PUSH1 0x0 PUSH1 0x40 MLOAD DUP1 DUP4 SUB DUP2 PUSH1 0x0 DUP8 DUP1 EXTCODESIZE ISZERO DUP1 ISZERO PUSH2 0xFEC JUMPI PUSH1 0x0 DUP1 REVERT JUMPDEST POP GAS CALL ISZERO DUP1 ISZERO PUSH2 0x1000 JUMPI RETURNDATASIZE PUSH1 0x0 DUP1 RETURNDATACOPY RETURNDATASIZE PUSH1 0x0 REVERT JUMPDEST POP POP POP POP DUP7 PUSH1 0x1 PUSH1 0x1 PUSH1 0xA0 SHL SUB AND PUSH32 0xFB1D27616D96FA475502DDF9CCD3C937EDA660265901A85183C7286EDC26E36 DUP5 DUP8 DUP8 PUSH1 0x40 MLOAD PUSH2 0x1041 SWAP4 SWAP3 SWAP2 SWAP1 PUSH2 0x1D7B JUMP JUMPDEST PUSH1 0x40 MLOAD DUP1 SWAP2 SUB SWAP1 LOG2 POP POP POP POP POP POP POP JUMP JUMPDEST PUSH1 0x0 CALLVALUE GT PUSH2 0x1091 JUMPI PUSH1 0x40 MLOAD PUSH3 0x461BCD PUSH1 0xE5 SHL DUP2 MSTORE PUSH1 0x20 PUSH1 0x4 DUP3 ADD MSTORE PUSH1 0xC PUSH1 0x24 DUP3 ADD MSTORE PUSH12 0x16995C9BC819195C1BDCDA5D PUSH1 0xA2 SHL PUSH1 0x44 DUP3 ADD MSTORE PUSH1 0x64 ADD PUSH2 0x47B JUMP JUMPDEST PUSH1 0x1 PUSH1 0x1 PUSH1 0xA0 SHL SUB DUP2 AND PUSH1 0x0 SWAP1 DUP2 MSTORE PUSH1 0x3 PUSH1 0x20 MSTORE PUSH1 0x40 DUP2 KECCAK256 DUP1 SLOAD CALLVALUE SWAP3 SWAP1 PUSH2 0x10B9 SWAP1 DUP5 SWAP1 PUSH2 0x1D19 JUMP JUMPDEST SWAP1 SWAP2 SSTORE POP POP PUSH1 0x40 MLOAD CALLVALUE DUP2 MSTORE PUSH1 0x1 PUSH1 0x1 PUSH1 0xA0 SHL SUB DUP3 AND SWAP1 PUSH32 0x2DA466A7B24304F47E87FA2E1E5A81B9831CE54FEC19055CE277CA2F39BA42C4 SWAP1 PUSH1 0x20 ADD PUSH1 0x40 MLOAD DUP1 SWAP2 SUB SWAP1 LOG2 POP JUMP JUMPDEST PUSH1 0x0 DUP4 DUP2 MSTORE PUSH1 0x4 PUSH1 0x20 MSTORE PUSH1 0x40 SWAP1 KECCAK256 PUSH1 0x5 DUP2 ADD SLOAD PUSH1 0xFF AND ISZERO PUSH2 0x1120 JUMPI POP POP POP POP JUMP JUMPDEST DUP2 PUSH1 0x0 DUP2 SWAP1 SUB PUSH2 0x1131 JUMPI POP POP POP POP POP JUMP JUMPDEST PUSH1 0x0 PUSH2 0x113E PUSH1 0x3 DUP4 PUSH2 0x1D2C JUMP JUMPDEST PUSH1 0x5 DUP5 PUSH1 0x6 ADD SLOAD PUSH2 0x114F SWAP2 SWAP1 PUSH2 0x1D2C JUMP JUMPDEST LT ISZERO SWAP1 POP PUSH1 0x0 PUSH2 0x1160 PUSH1 0x3 DUP5 PUSH2 0x1D2C JUMP JUMPDEST PUSH1 0x5 DUP6 PUSH1 0x7 ADD SLOAD PUSH2 0x1171 SWAP2 SWAP1 PUSH2 0x1D2C JUMP JUMPDEST LT ISZERO SWAP1 POP DUP2 ISZERO PUSH2 0x11E5 JUMPI PUSH1 0x5 DUP5 ADD DUP1 SLOAD PUSH1 0xFF NOT AND PUSH1 0x1 SWAP1 DUP2 OR SWAP1 SWAP2 SSTORE PUSH1 0x6 DUP6 ADD SLOAD PUSH1 0x40 DUP1 MLOAD SWAP3 DUP4 MSTORE PUSH1 0x20 DUP4 ADD SWAP2 SWAP1 SWAP2 MSTORE DUP2 ADD DUP5 SWAP1 MSTORE DUP8 SWAP1 PUSH32 0x43828844832E7E9C83A282C1F717245B989A7F7D3DCD1D31CEB33100BE85596 SWAP1 PUSH1 0x60 ADD PUSH1 0x40 MLOAD DUP1 SWAP2 SUB SWAP1 LOG2 PUSH2 0x11E0 DUP8 DUP8 DUP8 PUSH2 0x1249 JUMP JUMPDEST PUSH2 0x1240 JUMP JUMPDEST DUP1 ISZERO PUSH2 0x1240 JUMPI PUSH1 0x5 DUP5 ADD DUP1 SLOAD PUSH1 0xFF NOT AND PUSH1 0x1 OR SWAP1 SSTORE PUSH1 0x6 DUP5 ADD SLOAD PUSH1 0x40 DUP1 MLOAD PUSH1 0x0 DUP2 MSTORE PUSH1 0x20 DUP2 ADD SWAP3 SWAP1 SWAP3 MSTORE DUP2 ADD DUP5 SWAP1 MSTORE DUP8 SWAP1 PUSH32 0x43828844832E7E9C83A282C1F717245B989A7F7D3DCD1D31CEB33100BE85596 SWAP1 PUSH1 0x60 ADD PUSH2 0x1041 JUMP JUMPDEST POP POP POP POP POP POP POP JUMP JUMPDEST PUSH1 0x0 DUP4 DUP2 MSTORE PUSH1 0x4 PUSH1 0x20 SWAP1 DUP2 MSTORE PUSH1 0x40 DUP1 DUP4 KECCAK256 DUP1 SLOAD PUSH1 0x1 PUSH1 0x1 PUSH1 0xA0 SHL SUB AND DUP5 MSTORE PUSH1 0x3 SWAP1 SWAP3 MSTORE SWAP1 SWAP2 KECCAK256 SLOAD PUSH7 0x11C37937E08000 SWAP1 DUP2 GT ISZERO PUSH2 0x129C JUMPI POP DUP1 SLOAD PUSH1 0x1 PUSH1 0x1 PUSH1 0xA0 SHL SUB AND PUSH1 0x0 SWAP1 DUP2 MSTORE PUSH1 0x3 PUSH1 0x20 MSTORE PUSH1 0x40 SWAP1 KECCAK256 SLOAD JUMPDEST DUP2 SLOAD PUSH1 0x1 PUSH1 0x1 PUSH1 0xA0 SHL SUB AND PUSH1 0x0 SWAP1 DUP2 MSTORE PUSH1 0x3 PUSH1 0x20 MSTORE PUSH1 0x40 DUP2 KECCAK256 DUP1 SLOAD DUP4 SWAP3 SWAP1 PUSH2 0x12C5 SWAP1 DUP5 SWAP1 PUSH2 0x1D00 JUMP JUMPDEST SWAP3 POP POP DUP2 SWAP1 SSTORE POP DUP1 PUSH1 0x6 PUSH1 0x0 DUP3 DUP3 SLOAD PUSH2 0x12DE SWAP2 SWAP1 PUSH2 0x1D19 JUMP JUMPDEST SWAP1 SWAP2 SSTORE POP PUSH1 0x0 SWAP1 POP DUP4 PUSH8 0xFFFFFFFFFFFFFFFF DUP2 GT ISZERO PUSH2 0x12FF JUMPI PUSH2 0x12FF PUSH2 0x1B09 JUMP JUMPDEST PUSH1 0x40 MLOAD SWAP1 DUP1 DUP3 MSTORE DUP1 PUSH1 0x20 MUL PUSH1 0x20 ADD DUP3 ADD PUSH1 0x40 MSTORE DUP1 ISZERO PUSH2 0x1328 JUMPI DUP2 PUSH1 0x20 ADD PUSH1 0x20 DUP3 MUL DUP1 CALLDATASIZE DUP4 CALLDATACOPY ADD SWAP1 POP JUMPDEST POP SWAP1 POP PUSH1 0x0 DUP1 JUMPDEST DUP6 DUP2 LT ISZERO PUSH2 0x144F JUMPI DUP5 PUSH1 0x9 ADD PUSH1 0x0 DUP9 DUP9 DUP5 DUP2 DUP2 LT PUSH2 0x134F JUMPI PUSH2 0x134F PUSH2 0x1D65 JUMP JUMPDEST SWAP1 POP PUSH1 0x20 MUL ADD PUSH1 0x20 DUP2 ADD SWAP1 PUSH2 0x1364 SWAP2 SWAP1 PUSH2 0x1822 JUMP JUMPDEST PUSH1 0x1 PUSH1 0x1 PUSH1 0xA0 SHL SUB AND DUP2 MSTORE PUSH1 0x20 DUP2 ADD SWAP2 SWAP1 SWAP2 MSTORE PUSH1 0x40 ADD PUSH1 0x0 KECCAK256 SLOAD PUSH1 0xFF AND DUP1 ISZERO PUSH2 0x13D3 JUMPI POP DUP5 PUSH1 0xA ADD PUSH1 0x0 DUP9 DUP9 DUP5 DUP2 DUP2 LT PUSH2 0x13A0 JUMPI PUSH2 0x13A0 PUSH2 0x1D65 JUMP JUMPDEST SWAP1 POP PUSH1 0x20 MUL ADD PUSH1 0x20 DUP2 ADD SWAP1 PUSH2 0x13B5 SWAP2 SWAP1 PUSH2 0x1822 JUMP JUMPDEST PUSH1 0x1 PUSH1 0x1 PUSH1 0xA0 SHL SUB AND DUP2 MSTORE PUSH1 0x20 DUP2 ADD SWAP2 SWAP1 SWAP2 MSTORE PUSH1 0x40 ADD PUSH1 0x0 KECCAK256 SLOAD PUSH1 0xFF AND JUMPDEST ISZERO PUSH2 0x143D JUMPI DUP7 DUP7 DUP3 DUP2 DUP2 LT PUSH2 0x13EA JUMPI PUSH2 0x13EA PUSH2 0x1D65 JUMP JUMPDEST SWAP1 POP PUSH1 0x20 MUL ADD PUSH1 0x20 DUP2 ADD SWAP1 PUSH2 0x13FF SWAP2 SWAP1 PUSH2 0x1822 JUMP JUMPDEST DUP4 DUP4 PUSH2 0x140A DUP2 PUSH2 0x1CCA JUMP JUMPDEST SWAP5 POP DUP2 MLOAD DUP2 LT PUSH2 0x141C JUMPI PUSH2 0x141C PUSH2 0x1D65 JUMP JUMPDEST PUSH1 0x20 MUL PUSH1 0x20 ADD ADD SWAP1 PUSH1 0x1 PUSH1 0x1 PUSH1 0xA0 SHL SUB AND SWAP1 DUP2 PUSH1 0x1 PUSH1 0x1 PUSH1 0xA0 SHL SUB AND DUP2 MSTORE POP POP JUMPDEST DUP1 PUSH2 0x1447 DUP2 PUSH2 0x1CCA JUMP JUMPDEST SWAP2 POP POP PUSH2 0x132F JUMP JUMPDEST POP PUSH1 0x0 PUSH1 0x64 PUSH2 0x145F DUP6 PUSH1 0x1E PUSH2 0x1D2C JUMP JUMPDEST PUSH2 0x1469 SWAP2 SWAP1 PUSH2 0x1D43 JUMP JUMPDEST SWAP1 POP PUSH1 0x0 PUSH2 0x1477 DUP3 DUP7 PUSH2 0x1D00 JUMP JUMPDEST SWAP1 POP PUSH1 0x0 DUP1 DUP5 GT PUSH2 0x1489 JUMPI PUSH1 0x0 PUSH2 0x1493 JUMP JUMPDEST PUSH2 0x1493 DUP5 DUP5 PUSH2 0x1D43 JUMP JUMPDEST SWAP1 POP PUSH1 0x0 DUP1 JUMPDEST DUP6 DUP2 LT ISZERO PUSH2 0x161E JUMPI DUP3 ISZERO PUSH2 0x157D JUMPI DUP3 PUSH1 0x3 PUSH1 0x0 DUP10 DUP5 DUP2 MLOAD DUP2 LT PUSH2 0x14BE JUMPI PUSH2 0x14BE PUSH2 0x1D65 JUMP JUMPDEST PUSH1 0x20 MUL PUSH1 0x20 ADD ADD MLOAD PUSH1 0x1 PUSH1 0x1 PUSH1 0xA0 SHL SUB AND PUSH1 0x1 PUSH1 0x1 PUSH1 0xA0 SHL SUB AND DUP2 MSTORE PUSH1 0x20 ADD SWAP1 DUP2 MSTORE PUSH1 0x20 ADD PUSH1 0x0 KECCAK256 PUSH1 0x0 DUP3 DUP3 SLOAD PUSH2 0x14F5 SWAP2 SWAP1 PUSH2 0x1D19 JUMP JUMPDEST SWAP3 POP POP DUP2 SWAP1 SSTORE POP DUP3 PUSH1 0x7 PUSH1 0x0 DUP3 DUP3 SLOAD PUSH2 0x150E SWAP2 SWAP1 PUSH2 0x1D19 JUMP JUMPDEST SWAP1 SWAP2 SSTORE POP PUSH2 0x151E SWAP1 POP DUP4 DUP4 PUSH2 0x1D19 JUMP JUMPDEST SWAP2 POP DUP7 DUP2 DUP2 MLOAD DUP2 LT PUSH2 0x1532 JUMPI PUSH2 0x1532 PUSH2 0x1D65 JUMP JUMPDEST PUSH1 0x20 MUL PUSH1 0x20 ADD ADD MLOAD PUSH1 0x1 PUSH1 0x1 PUSH1 0xA0 SHL SUB AND PUSH32 0x38CBDC591B5CF62CC9A88B92DCEE4809F0D0CA6CD9BDAD9F818D74C38E78BF29 DUP5 PUSH1 0x40 MLOAD PUSH2 0x1574 SWAP2 DUP2 MSTORE PUSH1 0x20 ADD SWAP1 JUMP JUMPDEST PUSH1 0x40 MLOAD DUP1 SWAP2 SUB SWAP1 LOG2 JUMPDEST PUSH1 0x1 SLOAD DUP8 MLOAD PUSH1 0x1 PUSH1 0x1 PUSH1 0xA0 SHL SUB SWAP1 SWAP2 AND SWAP1 PUSH4 0x92C1FF44 SWAP1 DUP10 SWAP1 DUP5 SWAP1 DUP2 LT PUSH2 0x15A6 JUMPI PUSH2 0x15A6 PUSH2 0x1D65 JUMP JUMPDEST PUSH1 0x20 MUL PUSH1 0x20 ADD ADD MLOAD PUSH1 0x40 MLOAD DUP3 PUSH4 0xFFFFFFFF AND PUSH1 0xE0 SHL DUP2 MSTORE PUSH1 0x4 ADD PUSH2 0x15D9 SWAP2 SWAP1 PUSH1 0x1 PUSH1 0x1 PUSH1 0xA0 SHL SUB SWAP2 SWAP1 SWAP2 AND DUP2 MSTORE PUSH1 0x20 ADD SWAP1 JUMP JUMPDEST PUSH1 0x0 PUSH1 0x40 MLOAD DUP1 DUP4 SUB DUP2 PUSH1 0x0 DUP8 DUP1 EXTCODESIZE ISZERO DUP1 ISZERO PUSH2 0x15F3 JUMPI PUSH1 0x0 DUP1 REVERT JUMPDEST POP GAS CALL ISZERO DUP1 ISZERO PUSH2 0x1607 JUMPI RETURNDATASIZE PUSH1 0x0 DUP1 RETURNDATACOPY RETURNDATASIZE PUSH1 0x0 REVERT JUMPDEST POP POP POP POP DUP1 DUP1 PUSH2 0x1616 SWAP1 PUSH2 0x1CCA JUMP JUMPDEST SWAP2 POP POP PUSH2 0x1499 JUMP JUMPDEST POP PUSH1 0x1 SLOAD DUP9 SLOAD PUSH1 0x40 MLOAD PUSH4 0x14C25593 PUSH1 0xE2 SHL DUP2 MSTORE PUSH1 0x1 PUSH1 0x1 PUSH1 0xA0 SHL SUB SWAP2 DUP3 AND PUSH1 0x4 DUP3 ADD MSTORE SWAP2 AND SWAP1 PUSH4 0x5309564C SWAP1 PUSH1 0x24 ADD PUSH1 0x0 PUSH1 0x40 MLOAD DUP1 DUP4 SUB DUP2 PUSH1 0x0 DUP8 DUP1 EXTCODESIZE ISZERO DUP1 ISZERO PUSH2 0x1667 JUMPI PUSH1 0x0 DUP1 REVERT JUMPDEST POP GAS CALL ISZERO DUP1 ISZERO PUSH2 0x167B JUMPI RETURNDATASIZE PUSH1 0x0 DUP1 RETURNDATACOPY RETURNDATASIZE PUSH1 0x0 REVERT JUMPDEST POP POP PUSH1 0x1 DUP1 SLOAD SWAP1 DUP12 ADD SLOAD PUSH1 0x40 MLOAD PUSH4 0x25DA1C41 PUSH1 0xE1 SHL DUP2 MSTORE PUSH1 0x1 PUSH1 0x1 PUSH1 0xA0 SHL SUB SWAP2 DUP3 AND PUSH1 0x4 DUP3 ADD MSTORE SWAP2 AND SWAP3 POP PUSH4 0x4BB43882 SWAP2 POP PUSH1 0x24 ADD PUSH1 0x0 PUSH1 0x40 MLOAD DUP1 DUP4 SUB DUP2 PUSH1 0x0 DUP8 DUP1 EXTCODESIZE ISZERO DUP1 ISZERO PUSH2 0x16CA JUMPI PUSH1 0x0 DUP1 REVERT JUMPDEST POP GAS CALL ISZERO DUP1 ISZERO PUSH2 0x16DE JUMPI RETURNDATASIZE PUSH1 0x0 DUP1 RETURNDATACOPY RETURNDATASIZE PUSH1 0x0 REVERT JUMPDEST POP POP PUSH1 0x2 SLOAD PUSH1 0x1 PUSH1 0x1 PUSH1 0xA0 SHL SUB AND ISZERO SWAP2 POP PUSH2 0x17B1 SWAP1 POP JUMPI PUSH1 0x2 PUSH1 0x0 SWAP1 SLOAD SWAP1 PUSH2 0x100 EXP SWAP1 DIV PUSH1 0x1 PUSH1 0x1 PUSH1 0xA0 SHL SUB AND PUSH1 0x1 PUSH1 0x1 PUSH1 0xA0 SHL SUB AND PUSH4 0x9A64D107 DUP10 PUSH1 0x0 ADD PUSH1 0x0 SWAP1 SLOAD SWAP1 PUSH2 0x100 EXP SWAP1 DIV PUSH1 0x1 PUSH1 0x1 PUSH1 0xA0 SHL SUB AND DUP11 PUSH1 0x1 ADD PUSH1 0x0 SWAP1 SLOAD SWAP1 PUSH2 0x100 EXP SWAP1 DIV PUSH1 0x1 PUSH1 0x1 PUSH1 0xA0 SHL SUB AND DUP12 PUSH1 0x2 ADD DUP16 DUP14 PUSH1 0x6 ADD SLOAD DUP15 PUSH1 0x8 ADD SLOAD PUSH1 0x1 DUP16 PUSH1 0x40 MLOAD DUP10 PUSH4 0xFFFFFFFF AND PUSH1 0xE0 SHL DUP2 MSTORE PUSH1 0x4 ADD PUSH2 0x177E SWAP9 SWAP8 SWAP7 SWAP6 SWAP5 SWAP4 SWAP3 SWAP2 SWAP1 PUSH2 0x1DD1 JUMP JUMPDEST PUSH1 0x0 PUSH1 0x40 MLOAD DUP1 DUP4 SUB DUP2 PUSH1 0x0 DUP8 DUP1 EXTCODESIZE ISZERO DUP1 ISZERO PUSH2 0x1798 JUMPI PUSH1 0x0 DUP1 REVERT JUMPDEST POP GAS CALL ISZERO DUP1 ISZERO PUSH2 0x17AC JUMPI RETURNDATASIZE PUSH1 0x0 DUP1 RETURNDATACOPY RETURNDATASIZE PUSH1 0x0 REVERT JUMPDEST POP POP POP POP JUMPDEST DUP8 SLOAD PUSH1 0x40 MLOAD PUSH1 0x1 PUSH1 0x1 PUSH1 0xA0 SHL SUB SWAP1 SWAP2 AND SWAP1 PUSH32 0xFB1D27616D96FA475502DDF9CCD3C937EDA660265901A85183C7286EDC26E36 SWAP1 PUSH2 0x17F1 SWAP1 DUP11 SWAP1 DUP11 SWAP1 PUSH2 0x1EAA JUMP JUMPDEST PUSH1 0x40 MLOAD DUP1 SWAP2 SUB SWAP1 LOG2 POP POP POP POP POP POP POP POP POP POP POP JUMP JUMPDEST DUP1 CALLDATALOAD PUSH1 0x1 PUSH1 0x1 PUSH1 0xA0 SHL SUB DUP2 AND DUP2 EQ PUSH2 0x181D JUMPI PUSH1 0x0 DUP1 REVERT JUMPDEST SWAP2 SWAP1 POP JUMP JUMPDEST PUSH1 0x0 PUSH1 0x20 DUP3 DUP5 SUB SLT ISZERO PUSH2 0x1834 JUMPI PUSH1 0x0 DUP1 REVERT JUMPDEST PUSH2 0x183D DUP3 PUSH2 0x1806 JUMP JUMPDEST SWAP4 SWAP3 POP POP POP JUMP JUMPDEST PUSH1 0x0 DUP1 PUSH1 0x0 DUP1 PUSH1 0x60 DUP6 DUP8 SUB SLT ISZERO PUSH2 0x185A JUMPI PUSH1 0x0 DUP1 REVERT JUMPDEST PUSH2 0x1863 DUP6 PUSH2 0x1806 JUMP JUMPDEST SWAP4 POP PUSH1 0x20 DUP6 ADD CALLDATALOAD PUSH8 0xFFFFFFFFFFFFFFFF DUP1 DUP3 GT ISZERO PUSH2 0x1880 JUMPI PUSH1 0x0 DUP1 REVERT JUMPDEST DUP2 DUP8 ADD SWAP2 POP DUP8 PUSH1 0x1F DUP4 ADD SLT PUSH2 0x1894 JUMPI PUSH1 0x0 DUP1 REVERT JUMPDEST DUP2 CALLDATALOAD DUP2 DUP2 GT ISZERO PUSH2 0x18A3 JUMPI PUSH1 0x0 DUP1 REVERT JUMPDEST DUP9 PUSH1 0x20 DUP3 DUP6 ADD ADD GT ISZERO PUSH2 0x18B5 JUMPI PUSH1 0x0 DUP1 REVERT JUMPDEST SWAP6 SWAP9 PUSH1 0x20 SWAP3 SWAP1 SWAP3 ADD SWAP8 POP SWAP5 SWAP6 PUSH1 0x40 ADD CALLDATALOAD SWAP5 POP SWAP3 POP POP POP JUMP JUMPDEST PUSH1 0x0 PUSH1 0x20 DUP3 DUP5 SUB SLT ISZERO PUSH2 0x18DF JUMPI PUSH1 0x0 DUP1 REVERT JUMPDEST POP CALLDATALOAD SWAP2 SWAP1 POP JUMP JUMPDEST PUSH1 0x0 DUP2 MLOAD DUP1 DUP5 MSTORE PUSH1 0x0 JUMPDEST DUP2 DUP2 LT ISZERO PUSH2 0x190C JUMPI PUSH1 0x20 DUP2 DUP6 ADD DUP2 ADD MLOAD DUP7 DUP4 ADD DUP3 ADD MSTORE ADD PUSH2 0x18F0 JUMP JUMPDEST POP PUSH1 0x0 PUSH1 0x20 DUP3 DUP7 ADD ADD MSTORE PUSH1 0x20 PUSH1 0x1F NOT PUSH1 0x1F DUP4 ADD AND DUP6 ADD ADD SWAP2 POP POP SWAP3 SWAP2 POP POP JUMP JUMPDEST PUSH1 0x1 PUSH1 0x1 PUSH1 0xA0 SHL SUB DUP10 DUP2 AND DUP3 MSTORE DUP9 AND PUSH1 0x20 DUP3 ADD MSTORE PUSH2 0x100 PUSH1 0x40 DUP3 ADD DUP2 SWAP1 MSTORE PUSH1 0x0 SWAP1 PUSH2 0x1959 DUP4 DUP3 ADD DUP11 PUSH2 0x18E6 JUMP JUMPDEST PUSH1 0x60 DUP5 ADD SWAP9 SWAP1 SWAP9 MSTORE POP POP SWAP4 ISZERO ISZERO PUSH1 0x80 DUP6 ADD MSTORE PUSH1 0xA0 DUP5 ADD SWAP3 SWAP1 SWAP3 MSTORE PUSH1 0xC0 DUP4 ADD MSTORE PUSH1 0xE0 SWAP1 SWAP2 ADD MSTORE SWAP4 SWAP3 POP POP POP JUMP JUMPDEST DUP1 ISZERO ISZERO DUP2 EQ PUSH2 0x1993 JUMPI PUSH1 0x0 DUP1 REVERT JUMPDEST POP JUMP JUMPDEST PUSH1 0x0 DUP1 DUP4 PUSH1 0x1F DUP5 ADD SLT PUSH2 0x19A8 JUMPI PUSH1 0x0 DUP1 REVERT JUMPDEST POP DUP2 CALLDATALOAD PUSH8 0xFFFFFFFFFFFFFFFF DUP2 GT ISZERO PUSH2 0x19C0 JUMPI PUSH1 0x0 DUP1 REVERT JUMPDEST PUSH1 0x20 DUP4 ADD SWAP2 POP DUP4 PUSH1 0x20 DUP3 PUSH1 0x5 SHL DUP6 ADD ADD GT ISZERO PUSH2 0x19DB JUMPI PUSH1 0x0 DUP1 REVERT JUMPDEST SWAP3 POP SWAP3 SWAP1 POP JUMP JUMPDEST PUSH1 0x0 DUP1 PUSH1 0x0 DUP1 PUSH1 0x60 DUP6 DUP8 SUB SLT ISZERO PUSH2 0x19F8 JUMPI PUSH1 0x0 DUP1 REVERT JUMPDEST DUP5 CALLDATALOAD SWAP4 POP PUSH1 0x20 DUP6 ADD CALLDATALOAD PUSH2 0x1A0A DUP2 PUSH2 0x1985 JUMP JUMPDEST SWAP3 POP PUSH1 0x40 DUP6 ADD CALLDATALOAD PUSH8 0xFFFFFFFFFFFFFFFF DUP2 GT ISZERO PUSH2 0x1A26 JUMPI PUSH1 0x0 DUP1 REVERT JUMPDEST PUSH2 0x1A32 DUP8 DUP3 DUP9 ADD PUSH2 0x1996 JUMP JUMPDEST SWAP6 SWAP9 SWAP5 SWAP8 POP SWAP6 POP POP POP POP JUMP JUMPDEST PUSH1 0x1 PUSH1 0x1 PUSH1 0xA0 SHL SUB DUP11 DUP2 AND DUP3 MSTORE DUP10 AND PUSH1 0x20 DUP3 ADD MSTORE PUSH2 0x120 PUSH1 0x40 DUP3 ADD DUP2 SWAP1 MSTORE PUSH1 0x0 SWAP1 PUSH2 0x1A6B DUP4 DUP3 ADD DUP12 PUSH2 0x18E6 JUMP JUMPDEST PUSH1 0x60 DUP5 ADD SWAP10 SWAP1 SWAP10 MSTORE POP POP PUSH1 0x80 DUP2 ADD SWAP6 SWAP1 SWAP6 MSTORE SWAP3 ISZERO ISZERO PUSH1 0xA0 DUP6 ADD MSTORE PUSH1 0xC0 DUP5 ADD SWAP2 SWAP1 SWAP2 MSTORE PUSH1 0xE0 DUP4 ADD MSTORE PUSH2 0x100 SWAP1 SWAP2 ADD MSTORE SWAP4 SWAP3 POP POP POP JUMP JUMPDEST PUSH1 0x0 DUP1 PUSH1 0x0 DUP1 PUSH1 0x0 PUSH1 0x80 DUP7 DUP9 SUB SLT ISZERO PUSH2 0x1AB8 JUMPI PUSH1 0x0 DUP1 REVERT JUMPDEST PUSH2 0x1AC1 DUP7 PUSH2 0x1806 JUMP JUMPDEST SWAP5 POP PUSH2 0x1ACF PUSH1 0x20 DUP8 ADD PUSH2 0x1806 JUMP JUMPDEST SWAP4 POP PUSH1 0x40 DUP7 ADD CALLDATALOAD PUSH8 0xFFFFFFFFFFFFFFFF DUP2 GT ISZERO PUSH2 0x1AEB JUMPI PUSH1 0x0 DUP1 REVERT JUMPDEST PUSH2 0x1AF7 DUP9 DUP3 DUP10 ADD PUSH2 0x1996 JUMP JUMPDEST SWAP7 SWAP10 SWAP6 SWAP9 POP SWAP7 PUSH1 0x60 ADD CALLDATALOAD SWAP5 SWAP4 POP POP POP POP JUMP JUMPDEST PUSH4 0x4E487B71 PUSH1 0xE0 SHL PUSH1 0x0 MSTORE PUSH1 0x41 PUSH1 0x4 MSTORE PUSH1 0x24 PUSH1 0x0 REVERT JUMPDEST PUSH1 0x1 DUP2 DUP2 SHR SWAP1 DUP3 AND DUP1 PUSH2 0x1B33 JUMPI PUSH1 0x7F DUP3 AND SWAP2 POP JUMPDEST PUSH1 0x20 DUP3 LT DUP2 SUB PUSH2 0x1B53 JUMPI PUSH4 0x4E487B71 PUSH1 0xE0 SHL PUSH1 0x0 MSTORE PUSH1 0x22 PUSH1 0x4 MSTORE PUSH1 0x24 PUSH1 0x0 REVERT JUMPDEST POP SWAP2 SWAP1 POP JUMP JUMPDEST PUSH1 0x1F DUP3 GT ISZERO PUSH2 0x1BA3 JUMPI PUSH1 0x0 DUP2 DUP2 MSTORE PUSH1 0x20 DUP2 KECCAK256 PUSH1 0x1F DUP6 ADD PUSH1 0x5 SHR DUP2 ADD PUSH1 0x20 DUP7 LT ISZERO PUSH2 0x1B80 JUMPI POP DUP1 JUMPDEST PUSH1 0x1F DUP6 ADD PUSH1 0x5 SHR DUP3 ADD SWAP2 POP JUMPDEST DUP2 DUP2 LT ISZERO PUSH2 0x1B9F JUMPI DUP3 DUP2 SSTORE PUSH1 0x1 ADD PUSH2 0x1B8C JUMP JUMPDEST POP POP POP JUMPDEST POP POP POP JUMP JUMPDEST PUSH8 0xFFFFFFFFFFFFFFFF DUP4 GT ISZERO PUSH2 0x1BC0 JUMPI PUSH2 0x1BC0 PUSH2 0x1B09 JUMP JUMPDEST PUSH2 0x1BD4 DUP4 PUSH2 0x1BCE DUP4 SLOAD PUSH2 0x1B1F JUMP JUMPDEST DUP4 PUSH2 0x1B59 JUMP JUMPDEST PUSH1 0x0 PUSH1 0x1F DUP5 GT PUSH1 0x1 DUP2 EQ PUSH2 0x1C08 JUMPI PUSH1 0x0 DUP6 ISZERO PUSH2 0x1BF0 JUMPI POP DUP4 DUP3 ADD CALLDATALOAD JUMPDEST PUSH1 0x0 NOT PUSH1 0x3 DUP8 SWAP1 SHL SHR NOT AND PUSH1 0x1 DUP7 SWAP1 SHL OR DUP4 SSTORE PUSH2 0x9CE JUMP JUMPDEST PUSH1 0x0 DUP4 DUP2 MSTORE PUSH1 0x20 SWAP1 KECCAK256 PUSH1 0x1F NOT DUP7 AND SWAP1 DUP4 JUMPDEST DUP3 DUP2 LT ISZERO PUSH2 0x1C39 JUMPI DUP7 DUP6 ADD CALLDATALOAD DUP3 SSTORE PUSH1 0x20 SWAP5 DUP6 ADD SWAP5 PUSH1 0x1 SWAP1 SWAP3 ADD SWAP2 ADD PUSH2 0x1C19 JUMP JUMPDEST POP DUP7 DUP3 LT ISZERO PUSH2 0x1C56 JUMPI PUSH1 0x0 NOT PUSH1 0xF8 DUP9 PUSH1 0x3 SHL AND SHR NOT DUP5 DUP8 ADD CALLDATALOAD AND DUP2 SSTORE JUMPDEST POP POP PUSH1 0x1 DUP6 PUSH1 0x1 SHL ADD DUP4 SSTORE POP POP POP POP POP JUMP JUMPDEST PUSH1 0x1 PUSH1 0x1 PUSH1 0xA0 SHL SUB DUP6 DUP2 AND DUP3 MSTORE DUP5 AND PUSH1 0x20 DUP3 ADD MSTORE PUSH1 0x60 PUSH1 0x40 DUP3 ADD DUP2 SWAP1 MSTORE DUP2 ADD DUP3 SWAP1 MSTORE PUSH1 0x0 DUP3 DUP5 PUSH1 0x80 DUP5 ADD CALLDATACOPY PUSH1 0x0 PUSH1 0x80 DUP5 DUP5 ADD ADD MSTORE PUSH1 0x80 PUSH1 0x1F NOT PUSH1 0x1F DUP6 ADD AND DUP4 ADD ADD SWAP1 POP SWAP6 SWAP5 POP POP POP POP POP JUMP JUMPDEST PUSH4 0x4E487B71 PUSH1 0xE0 SHL PUSH1 0x0 MSTORE PUSH1 0x11 PUSH1 0x4 MSTORE PUSH1 0x24 PUSH1 0x0 REVERT JUMPDEST PUSH1 0x0 PUSH1 0x1 DUP3 ADD PUSH2 0x1CDC JUMPI PUSH2 0x1CDC PUSH2 0x1CB4 JUMP JUMPDEST POP PUSH1 0x1 ADD SWAP1 JUMP JUMPDEST PUSH1 0x0 PUSH1 0x20 DUP3 DUP5 SUB SLT ISZERO PUSH2 0x1CF5 JUMPI PUSH1 0x0 DUP1 REVERT JUMPDEST DUP2 MLOAD PUSH2 0x183D DUP2 PUSH2 0x1985 JUMP JUMPDEST DUP2 DUP2 SUB DUP2 DUP2 GT ISZERO PUSH2 0x1D13 JUMPI PUSH2 0x1D13 PUSH2 0x1CB4 JUMP JUMPDEST SWAP3 SWAP2 POP POP JUMP JUMPDEST DUP1 DUP3 ADD DUP1 DUP3 GT ISZERO PUSH2 0x1D13 JUMPI PUSH2 0x1D13 PUSH2 0x1CB4 JUMP JUMPDEST DUP1 DUP3 MUL DUP2 ISZERO DUP3 DUP3 DIV DUP5 EQ OR PUSH2 0x1D13 JUMPI PUSH2 0x1D13 PUSH2 0x1CB4 JUMP JUMPDEST PUSH1 0x0 DUP3 PUSH2 0x1D60 JUMPI PUSH4 0x4E487B71 PUSH1 0xE0 SHL PUSH1 0x0 MSTORE PUSH1 0x12 PUSH1 0x4 MSTORE PUSH1 0x24 PUSH1 0x0 REVERT JUMPDEST POP DIV SWAP1 JUMP JUMPDEST PUSH4 0x4E487B71 PUSH1 0xE0 SHL PUSH1 0x0 MSTORE PUSH1 0x32 PUSH1 0x4 MSTORE PUSH1 0x24 PUSH1 0x0 REVERT JUMPDEST DUP4 DUP2 MSTORE PUSH1 0x40 PUSH1 0x20 DUP1 DUP4 ADD DUP3 SWAP1 MSTORE SWAP1 DUP3 ADD DUP4 SWAP1 MSTORE PUSH1 0x0 SWAP1 DUP5 SWAP1 PUSH1 0x60 DUP5 ADD DUP4 JUMPDEST DUP7 DUP2 LT ISZERO PUSH2 0x1DC5 JUMPI PUSH1 0x1 PUSH1 0x1 PUSH1 0xA0 SHL SUB PUSH2 0x1DB2 DUP6 PUSH2 0x1806 JUMP JUMPDEST AND DUP3 MSTORE SWAP3 DUP3 ADD SWAP3 SWAP1 DUP3 ADD SWAP1 PUSH1 0x1 ADD PUSH2 0x1D99 JUMP JUMPDEST POP SWAP8 SWAP7 POP POP POP POP POP POP POP JUMP JUMPDEST PUSH1 0x1 PUSH1 0x1 PUSH1 0xA0 SHL SUB DUP10 DUP2 AND DUP3 MSTORE DUP9 AND PUSH1 0x20 DUP1 DUP4 ADD SWAP2 SWAP1 SWAP2 MSTORE PUSH2 0x100 PUSH1 0x40 DUP4 ADD DUP2 SWAP1 MSTORE DUP9 SLOAD PUSH1 0x0 SWAP3 DUP4 SWAP2 PUSH2 0x1E03 DUP2 PUSH2 0x1B1F JUMP JUMPDEST SWAP4 DUP7 ADD DUP5 SWAP1 MSTORE PUSH2 0x120 SWAP4 PUSH1 0x1 DUP3 DUP2 AND DUP1 ISZERO PUSH2 0x1E25 JUMPI PUSH1 0x1 DUP2 EQ PUSH2 0x1E3F JUMPI PUSH2 0x1E6D JUMP JUMPDEST PUSH1 0xFF NOT DUP5 AND DUP10 DUP9 ADD MSTORE DUP3 ISZERO ISZERO PUSH1 0x5 SHL DUP10 ADD DUP8 ADD SWAP6 POP PUSH2 0x1E6D JUMP JUMPDEST DUP15 PUSH1 0x0 MSTORE DUP5 PUSH1 0x0 KECCAK256 PUSH1 0x0 JUMPDEST DUP5 DUP2 LT ISZERO PUSH2 0x1E65 JUMPI DUP2 SLOAD DUP12 DUP3 ADD DUP11 ADD MSTORE SWAP1 DUP4 ADD SWAP1 DUP7 ADD PUSH2 0x1E4A JUMP JUMPDEST DUP11 ADD DUP9 ADD SWAP7 POP POP JUMPDEST POP POP POP POP POP DUP1 SWAP3 POP POP POP DUP7 PUSH1 0x60 DUP4 ADD MSTORE DUP6 PUSH1 0x80 DUP4 ADD MSTORE DUP5 PUSH1 0xA0 DUP4 ADD MSTORE PUSH2 0x1E97 PUSH1 0xC0 DUP4 ADD DUP6 ISZERO ISZERO SWAP1 MSTORE JUMP JUMPDEST DUP3 PUSH1 0xE0 DUP4 ADD MSTORE SWAP10 SWAP9 POP POP POP POP POP POP POP POP POP JUMP JUMPDEST PUSH1 0x0 PUSH1 0x40 DUP3 ADD DUP5 DUP4 MSTORE PUSH1 0x20 PUSH1 0x40 DUP2 DUP6 ADD MSTORE DUP2 DUP6 MLOAD DUP1 DUP5 MSTORE PUSH1 0x60 DUP7 ADD SWAP2 POP DUP3 DUP8 ADD SWAP4 POP PUSH1 0x0 JUMPDEST DUP2 DUP2 LT ISZERO PUSH2 0x1EF4 JUMPI DUP5 MLOAD PUSH1 0x1 PUSH1 0x1 PUSH1 0xA0 SHL SUB AND DUP4 MSTORE SWAP4 DUP4 ADD SWAP4 SWAP2 DUP4 ADD SWAP2 PUSH1 0x1 ADD PUSH2 0x1ECF JUMP JUMPDEST POP SWAP1 SWAP8 SWAP7 POP POP POP POP POP POP POP JUMP INVALID LOG2 PUSH5 0x6970667358 0x22 SLT KECCAK256 0xA6 0xD5 0xE2 SWAP10 SWAP1 MULMOD PUSH17 0xF9E8974AB75A84C5DB64389D07FCA54933 NOT PUSH11 0x40A3985D88B064736F6C63 NUMBER STOP ADDMOD EQ STOP CALLER "},"methodIdentifiers":{"CONSENSUS_DENOMINATOR()":"62ff7b8b","CONSENSUS_NUMERATOR()":"e4c11710","SLASH_AMOUNT()":"37720606","VALIDATOR_REWARD()":"a3c3cda0","castVote(bytes32,bool,address[])":"1e41ef12","deposit(address)":"f340fa01","getProof(bytes32)":"1b80bb3a","getProofCount()":"5be4ee1b","getStake(address)":"7a766460","getTotals()":"84e10a90","ledger()":"56397c35","owner()":"8da5cb5b","proofList(uint256)":"9f994185","proofs(bytes32)":"444d95b0","registry()":"7b103999","setLedger(address)":"3246887d","slash(address,address,address[],uint256)":"a79fca9e","stakes(address)":"16934fc4","submitProof(address,string,bytes32)":"1abe87b2","totalRewarded()":"aed29d07","totalSlashed()":"a201bbdd","withdraw()":"3ccfd60b"}}}}}