{"contracts/SYBILRegistry.sol":{"SYBILRegistry":{"abi":[{"inputs":[],"stateMutability":"nonpayable","type":"constructor"},{"anonymous":false,"inputs":[{"indexed":true,"internalType":"address","name":"agent","type":"address"},{"indexed":false,"internalType":"string","name":"ensName","type":"string"},{"indexed":false,"internalType":"bytes32","name":"axlPubKey","type":"bytes32"},{"indexed":false,"internalType":"enum SYBILRegistry.AgentRole","name":"role","type":"uint8"}],"name":"AgentRegistered","type":"event"},{"anonymous":false,"inputs":[{"indexed":true,"internalType":"address","name":"attacker","type":"address"},{"indexed":false,"internalType":"uint256","name":"totalSlashes","type":"uint256"}],"name":"AgentSlashRecorded","type":"event"},{"anonymous":false,"inputs":[{"indexed":true,"internalType":"address","name":"agent","type":"address"},{"indexed":false,"internalType":"enum SYBILRegistry.AgentStatus","name":"oldStatus","type":"uint8"},{"indexed":false,"internalType":"enum SYBILRegistry.AgentStatus","name":"newStatus","type":"uint8"}],"name":"AgentStatusChanged","type":"event"},{"anonymous":false,"inputs":[{"indexed":false,"internalType":"address","name":"vault","type":"address"}],"name":"VaultSet","type":"event"},{"inputs":[],"name":"BAN_THRESHOLD","outputs":[{"internalType":"uint256","name":"","type":"uint256"}],"stateMutability":"view","type":"function"},{"inputs":[],"name":"MIN_STAKE","outputs":[{"internalType":"uint256","name":"","type":"uint256"}],"stateMutability":"view","type":"function"},{"inputs":[],"name":"SLASH_AMOUNT","outputs":[{"internalType":"uint256","name":"","type":"uint256"}],"stateMutability":"view","type":"function"},{"inputs":[],"name":"WARN_THRESHOLD","outputs":[{"internalType":"uint256","name":"","type":"uint256"}],"stateMutability":"view","type":"function"},{"inputs":[{"internalType":"address","name":"agentAddr","type":"address"},{"internalType":"string","name":"ensName","type":"string"},{"internalType":"bytes32","name":"axlPubKey","type":"bytes32"},{"internalType":"enum SYBILRegistry.AgentRole","name":"role","type":"uint8"}],"name":"adminRegister","outputs":[],"stateMutability":"payable","type":"function"},{"inputs":[{"internalType":"uint256","name":"","type":"uint256"}],"name":"agentList","outputs":[{"internalType":"address","name":"","type":"address"}],"stateMutability":"view","type":"function"},{"inputs":[{"internalType":"address","name":"","type":"address"}],"name":"agents","outputs":[{"internalType":"string","name":"ensName","type":"string"},{"internalType":"bytes32","name":"axlPubKey","type":"bytes32"},{"internalType":"enum SYBILRegistry.AgentRole","name":"role","type":"uint8"},{"internalType":"enum SYBILRegistry.AgentStatus","name":"status","type":"uint8"},{"internalType":"uint256","name":"attacksDetected","type":"uint256"},{"internalType":"uint256","name":"attacksLaunched","type":"uint256"},{"internalType":"uint256","name":"votesCast","type":"uint256"},{"internalType":"uint256","name":"registeredAt","type":"uint256"},{"internalType":"bool","name":"exists","type":"bool"}],"stateMutability":"view","type":"function"},{"inputs":[{"internalType":"bytes32","name":"","type":"bytes32"}],"name":"axlToAddress","outputs":[{"internalType":"address","name":"","type":"address"}],"stateMutability":"view","type":"function"},{"inputs":[{"internalType":"string","name":"","type":"string"}],"name":"ensToAddress","outputs":[{"internalType":"address","name":"","type":"address"}],"stateMutability":"view","type":"function"},{"inputs":[{"internalType":"address","name":"addr","type":"address"}],"name":"getAgent","outputs":[{"components":[{"internalType":"string","name":"ensName","type":"string"},{"internalType":"bytes32","name":"axlPubKey","type":"bytes32"},{"internalType":"enum SYBILRegistry.AgentRole","name":"role","type":"uint8"},{"internalType":"enum SYBILRegistry.AgentStatus","name":"status","type":"uint8"},{"internalType":"uint256","name":"attacksDetected","type":"uint256"},{"internalType":"uint256","name":"attacksLaunched","type":"uint256"},{"internalType":"uint256","name":"votesCast","type":"uint256"},{"internalType":"uint256","name":"registeredAt","type":"uint256"},{"internalType":"bool","name":"exists","type":"bool"}],"internalType":"struct SYBILRegistry.Agent","name":"","type":"tuple"}],"stateMutability":"view","type":"function"},{"inputs":[{"internalType":"bytes32","name":"axlKey","type":"bytes32"}],"name":"getAgentByAXL","outputs":[{"components":[{"internalType":"string","name":"ensName","type":"string"},{"internalType":"bytes32","name":"axlPubKey","type":"bytes32"},{"internalType":"enum SYBILRegistry.AgentRole","name":"role","type":"uint8"},{"internalType":"enum SYBILRegistry.AgentStatus","name":"status","type":"uint8"},{"internalType":"uint256","name":"attacksDetected","type":"uint256"},{"internalType":"uint256","name":"attacksLaunched","type":"uint256"},{"internalType":"uint256","name":"votesCast","type":"uint256"},{"internalType":"uint256","name":"registeredAt","type":"uint256"},{"internalType":"bool","name":"exists","type":"bool"}],"internalType":"struct SYBILRegistry.Agent","name":"","type":"tuple"},{"internalType":"address","name":"","type":"address"}],"stateMutability":"view","type":"function"},{"inputs":[{"internalType":"string","name":"ensName","type":"string"}],"name":"getAgentByENS","outputs":[{"components":[{"internalType":"string","name":"ensName","type":"string"},{"internalType":"bytes32","name":"axlPubKey","type":"bytes32"},{"internalType":"enum SYBILRegistry.AgentRole","name":"role","type":"uint8"},{"internalType":"enum SYBILRegistry.AgentStatus","name":"status","type":"uint8"},{"internalType":"uint256","name":"attacksDetected","type":"uint256"},{"internalType":"uint256","name":"attacksLaunched","type":"uint256"},{"internalType":"uint256","name":"votesCast","type":"uint256"},{"internalType":"uint256","name":"registeredAt","type":"uint256"},{"internalType":"bool","name":"exists","type":"bool"}],"internalType":"struct SYBILRegistry.Agent","name":"","type":"tuple"},{"internalType":"address","name":"","type":"address"}],"stateMutability":"view","type":"function"},{"inputs":[],"name":"getAgentCount","outputs":[{"internalType":"uint256","name":"","type":"uint256"}],"stateMutability":"view","type":"function"},{"inputs":[],"name":"getAllAgents","outputs":[{"internalType":"address[]","name":"","type":"address[]"}],"stateMutability":"view","type":"function"},{"inputs":[{"internalType":"address","name":"addr","type":"address"}],"name":"isActive","outputs":[{"internalType":"bool","name":"","type":"bool"}],"stateMutability":"view","type":"function"},{"inputs":[{"internalType":"address","name":"addr","type":"address"}],"name":"isBanned","outputs":[{"internalType":"bool","name":"","type":"bool"}],"stateMutability":"view","type":"function"},{"inputs":[],"name":"owner","outputs":[{"internalType":"address","name":"","type":"address"}],"stateMutability":"view","type":"function"},{"inputs":[{"internalType":"address","name":"victim","type":"address"}],"name":"recordDetection","outputs":[],"stateMutability":"nonpayable","type":"function"},{"inputs":[{"internalType":"address","name":"attacker","type":"address"}],"name":"recordSlash","outputs":[],"stateMutability":"nonpayable","type":"function"},{"inputs":[{"internalType":"address","name":"validator","type":"address"}],"name":"recordVote","outputs":[],"stateMutability":"nonpayable","type":"function"},{"inputs":[{"internalType":"string","name":"ensName","type":"string"},{"internalType":"bytes32","name":"axlPubKey","type":"bytes32"},{"internalType":"enum SYBILRegistry.AgentRole","name":"role","type":"uint8"}],"name":"register","outputs":[],"stateMutability":"payable","type":"function"},{"inputs":[{"internalType":"address","name":"_vault","type":"address"}],"name":"setVault","outputs":[],"stateMutability":"nonpayable","type":"function"},{"inputs":[],"name":"vault","outputs":[{"internalType":"contract ISlashingVault","name":"","type":"address"}],"stateMutability":"view","type":"function"}],"evm":{"bytecode":{"linkReferences":{},"object":"608060405234801561001057600080fd5b50600080546001600160a01b03191633179055611edc806100326000396000f3fe6080604052600436106101405760003560e01c80638a325765116100b6578063b58850471161006f578063b5885047146103c5578063cb1c2b5c146103d8578063df230361146103f3578063fb3551ff14610408578063fbfa77cf14610435578063fd66091e1461045557600080fd5b80638a325765146103005780638da5cb5b1461032057806391cab63e1461034057806392c1ff441461035557806397f735d5146103755780639f8a13d7146103a557600080fd5b80634bb43882116101085780634bb43882146102545780635309564c146102765780635979cfe6146102965780635b2d75fc146102ab5780636817031b146102be578063860e4ac6146102de57600080fd5b806306bb23f61461014557806321db26871461017c5780632f80c54f146101ca57806333097df6146101ea578063377206061461022b575b600080fd5b34801561015157600080fd5b5061016561016036600461186f565b61048a565b6040516101739291906119ba565b60405180910390f35b34801561018857600080fd5b506101b26101973660046119e4565b6004602052600090815260409020546001600160a01b031681565b6040516001600160a01b039091168152602001610173565b3480156101d657600080fd5b506101b26101e53660046119e4565b61062e565b3480156101f657600080fd5b506101b2610205366004611a13565b80516020818301810180516003825292820191909301209152546001600160a01b031681565b34801561023757600080fd5b506102466611c37937e0800081565b604051908152602001610173565b34801561026057600080fd5b5061027461026f366004611ae0565b610658565b005b34801561028257600080fd5b50610274610291366004611ae0565b6106df565b3480156102a257600080fd5b50610246600181565b6102746102b9366004611b11565b6108de565b3480156102ca57600080fd5b506102746102d9366004611ae0565b610d54565b3480156102ea57600080fd5b506102f3610dee565b6040516101739190611b6e565b34801561030c57600080fd5b5061016561031b3660046119e4565b610e50565b34801561032c57600080fd5b506000546101b2906001600160a01b031681565b34801561034c57600080fd5b50600554610246565b34801561036157600080fd5b50610274610370366004611ae0565b610fd7565b34801561038157600080fd5b50610395610390366004611ae0565b61104c565b6040519015158152602001610173565b3480156103b157600080fd5b506103956103c0366004611ae0565b6110b3565b6102746103d3366004611bbb565b6110e0565b3480156103e457600080fd5b50610246662386f26fc1000081565b3480156103ff57600080fd5b50610246600381565b34801561041457600080fd5b50610428610423366004611ae0565b611594565b6040516101739190611c29565b34801561044157600080fd5b506001546101b2906001600160a01b031681565b34801561046157600080fd5b50610475610470366004611ae0565b611704565b60405161017399989796959493929190611c3c565b6104926117de565b600080600385856040516104a7929190611ca1565b908152604080519182900360209081018320546001600160a01b0316600081815260029092529082902061012084019092528154909350909183918390829082906104f190611cb1565b80601f016020809104026020016040519081016040528092919081815260200182805461051d90611cb1565b801561056a5780601f1061053f5761010080835404028352916020019161056a565b820191906000526020600020905b81548152906001019060200180831161054d57829003601f168201915b50505091835250506001820154602082015260028083015460409092019160ff169081111561059b5761059b6118f7565b60028111156105ac576105ac6118f7565b81526020016002820160019054906101000a900460ff1660048111156105d4576105d46118f7565b60048111156105e5576105e56118f7565b81526003820154602082015260048201546040820152600582015460608201526006820154608082015260079091015460ff16151560a0909101529450925050505b9250929050565b6005818154811061063e57600080fd5b6000918252602090912001546001600160a01b0316905081565b6001546001600160a01b0316331461068b5760405162461bcd60e51b815260040161068290611ceb565b60405180910390fd5b6001600160a01b03811660009081526002602052604090206007015460ff16156106dc576001600160a01b03811660009081526002602052604081206003018054916106d683611d0e565b91905055505b50565b6001546001600160a01b031633146107095760405162461bcd60e51b815260040161068290611ceb565b6001600160a01b03811660009081526002602052604090206007015460ff166107665760405162461bcd60e51b815260206004820152600f60248201526e1059d95b9d081b9bdd08199bdd5b99608a1b6044820152606401610682565b6001600160a01b038116600090815260026020526040812060040180549161078d83611d0e565b90915550506001600160a01b038116600090815260026020819052604082209081015460049091015461010090910460ff169190600381106107d257600491506107e8565b600181106107e357600291506107e8565b600191505b8260048111156107fa576107fa6118f7565b82600481111561080c5761080c6118f7565b14610895576001600160a01b038416600090815260026020819052604090912001805483919061ff00191661010083600481111561084c5761084c6118f7565b0217905550836001600160a01b03167f618b78a8918b9c4ea0ba1d536d95aa64efb54925e7559eb0a38eb509e7a99f55848460405161088c929190611d35565b60405180910390a25b836001600160a01b03167fff39fe34c04df0b5359e1afd071a892d400968f9b8453f81931568f2c1c20082826040516108d091815260200190565b60405180910390a250505050565b3360009081526002602052604090206007015460ff16156109365760405162461bcd60e51b8152602060048201526012602482015271105b1c9958591e481c9959da5cdd195c995960721b6044820152606401610682565b662386f26fc100003410156109825760405162461bcd60e51b8152602060048201526012602482015271496e73756666696369656e74207374616b6560701b6044820152606401610682565b826109c05760405162461bcd60e51b815260206004820152600e60248201526d456d70747920454e53206e616d6560901b6044820152606401610682565b60006001600160a01b0316600385856040516109dd929190611ca1565b908152604051908190036020019020546001600160a01b031614610a345760405162461bcd60e51b815260206004820152600e60248201526d22a729903730b6b2903a30b5b2b760911b6044820152606401610682565b6000828152600460205260409020546001600160a01b031615610a895760405162461bcd60e51b815260206004820152600d60248201526c20ac261035b2bc903a30b5b2b760991b6044820152606401610682565b6001546001600160a01b0316610ad15760405162461bcd60e51b815260206004820152600d60248201526c15985d5b1d081b9bdd081cd95d609a1b6044820152606401610682565b60405180610120016040528085858080601f01602080910402602001604051908101604052809392919081815260200183838082843760009201919091525050509082525060208101849052604001826002811115610b3257610b326118f7565b81526020016001815260006020808301829052604080840183905260608401839052426080850152600160a090940193909352338252600290522081518190610b7b9082611d9f565b506020820151816001015560408201518160020160006101000a81548160ff02191690836002811115610bb057610bb06118f7565b0217905550606082015160028201805461ff001916610100836004811115610bda57610bda6118f7565b02179055506080820151816003015560a0820151816004015560c0820151816005015560e082015181600601556101008201518160070160006101000a81548160ff0219169083151502179055509050503360038585604051610c3e929190611ca1565b908152604080516020928190038301812080546001600160a01b03199081166001600160a01b0396871617909155600087815260049485905292832080543390831681179091556005805460018181018355919095527f036b6384b5eca791c62761152d0c79bb0604c104a5fb6f4eb0703f3154bb3db090940180549092168117909155915463f340fa0160e01b82529281019190915291169063f340fa019034906024016000604051808303818588803b158015610cfc57600080fd5b505af1158015610d10573d6000803e3d6000fd5b5050505050336001600160a01b03167f0caf4744410bf6030b7336f90d0d79faf0cde9aa6dad8920c16b387268aecf50858585856040516108d09493929190611e5f565b6000546001600160a01b03163314610d9a5760405162461bcd60e51b81526020600482015260096024820152682737ba1037bbb732b960b91b6044820152606401610682565b600180546001600160a01b0319166001600160a01b0383169081179091556040519081527fe7ae49f883c825b05681b3e00e8be6fdea9ed2a8a45e4c6ecb9390fc44cce6159060200160405180910390a150565b60606005805480602002602001604051908101604052809291908181526020018280548015610e4657602002820191906000526020600020905b81546001600160a01b03168152600190910190602001808311610e28575b5050505050905090565b610e586117de565b6000828152600460209081526040808320546001600160a01b0316808452600290925280832081516101208101909252805490918391839082908290610e9d90611cb1565b80601f0160208091040260200160405190810160405280929190818152602001828054610ec990611cb1565b8015610f165780601f10610eeb57610100808354040283529160200191610f16565b820191906000526020600020905b815481529060010190602001808311610ef957829003601f168201915b50505091835250506001820154602082015260028083015460409092019160ff1690811115610f4757610f476118f7565b6002811115610f5857610f586118f7565b81526020016002820160019054906101000a900460ff166004811115610f8057610f806118f7565b6004811115610f9157610f916118f7565b81526003820154602082015260048201546040820152600582015460608201526006820154608082015260079091015460ff16151560a090910152969095509350505050565b6001546001600160a01b031633146110015760405162461bcd60e51b815260040161068290611ceb565b6001600160a01b03811660009081526002602052604090206007015460ff16156106dc576001600160a01b03811660009081526002602052604081206005018054916106d683611d0e565b6001600160a01b03811660009081526002602052604081206007015460ff1680156110ad575060045b6001600160a01b03831660009081526002602081905260409091200154610100900460ff1660048111156110ab576110ab6118f7565b145b92915050565b6001600160a01b03811660009081526002602052604081206007015460ff1680156110ad57506001611075565b6000546001600160a01b031633146111265760405162461bcd60e51b81526020600482015260096024820152682737ba1037bbb732b960b91b6044820152606401610682565b6001600160a01b03851660009081526002602052604090206007015460ff16156111875760405162461bcd60e51b8152602060048201526012602482015271105b1c9958591e481c9959da5cdd195c995960721b6044820152606401610682565b662386f26fc100003410156111d35760405162461bcd60e51b8152602060048201526012602482015271496e73756666696369656e74207374616b6560701b6044820152606401610682565b826112115760405162461bcd60e51b815260206004820152600e60248201526d456d70747920454e53206e616d6560901b6044820152606401610682565b60006001600160a01b03166003858560405161122e929190611ca1565b908152604051908190036020019020546001600160a01b0316146112855760405162461bcd60e51b815260206004820152600e60248201526d22a729903730b6b2903a30b5b2b760911b6044820152606401610682565b6001546001600160a01b03166112cd5760405162461bcd60e51b815260206004820152600d60248201526c15985d5b1d081b9bdd081cd95d609a1b6044820152606401610682565b60405180610120016040528085858080601f0160208091040260200160405190810160405280939291908181526020018383808284376000920191909152505050908252506020810184905260400182600281111561132e5761132e6118f7565b81526020016001815260006020808301829052604080840183905260608401839052426080850152600160a0909401939093526001600160a01b03891682526002905220815181906113809082611d9f565b506020820151816001015560408201518160020160006101000a81548160ff021916908360028111156113b5576113b56118f7565b0217905550606082015160028201805461ff0019166101008360048111156113df576113df6118f7565b02179055506080820151816003015560a0820151816004015560c0820151816005015560e082015181600601556101008201518160070160006101000a81548160ff0219169083151502179055509050508460038585604051611443929190611ca1565b90815260405190819003602001902080546001600160a01b03929092166001600160a01b031990921691909117905581156114a057600082815260046020526040902080546001600160a01b0319166001600160a01b0387161790555b60058054600180820183556000929092527f036b6384b5eca791c62761152d0c79bb0604c104a5fb6f4eb0703f3154bb3db00180546001600160a01b0319166001600160a01b03888116918217909255915460405163f340fa0160e01b81526004810193909352169063f340fa019034906024016000604051808303818588803b15801561152d57600080fd5b505af1158015611541573d6000803e3d6000fd5b5050505050846001600160a01b03167f0caf4744410bf6030b7336f90d0d79faf0cde9aa6dad8920c16b387268aecf50858585856040516115859493929190611e5f565b60405180910390a25050505050565b61159c6117de565b6001600160a01b03821660009081526002602052604090819020815161012081019092528054829082906115cf90611cb1565b80601f01602080910402602001604051908101604052809291908181526020018280546115fb90611cb1565b80156116485780601f1061161d57610100808354040283529160200191611648565b820191906000526020600020905b81548152906001019060200180831161162b57829003601f168201915b50505091835250506001820154602082015260028083015460409092019160ff1690811115611679576116796118f7565b600281111561168a5761168a6118f7565b81526020016002820160019054906101000a900460ff1660048111156116b2576116b26118f7565b60048111156116c3576116c36118f7565b81526003820154602082015260048201546040820152600582015460608201526006820154608082015260079091015460ff16151560a09091015292915050565b60026020526000908152604090208054819061171f90611cb1565b80601f016020809104026020016040519081016040528092919081815260200182805461174b90611cb1565b80156117985780601f1061176d57610100808354040283529160200191611798565b820191906000526020600020905b81548152906001019060200180831161177b57829003601f168201915b5050506001840154600285015460038601546004870154600588015460068901546007909901549798949760ff8086169850610100909504851696509294919390921689565b6040805161012081018252606081526000602082018190529091820190815260200160008152602001600081526020016000815260200160008152602001600081526020016000151581525090565b60008083601f84011261183f57600080fd5b50813567ffffffffffffffff81111561185757600080fd5b60208301915083602082850101111561062757600080fd5b6000806020838503121561188257600080fd5b823567ffffffffffffffff81111561189957600080fd5b6118a58582860161182d565b90969095509350505050565b6000815180845260005b818110156118d7576020818501810151868301820152016118bb565b506000602082860101526020601f19601f83011685010191505092915050565b634e487b7160e01b600052602160045260246000fd5b6003811061191d5761191d6118f7565b9052565b6005811061191d5761191d6118f7565b60006101208251818552611947828601826118b1565b915050602083015160208501526040830151611966604086018261190d565b5060608301516119796060860182611921565b506080830151608085015260a083015160a085015260c083015160c085015260e083015160e085015261010080840151151581860152508091505092915050565b6040815260006119cd6040830185611931565b905060018060a01b03831660208301529392505050565b6000602082840312156119f657600080fd5b5035919050565b634e487b7160e01b600052604160045260246000fd5b600060208284031215611a2557600080fd5b813567ffffffffffffffff80821115611a3d57600080fd5b818401915084601f830112611a5157600080fd5b813581811115611a6357611a636119fd565b604051601f8201601f19908116603f01168101908382118183101715611a8b57611a8b6119fd565b81604052828152876020848701011115611aa457600080fd5b826020860160208301376000928101602001929092525095945050505050565b80356001600160a01b0381168114611adb57600080fd5b919050565b600060208284031215611af257600080fd5b611afb82611ac4565b9392505050565b803560038110611adb57600080fd5b60008060008060608587031215611b2757600080fd5b843567ffffffffffffffff811115611b3e57600080fd5b611b4a8782880161182d565b90955093505060208501359150611b6360408601611b02565b905092959194509250565b6020808252825182820181905260009190848201906040850190845b81811015611baf5783516001600160a01b031683529284019291840191600101611b8a565b50909695505050505050565b600080600080600060808688031215611bd357600080fd5b611bdc86611ac4565b9450602086013567ffffffffffffffff811115611bf857600080fd5b611c048882890161182d565b90955093505060408601359150611c1d60608701611b02565b90509295509295909350565b602081526000611afb6020830184611931565b6000610120808352611c508184018d6118b1565b915050896020830152611c66604083018a61190d565b611c736060830189611921565b608082019690965260a081019490945260c084019290925260e0830152151561010090910152949350505050565b8183823760009101908152919050565b600181811c90821680611cc557607f821691505b602082108103611ce557634e487b7160e01b600052602260045260246000fd5b50919050565b602080825260099082015268139bdd081d985d5b1d60ba1b604082015260600190565b600060018201611d2e57634e487b7160e01b600052601160045260246000fd5b5060010190565b60408101611d438285611921565b611afb6020830184611921565b601f821115611d9a57600081815260208120601f850160051c81016020861015611d775750805b601f850160051c820191505b81811015611d9657828155600101611d83565b5050505b505050565b815167ffffffffffffffff811115611db957611db96119fd565b611dcd81611dc78454611cb1565b84611d50565b602080601f831160018114611e025760008415611dea5750858301515b600019600386901b1c1916600185901b178555611d96565b600085815260208120601f198616915b82811015611e3157888601518255948401946001909101908401611e12565b5085821015611e4f5787850151600019600388901b60f8161c191681555b5050505050600190811b01905550565b606081528360608201528385608083013760006080858301015260006080601f19601f8701168301019050836020830152611e9d604083018461190d565b9594505050505056fea2646970667358221220d50399f485a26e4466fe43e1a959f247172fc6a31b70f59341cf2191c8332e1464736f6c63430008140033","opcodes":"PUSH1 0x80 PUSH1 0x40 MSTORE CALLVALUE DUP1 ISZERO PUSH2 0x10 JUMPI PUSH1 0x0 DUP1 REVERT JUMPDEST POP PUSH1 0x0 DUP1 SLOAD PUSH1 0x1 PUSH1 0x1 PUSH1 0xA0 SHL SUB NOT AND CALLER OR SWAP1 SSTORE PUSH2 0x1EDC DUP1 PUSH2 0x32 PUSH1 0x0 CODECOPY PUSH1 0x0 RETURN INVALID PUSH1 0x80 PUSH1 0x40 MSTORE PUSH1 0x4 CALLDATASIZE LT PUSH2 0x140 JUMPI PUSH1 0x0 CALLDATALOAD PUSH1 0xE0 SHR DUP1 PUSH4 0x8A325765 GT PUSH2 0xB6 JUMPI DUP1 PUSH4 0xB5885047 GT PUSH2 0x6F JUMPI DUP1 PUSH4 0xB5885047 EQ PUSH2 0x3C5 JUMPI DUP1 PUSH4 0xCB1C2B5C EQ PUSH2 0x3D8 JUMPI DUP1 PUSH4 0xDF230361 EQ PUSH2 0x3F3 JUMPI DUP1 PUSH4 0xFB3551FF EQ PUSH2 0x408 JUMPI DUP1 PUSH4 0xFBFA77CF EQ PUSH2 0x435 JUMPI DUP1 PUSH4 0xFD66091E EQ PUSH2 0x455 JUMPI PUSH1 0x0 DUP1 REVERT JUMPDEST DUP1 PUSH4 0x8A325765 EQ PUSH2 0x300 JUMPI DUP1 PUSH4 0x8DA5CB5B EQ PUSH2 0x320 JUMPI DUP1 PUSH4 0x91CAB63E EQ PUSH2 0x340 JUMPI DUP1 PUSH4 0x92C1FF44 EQ PUSH2 0x355 JUMPI DUP1 PUSH4 0x97F735D5 EQ PUSH2 0x375 JUMPI DUP1 PUSH4 0x9F8A13D7 EQ PUSH2 0x3A5 JUMPI PUSH1 0x0 DUP1 REVERT JUMPDEST DUP1 PUSH4 0x4BB43882 GT PUSH2 0x108 JUMPI DUP1 PUSH4 0x4BB43882 EQ PUSH2 0x254 JUMPI DUP1 PUSH4 0x5309564C EQ PUSH2 0x276 JUMPI DUP1 PUSH4 0x5979CFE6 EQ PUSH2 0x296 JUMPI DUP1 PUSH4 0x5B2D75FC EQ PUSH2 0x2AB JUMPI DUP1 PUSH4 0x6817031B EQ PUSH2 0x2BE JUMPI DUP1 PUSH4 0x860E4AC6 EQ PUSH2 0x2DE JUMPI PUSH1 0x0 DUP1 REVERT JUMPDEST DUP1 PUSH4 0x6BB23F6 EQ PUSH2 0x145 JUMPI DUP1 PUSH4 0x21DB2687 EQ PUSH2 0x17C JUMPI DUP1 PUSH4 0x2F80C54F EQ PUSH2 0x1CA JUMPI DUP1 PUSH4 0x33097DF6 EQ PUSH2 0x1EA JUMPI DUP1 PUSH4 0x37720606 EQ PUSH2 0x22B JUMPI JUMPDEST PUSH1 0x0 DUP1 REVERT JUMPDEST CALLVALUE DUP1 ISZERO PUSH2 0x151 JUMPI PUSH1 0x0 DUP1 REVERT JUMPDEST POP PUSH2 0x165 PUSH2 0x160 CALLDATASIZE PUSH1 0x4 PUSH2 0x186F JUMP JUMPDEST PUSH2 0x48A JUMP JUMPDEST PUSH1 0x40 MLOAD PUSH2 0x173 SWAP3 SWAP2 SWAP1 PUSH2 0x19BA JUMP JUMPDEST PUSH1 0x40 MLOAD DUP1 SWAP2 SUB SWAP1 RETURN JUMPDEST CALLVALUE DUP1 ISZERO PUSH2 0x188 JUMPI PUSH1 0x0 DUP1 REVERT JUMPDEST POP PUSH2 0x1B2 PUSH2 0x197 CALLDATASIZE PUSH1 0x4 PUSH2 0x19E4 JUMP JUMPDEST PUSH1 0x4 PUSH1 0x20 MSTORE PUSH1 0x0 SWAP1 DUP2 MSTORE PUSH1 0x40 SWAP1 KECCAK256 SLOAD PUSH1 0x1 PUSH1 0x1 PUSH1 0xA0 SHL SUB AND DUP2 JUMP JUMPDEST PUSH1 0x40 MLOAD PUSH1 0x1 PUSH1 0x1 PUSH1 0xA0 SHL SUB SWAP1 SWAP2 AND DUP2 MSTORE PUSH1 0x20 ADD PUSH2 0x173 JUMP JUMPDEST CALLVALUE DUP1 ISZERO PUSH2 0x1D6 JUMPI PUSH1 0x0 DUP1 REVERT JUMPDEST POP PUSH2 0x1B2 PUSH2 0x1E5 CALLDATASIZE PUSH1 0x4 PUSH2 0x19E4 JUMP JUMPDEST PUSH2 0x62E JUMP JUMPDEST CALLVALUE DUP1 ISZERO PUSH2 0x1F6 JUMPI PUSH1 0x0 DUP1 REVERT JUMPDEST POP PUSH2 0x1B2 PUSH2 0x205 CALLDATASIZE PUSH1 0x4 PUSH2 0x1A13 JUMP JUMPDEST DUP1 MLOAD PUSH1 0x20 DUP2 DUP4 ADD DUP2 ADD DUP1 MLOAD PUSH1 0x3 DUP3 MSTORE SWAP3 DUP3 ADD SWAP2 SWAP1 SWAP4 ADD KECCAK256 SWAP2 MSTORE SLOAD PUSH1 0x1 PUSH1 0x1 PUSH1 0xA0 SHL SUB AND DUP2 JUMP JUMPDEST CALLVALUE DUP1 ISZERO PUSH2 0x237 JUMPI PUSH1 0x0 DUP1 REVERT JUMPDEST POP PUSH2 0x246 PUSH7 0x11C37937E08000 DUP2 JUMP JUMPDEST PUSH1 0x40 MLOAD SWAP1 DUP2 MSTORE PUSH1 0x20 ADD PUSH2 0x173 JUMP JUMPDEST CALLVALUE DUP1 ISZERO PUSH2 0x260 JUMPI PUSH1 0x0 DUP1 REVERT JUMPDEST POP PUSH2 0x274 PUSH2 0x26F CALLDATASIZE PUSH1 0x4 PUSH2 0x1AE0 JUMP JUMPDEST PUSH2 0x658 JUMP JUMPDEST STOP JUMPDEST CALLVALUE DUP1 ISZERO PUSH2 0x282 JUMPI PUSH1 0x0 DUP1 REVERT JUMPDEST POP PUSH2 0x274 PUSH2 0x291 CALLDATASIZE PUSH1 0x4 PUSH2 0x1AE0 JUMP JUMPDEST PUSH2 0x6DF JUMP JUMPDEST CALLVALUE DUP1 ISZERO PUSH2 0x2A2 JUMPI PUSH1 0x0 DUP1 REVERT JUMPDEST POP PUSH2 0x246 PUSH1 0x1 DUP2 JUMP JUMPDEST PUSH2 0x274 PUSH2 0x2B9 CALLDATASIZE PUSH1 0x4 PUSH2 0x1B11 JUMP JUMPDEST PUSH2 0x8DE JUMP JUMPDEST CALLVALUE DUP1 ISZERO PUSH2 0x2CA JUMPI PUSH1 0x0 DUP1 REVERT JUMPDEST POP PUSH2 0x274 PUSH2 0x2D9 CALLDATASIZE PUSH1 0x4 PUSH2 0x1AE0 JUMP JUMPDEST PUSH2 0xD54 JUMP JUMPDEST CALLVALUE DUP1 ISZERO PUSH2 0x2EA JUMPI PUSH1 0x0 DUP1 REVERT JUMPDEST POP PUSH2 0x2F3 PUSH2 0xDEE JUMP JUMPDEST PUSH1 0x40 MLOAD PUSH2 0x173 SWAP2 SWAP1 PUSH2 0x1B6E JUMP JUMPDEST CALLVALUE DUP1 ISZERO PUSH2 0x30C JUMPI PUSH1 0x0 DUP1 REVERT JUMPDEST POP PUSH2 0x165 PUSH2 0x31B CALLDATASIZE PUSH1 0x4 PUSH2 0x19E4 JUMP JUMPDEST PUSH2 0xE50 JUMP JUMPDEST CALLVALUE DUP1 ISZERO PUSH2 0x32C JUMPI PUSH1 0x0 DUP1 REVERT JUMPDEST POP PUSH1 0x0 SLOAD PUSH2 0x1B2 SWAP1 PUSH1 0x1 PUSH1 0x1 PUSH1 0xA0 SHL SUB AND DUP2 JUMP JUMPDEST CALLVALUE DUP1 ISZERO PUSH2 0x34C JUMPI PUSH1 0x0 DUP1 REVERT JUMPDEST POP PUSH1 0x5 SLOAD PUSH2 0x246 JUMP JUMPDEST CALLVALUE DUP1 ISZERO PUSH2 0x361 JUMPI PUSH1 0x0 DUP1 REVERT JUMPDEST POP PUSH2 0x274 PUSH2 0x370 CALLDATASIZE PUSH1 0x4 PUSH2 0x1AE0 JUMP JUMPDEST PUSH2 0xFD7 JUMP JUMPDEST CALLVALUE DUP1 ISZERO PUSH2 0x381 JUMPI PUSH1 0x0 DUP1 REVERT JUMPDEST POP PUSH2 0x395 PUSH2 0x390 CALLDATASIZE PUSH1 0x4 PUSH2 0x1AE0 JUMP JUMPDEST PUSH2 0x104C JUMP JUMPDEST PUSH1 0x40 MLOAD SWAP1 ISZERO ISZERO DUP2 MSTORE PUSH1 0x20 ADD PUSH2 0x173 JUMP JUMPDEST CALLVALUE DUP1 ISZERO PUSH2 0x3B1 JUMPI PUSH1 0x0 DUP1 REVERT JUMPDEST POP PUSH2 0x395 PUSH2 0x3C0 CALLDATASIZE PUSH1 0x4 PUSH2 0x1AE0 JUMP JUMPDEST PUSH2 0x10B3 JUMP JUMPDEST PUSH2 0x274 PUSH2 0x3D3 CALLDATASIZE PUSH1 0x4 PUSH2 0x1BBB JUMP JUMPDEST PUSH2 0x10E0 JUMP JUMPDEST CALLVALUE DUP1 ISZERO PUSH2 0x3E4 JUMPI PUSH1 0x0 DUP1 REVERT JUMPDEST POP PUSH2 0x246 PUSH7 0x2386F26FC10000 DUP2 JUMP JUMPDEST CALLVALUE DUP1 ISZERO PUSH2 0x3FF JUMPI PUSH1 0x0 DUP1 REVERT JUMPDEST POP PUSH2 0x246 PUSH1 0x3 DUP2 JUMP JUMPDEST CALLVALUE DUP1 ISZERO PUSH2 0x414 JUMPI PUSH1 0x0 DUP1 REVERT JUMPDEST POP PUSH2 0x428 PUSH2 0x423 CALLDATASIZE PUSH1 0x4 PUSH2 0x1AE0 JUMP JUMPDEST PUSH2 0x1594 JUMP JUMPDEST PUSH1 0x40 MLOAD PUSH2 0x173 SWAP2 SWAP1 PUSH2 0x1C29 JUMP JUMPDEST CALLVALUE DUP1 ISZERO PUSH2 0x441 JUMPI PUSH1 0x0 DUP1 REVERT JUMPDEST POP PUSH1 0x1 SLOAD PUSH2 0x1B2 SWAP1 PUSH1 0x1 PUSH1 0x1 PUSH1 0xA0 SHL SUB AND DUP2 JUMP JUMPDEST CALLVALUE DUP1 ISZERO PUSH2 0x461 JUMPI PUSH1 0x0 DUP1 REVERT JUMPDEST POP PUSH2 0x475 PUSH2 0x470 CALLDATASIZE PUSH1 0x4 PUSH2 0x1AE0 JUMP JUMPDEST PUSH2 0x1704 JUMP JUMPDEST PUSH1 0x40 MLOAD PUSH2 0x173 SWAP10 SWAP9 SWAP8 SWAP7 SWAP6 SWAP5 SWAP4 SWAP3 SWAP2 SWAP1 PUSH2 0x1C3C JUMP JUMPDEST PUSH2 0x492 PUSH2 0x17DE JUMP JUMPDEST PUSH1 0x0 DUP1 PUSH1 0x3 DUP6 DUP6 PUSH1 0x40 MLOAD PUSH2 0x4A7 SWAP3 SWAP2 SWAP1 PUSH2 0x1CA1 JUMP JUMPDEST SWAP1 DUP2 MSTORE PUSH1 0x40 DUP1 MLOAD SWAP2 DUP3 SWAP1 SUB PUSH1 0x20 SWAP1 DUP2 ADD DUP4 KECCAK256 SLOAD PUSH1 0x1 PUSH1 0x1 PUSH1 0xA0 SHL SUB AND PUSH1 0x0 DUP2 DUP2 MSTORE PUSH1 0x2 SWAP1 SWAP3 MSTORE SWAP1 DUP3 SWAP1 KECCAK256 PUSH2 0x120 DUP5 ADD SWAP1 SWAP3 MSTORE DUP2 SLOAD SWAP1 SWAP4 POP SWAP1 SWAP2 DUP4 SWAP2 DUP4 SWAP1 DUP3 SWAP1 DUP3 SWAP1 PUSH2 0x4F1 SWAP1 PUSH2 0x1CB1 JUMP JUMPDEST DUP1 PUSH1 0x1F ADD PUSH1 0x20 DUP1 SWAP2 DIV MUL PUSH1 0x20 ADD PUSH1 0x40 MLOAD SWAP1 DUP2 ADD PUSH1 0x40 MSTORE DUP1 SWAP3 SWAP2 SWAP1 DUP2 DUP2 MSTORE PUSH1 0x20 ADD DUP3 DUP1 SLOAD PUSH2 0x51D SWAP1 PUSH2 0x1CB1 JUMP JUMPDEST DUP1 ISZERO PUSH2 0x56A JUMPI DUP1 PUSH1 0x1F LT PUSH2 0x53F JUMPI PUSH2 0x100 DUP1 DUP4 SLOAD DIV MUL DUP4 MSTORE SWAP2 PUSH1 0x20 ADD SWAP2 PUSH2 0x56A JUMP JUMPDEST DUP3 ADD SWAP2 SWAP1 PUSH1 0x0 MSTORE PUSH1 0x20 PUSH1 0x0 KECCAK256 SWAP1 JUMPDEST DUP2 SLOAD DUP2 MSTORE SWAP1 PUSH1 0x1 ADD SWAP1 PUSH1 0x20 ADD DUP1 DUP4 GT PUSH2 0x54D JUMPI DUP3 SWAP1 SUB PUSH1 0x1F AND DUP3 ADD SWAP2 JUMPDEST POP POP POP SWAP2 DUP4 MSTORE POP POP PUSH1 0x1 DUP3 ADD SLOAD PUSH1 0x20 DUP3 ADD MSTORE PUSH1 0x2 DUP1 DUP4 ADD SLOAD PUSH1 0x40 SWAP1 SWAP3 ADD SWAP2 PUSH1 0xFF AND SWAP1 DUP2 GT ISZERO PUSH2 0x59B JUMPI PUSH2 0x59B PUSH2 0x18F7 JUMP JUMPDEST PUSH1 0x2 DUP2 GT ISZERO PUSH2 0x5AC JUMPI PUSH2 0x5AC PUSH2 0x18F7 JUMP JUMPDEST DUP2 MSTORE PUSH1 0x20 ADD PUSH1 0x2 DUP3 ADD PUSH1 0x1 SWAP1 SLOAD SWAP1 PUSH2 0x100 EXP SWAP1 DIV PUSH1 0xFF AND PUSH1 0x4 DUP2 GT ISZERO PUSH2 0x5D4 JUMPI PUSH2 0x5D4 PUSH2 0x18F7 JUMP JUMPDEST PUSH1 0x4 DUP2 GT ISZERO PUSH2 0x5E5 JUMPI PUSH2 0x5E5 PUSH2 0x18F7 JUMP JUMPDEST DUP2 MSTORE PUSH1 0x3 DUP3 ADD SLOAD PUSH1 0x20 DUP3 ADD MSTORE PUSH1 0x4 DUP3 ADD SLOAD PUSH1 0x40 DUP3 ADD MSTORE PUSH1 0x5 DUP3 ADD SLOAD PUSH1 0x60 DUP3 ADD MSTORE PUSH1 0x6 DUP3 ADD SLOAD PUSH1 0x80 DUP3 ADD MSTORE PUSH1 0x7 SWAP1 SWAP2 ADD SLOAD PUSH1 0xFF AND ISZERO ISZERO PUSH1 0xA0 SWAP1 SWAP2 ADD MSTORE SWAP5 POP SWAP3 POP POP POP JUMPDEST SWAP3 POP SWAP3 SWAP1 POP JUMP JUMPDEST PUSH1 0x5 DUP2 DUP2 SLOAD DUP2 LT PUSH2 0x63E JUMPI PUSH1 0x0 DUP1 REVERT JUMPDEST PUSH1 0x0 SWAP2 DUP3 MSTORE PUSH1 0x20 SWAP1 SWAP2 KECCAK256 ADD SLOAD PUSH1 0x1 PUSH1 0x1 PUSH1 0xA0 SHL SUB AND SWAP1 POP DUP2 JUMP JUMPDEST PUSH1 0x1 SLOAD PUSH1 0x1 PUSH1 0x1 PUSH1 0xA0 SHL SUB AND CALLER EQ PUSH2 0x68B JUMPI PUSH1 0x40 MLOAD PUSH3 0x461BCD PUSH1 0xE5 SHL DUP2 MSTORE PUSH1 0x4 ADD PUSH2 0x682 SWAP1 PUSH2 0x1CEB JUMP JUMPDEST PUSH1 0x40 MLOAD DUP1 SWAP2 SUB SWAP1 REVERT JUMPDEST PUSH1 0x1 PUSH1 0x1 PUSH1 0xA0 SHL SUB DUP2 AND PUSH1 0x0 SWAP1 DUP2 MSTORE PUSH1 0x2 PUSH1 0x20 MSTORE PUSH1 0x40 SWAP1 KECCAK256 PUSH1 0x7 ADD SLOAD PUSH1 0xFF AND ISZERO PUSH2 0x6DC JUMPI PUSH1 0x1 PUSH1 0x1 PUSH1 0xA0 SHL SUB DUP2 AND PUSH1 0x0 SWAP1 DUP2 MSTORE PUSH1 0x2 PUSH1 0x20 MSTORE PUSH1 0x40 DUP2 KECCAK256 PUSH1 0x3 ADD DUP1 SLOAD SWAP2 PUSH2 0x6D6 DUP4 PUSH2 0x1D0E JUMP JUMPDEST SWAP2 SWAP1 POP SSTORE POP JUMPDEST POP JUMP JUMPDEST PUSH1 0x1 SLOAD PUSH1 0x1 PUSH1 0x1 PUSH1 0xA0 SHL SUB AND CALLER EQ PUSH2 0x709 JUMPI PUSH1 0x40 MLOAD PUSH3 0x461BCD PUSH1 0xE5 SHL DUP2 MSTORE PUSH1 0x4 ADD PUSH2 0x682 SWAP1 PUSH2 0x1CEB JUMP JUMPDEST PUSH1 0x1 PUSH1 0x1 PUSH1 0xA0 SHL SUB DUP2 AND PUSH1 0x0 SWAP1 DUP2 MSTORE PUSH1 0x2 PUSH1 0x20 MSTORE PUSH1 0x40 SWAP1 KECCAK256 PUSH1 0x7 ADD SLOAD PUSH1 0xFF AND PUSH2 0x766 JUMPI PUSH1 0x40 MLOAD PUSH3 0x461BCD PUSH1 0xE5 SHL DUP2 MSTORE PUSH1 0x20 PUSH1 0x4 DUP3 ADD MSTORE PUSH1 0xF PUSH1 0x24 DUP3 ADD MSTORE PUSH15 0x1059D95B9D081B9BDD08199BDD5B99 PUSH1 0x8A SHL PUSH1 0x44 DUP3 ADD MSTORE PUSH1 0x64 ADD PUSH2 0x682 JUMP JUMPDEST PUSH1 0x1 PUSH1 0x1 PUSH1 0xA0 SHL SUB DUP2 AND PUSH1 0x0 SWAP1 DUP2 MSTORE PUSH1 0x2 PUSH1 0x20 MSTORE PUSH1 0x40 DUP2 KECCAK256 PUSH1 0x4 ADD DUP1 SLOAD SWAP2 PUSH2 0x78D DUP4 PUSH2 0x1D0E JUMP JUMPDEST SWAP1 SWAP2 SSTORE POP POP PUSH1 0x1 PUSH1 0x1 PUSH1 0xA0 SHL SUB DUP2 AND PUSH1 0x0 SWAP1 DUP2 MSTORE PUSH1 0x2 PUSH1 0x20 DUP2 SWAP1 MSTORE PUSH1 0x40 DUP3 KECCAK256 SWAP1 DUP2 ADD SLOAD PUSH1 0x4 SWAP1 SWAP2 ADD SLOAD PUSH2 0x100 SWAP1 SWAP2 DIV PUSH1 0xFF AND SWAP2 SWAP1 PUSH1 0x3 DUP2 LT PUSH2 0x7D2 JUMPI PUSH1 0x4 SWAP2 POP PUSH2 0x7E8 JUMP JUMPDEST PUSH1 0x1 DUP2 LT PUSH2 0x7E3 JUMPI PUSH1 0x2 SWAP2 POP PUSH2 0x7E8 JUMP JUMPDEST PUSH1 0x1 SWAP2 POP JUMPDEST DUP3 PUSH1 0x4 DUP2 GT ISZERO PUSH2 0x7FA JUMPI PUSH2 0x7FA PUSH2 0x18F7 JUMP JUMPDEST DUP3 PUSH1 0x4 DUP2 GT ISZERO PUSH2 0x80C JUMPI PUSH2 0x80C PUSH2 0x18F7 JUMP JUMPDEST EQ PUSH2 0x895 JUMPI PUSH1 0x1 PUSH1 0x1 PUSH1 0xA0 SHL SUB DUP5 AND PUSH1 0x0 SWAP1 DUP2 MSTORE PUSH1 0x2 PUSH1 0x20 DUP2 SWAP1 MSTORE PUSH1 0x40 SWAP1 SWAP2 KECCAK256 ADD DUP1 SLOAD DUP4 SWAP2 SWAP1 PUSH2 0xFF00 NOT AND PUSH2 0x100 DUP4 PUSH1 0x4 DUP2 GT ISZERO PUSH2 0x84C JUMPI PUSH2 0x84C PUSH2 0x18F7 JUMP JUMPDEST MUL OR SWAP1 SSTORE POP DUP4 PUSH1 0x1 PUSH1 0x1 PUSH1 0xA0 SHL SUB AND PUSH32 0x618B78A8918B9C4EA0BA1D536D95AA64EFB54925E7559EB0A38EB509E7A99F55 DUP5 DUP5 PUSH1 0x40 MLOAD PUSH2 0x88C SWAP3 SWAP2 SWAP1 PUSH2 0x1D35 JUMP JUMPDEST PUSH1 0x40 MLOAD DUP1 SWAP2 SUB SWAP1 LOG2 JUMPDEST DUP4 PUSH1 0x1 PUSH1 0x1 PUSH1 0xA0 SHL SUB AND PUSH32 0xFF39FE34C04DF0B5359E1AFD071A892D400968F9B8453F81931568F2C1C20082 DUP3 PUSH1 0x40 MLOAD PUSH2 0x8D0 SWAP2 DUP2 MSTORE PUSH1 0x20 ADD SWAP1 JUMP JUMPDEST PUSH1 0x40 MLOAD DUP1 SWAP2 SUB SWAP1 LOG2 POP POP POP POP JUMP JUMPDEST CALLER PUSH1 0x0 SWAP1 DUP2 MSTORE PUSH1 0x2 PUSH1 0x20 MSTORE PUSH1 0x40 SWAP1 KECCAK256 PUSH1 0x7 ADD SLOAD PUSH1 0xFF AND ISZERO PUSH2 0x936 JUMPI PUSH1 0x40 MLOAD PUSH3 0x461BCD PUSH1 0xE5 SHL DUP2 MSTORE PUSH1 0x20 PUSH1 0x4 DUP3 ADD MSTORE PUSH1 0x12 PUSH1 0x24 DUP3 ADD MSTORE PUSH18 0x105B1C9958591E481C9959DA5CDD195C9959 PUSH1 0x72 SHL PUSH1 0x44 DUP3 ADD MSTORE PUSH1 0x64 ADD PUSH2 0x682 JUMP JUMPDEST PUSH7 0x2386F26FC10000 CALLVALUE LT ISZERO PUSH2 0x982 JUMPI PUSH1 0x40 MLOAD PUSH3 0x461BCD PUSH1 0xE5 SHL DUP2 MSTORE PUSH1 0x20 PUSH1 0x4 DUP3 ADD MSTORE PUSH1 0x12 PUSH1 0x24 DUP3 ADD MSTORE PUSH18 0x496E73756666696369656E74207374616B65 PUSH1 0x70 SHL PUSH1 0x44 DUP3 ADD MSTORE PUSH1 0x64 ADD PUSH2 0x682 JUMP JUMPDEST DUP3 PUSH2 0x9C0 JUMPI PUSH1 0x40 MLOAD PUSH3 0x461BCD PUSH1 0xE5 SHL DUP2 MSTORE PUSH1 0x20 PUSH1 0x4 DUP3 ADD MSTORE PUSH1 0xE PUSH1 0x24 DUP3 ADD MSTORE PUSH14 0x456D70747920454E53206E616D65 PUSH1 0x90 SHL PUSH1 0x44 DUP3 ADD MSTORE PUSH1 0x64 ADD PUSH2 0x682 JUMP JUMPDEST PUSH1 0x0 PUSH1 0x1 PUSH1 0x1 PUSH1 0xA0 SHL SUB AND PUSH1 0x3 DUP6 DUP6 PUSH1 0x40 MLOAD PUSH2 0x9DD SWAP3 SWAP2 SWAP1 PUSH2 0x1CA1 JUMP JUMPDEST SWAP1 DUP2 MSTORE PUSH1 0x40 MLOAD SWAP1 DUP2 SWAP1 SUB PUSH1 0x20 ADD SWAP1 KECCAK256 SLOAD PUSH1 0x1 PUSH1 0x1 PUSH1 0xA0 SHL SUB AND EQ PUSH2 0xA34 JUMPI PUSH1 0x40 MLOAD PUSH3 0x461BCD PUSH1 0xE5 SHL DUP2 MSTORE PUSH1 0x20 PUSH1 0x4 DUP3 ADD MSTORE PUSH1 0xE PUSH1 0x24 DUP3 ADD MSTORE PUSH14 0x22A729903730B6B2903A30B5B2B7 PUSH1 0x91 SHL PUSH1 0x44 DUP3 ADD MSTORE PUSH1 0x64 ADD PUSH2 0x682 JUMP JUMPDEST PUSH1 0x0 DUP3 DUP2 MSTORE PUSH1 0x4 PUSH1 0x20 MSTORE PUSH1 0x40 SWAP1 KECCAK256 SLOAD PUSH1 0x1 PUSH1 0x1 PUSH1 0xA0 SHL SUB AND ISZERO PUSH2 0xA89 JUMPI PUSH1 0x40 MLOAD PUSH3 0x461BCD PUSH1 0xE5 SHL DUP2 MSTORE PUSH1 0x20 PUSH1 0x4 DUP3 ADD MSTORE PUSH1 0xD PUSH1 0x24 DUP3 ADD MSTORE PUSH13 0x20AC261035B2BC903A30B5B2B7 PUSH1 0x99 SHL PUSH1 0x44 DUP3 ADD MSTORE PUSH1 0x64 ADD PUSH2 0x682 JUMP JUMPDEST PUSH1 0x1 SLOAD PUSH1 0x1 PUSH1 0x1 PUSH1 0xA0 SHL SUB AND PUSH2 0xAD1 JUMPI PUSH1 0x40 MLOAD PUSH3 0x461BCD PUSH1 0xE5 SHL DUP2 MSTORE PUSH1 0x20 PUSH1 0x4 DUP3 ADD MSTORE PUSH1 0xD PUSH1 0x24 DUP3 ADD MSTORE PUSH13 0x15985D5B1D081B9BDD081CD95D PUSH1 0x9A SHL PUSH1 0x44 DUP3 ADD MSTORE PUSH1 0x64 ADD PUSH2 0x682 JUMP JUMPDEST PUSH1 0x40 MLOAD DUP1 PUSH2 0x120 ADD PUSH1 0x40 MSTORE DUP1 DUP6 DUP6 DUP1 DUP1 PUSH1 0x1F ADD PUSH1 0x20 DUP1 SWAP2 DIV MUL PUSH1 0x20 ADD PUSH1 0x40 MLOAD SWAP1 DUP2 ADD PUSH1 0x40 MSTORE DUP1 SWAP4 SWAP3 SWAP2 SWAP1 DUP2 DUP2 MSTORE PUSH1 0x20 ADD DUP4 DUP4 DUP1 DUP3 DUP5 CALLDATACOPY PUSH1 0x0 SWAP3 ADD SWAP2 SWAP1 SWAP2 MSTORE POP POP POP SWAP1 DUP3 MSTORE POP PUSH1 0x20 DUP2 ADD DUP5 SWAP1 MSTORE PUSH1 0x40 ADD DUP3 PUSH1 0x2 DUP2 GT ISZERO PUSH2 0xB32 JUMPI PUSH2 0xB32 PUSH2 0x18F7 JUMP JUMPDEST DUP2 MSTORE PUSH1 0x20 ADD PUSH1 0x1 DUP2 MSTORE PUSH1 0x0 PUSH1 0x20 DUP1 DUP4 ADD DUP3 SWAP1 MSTORE PUSH1 0x40 DUP1 DUP5 ADD DUP4 SWAP1 MSTORE PUSH1 0x60 DUP5 ADD DUP4 SWAP1 MSTORE TIMESTAMP PUSH1 0x80 DUP6 ADD MSTORE PUSH1 0x1 PUSH1 0xA0 SWAP1 SWAP5 ADD SWAP4 SWAP1 SWAP4 MSTORE CALLER DUP3 MSTORE PUSH1 0x2 SWAP1 MSTORE KECCAK256 DUP2 MLOAD DUP2 SWAP1 PUSH2 0xB7B SWAP1 DUP3 PUSH2 0x1D9F JUMP JUMPDEST POP PUSH1 0x20 DUP3 ADD MLOAD DUP2 PUSH1 0x1 ADD SSTORE PUSH1 0x40 DUP3 ADD MLOAD DUP2 PUSH1 0x2 ADD PUSH1 0x0 PUSH2 0x100 EXP DUP2 SLOAD DUP2 PUSH1 0xFF MUL NOT AND SWAP1 DUP4 PUSH1 0x2 DUP2 GT ISZERO PUSH2 0xBB0 JUMPI PUSH2 0xBB0 PUSH2 0x18F7 JUMP JUMPDEST MUL OR SWAP1 SSTORE POP PUSH1 0x60 DUP3 ADD MLOAD PUSH1 0x2 DUP3 ADD DUP1 SLOAD PUSH2 0xFF00 NOT AND PUSH2 0x100 DUP4 PUSH1 0x4 DUP2 GT ISZERO PUSH2 0xBDA JUMPI PUSH2 0xBDA PUSH2 0x18F7 JUMP JUMPDEST MUL OR SWAP1 SSTORE POP PUSH1 0x80 DUP3 ADD MLOAD DUP2 PUSH1 0x3 ADD SSTORE PUSH1 0xA0 DUP3 ADD MLOAD DUP2 PUSH1 0x4 ADD SSTORE PUSH1 0xC0 DUP3 ADD MLOAD DUP2 PUSH1 0x5 ADD SSTORE PUSH1 0xE0 DUP3 ADD MLOAD DUP2 PUSH1 0x6 ADD SSTORE PUSH2 0x100 DUP3 ADD MLOAD DUP2 PUSH1 0x7 ADD PUSH1 0x0 PUSH2 0x100 EXP DUP2 SLOAD DUP2 PUSH1 0xFF MUL NOT AND SWAP1 DUP4 ISZERO ISZERO MUL OR SWAP1 SSTORE POP SWAP1 POP POP CALLER PUSH1 0x3 DUP6 DUP6 PUSH1 0x40 MLOAD PUSH2 0xC3E SWAP3 SWAP2 SWAP1 PUSH2 0x1CA1 JUMP JUMPDEST SWAP1 DUP2 MSTORE PUSH1 0x40 DUP1 MLOAD PUSH1 0x20 SWAP3 DUP2 SWAP1 SUB DUP4 ADD DUP2 KECCAK256 DUP1 SLOAD PUSH1 0x1 PUSH1 0x1 PUSH1 0xA0 SHL SUB NOT SWAP1 DUP2 AND PUSH1 0x1 PUSH1 0x1 PUSH1 0xA0 SHL SUB SWAP7 DUP8 AND OR SWAP1 SWAP2 SSTORE PUSH1 0x0 DUP8 DUP2 MSTORE PUSH1 0x4 SWAP5 DUP6 SWAP1 MSTORE SWAP3 DUP4 KECCAK256 DUP1 SLOAD CALLER SWAP1 DUP4 AND DUP2 OR SWAP1 SWAP2 SSTORE PUSH1 0x5 DUP1 SLOAD PUSH1 0x1 DUP2 DUP2 ADD DUP4 SSTORE SWAP2 SWAP1 SWAP6 MSTORE PUSH32 0x36B6384B5ECA791C62761152D0C79BB0604C104A5FB6F4EB0703F3154BB3DB0 SWAP1 SWAP5 ADD DUP1 SLOAD SWAP1 SWAP3 AND DUP2 OR SWAP1 SWAP2 SSTORE SWAP2 SLOAD PUSH4 0xF340FA01 PUSH1 0xE0 SHL DUP3 MSTORE SWAP3 DUP2 ADD SWAP2 SWAP1 SWAP2 MSTORE SWAP2 AND SWAP1 PUSH4 0xF340FA01 SWAP1 CALLVALUE SWAP1 PUSH1 0x24 ADD PUSH1 0x0 PUSH1 0x40 MLOAD DUP1 DUP4 SUB DUP2 DUP6 DUP9 DUP1 EXTCODESIZE ISZERO DUP1 ISZERO PUSH2 0xCFC JUMPI PUSH1 0x0 DUP1 REVERT JUMPDEST POP GAS CALL ISZERO DUP1 ISZERO PUSH2 0xD10 JUMPI RETURNDATASIZE PUSH1 0x0 DUP1 RETURNDATACOPY RETURNDATASIZE PUSH1 0x0 REVERT JUMPDEST POP POP POP POP POP CALLER PUSH1 0x1 PUSH1 0x1 PUSH1 0xA0 SHL SUB AND PUSH32 0xCAF4744410BF6030B7336F90D0D79FAF0CDE9AA6DAD8920C16B387268AECF50 DUP6 DUP6 DUP6 DUP6 PUSH1 0x40 MLOAD PUSH2 0x8D0 SWAP5 SWAP4 SWAP3 SWAP2 SWAP1 PUSH2 0x1E5F JUMP JUMPDEST PUSH1 0x0 SLOAD PUSH1 0x1 PUSH1 0x1 PUSH1 0xA0 SHL SUB AND CALLER EQ PUSH2 0xD9A JUMPI PUSH1 0x40 MLOAD PUSH3 0x461BCD PUSH1 0xE5 SHL DUP2 MSTORE PUSH1 0x20 PUSH1 0x4 DUP3 ADD MSTORE PUSH1 0x9 PUSH1 0x24 DUP3 ADD MSTORE PUSH9 0x2737BA1037BBB732B9 PUSH1 0xB9 SHL PUSH1 0x44 DUP3 ADD MSTORE PUSH1 0x64 ADD PUSH2 0x682 JUMP JUMPDEST PUSH1 0x1 DUP1 SLOAD PUSH1 0x1 PUSH1 0x1 PUSH1 0xA0 SHL SUB NOT AND PUSH1 0x1 PUSH1 0x1 PUSH1 0xA0 SHL SUB DUP4 AND SWAP1 DUP2 OR SWAP1 SWAP2 SSTORE PUSH1 0x40 MLOAD SWAP1 DUP2 MSTORE PUSH32 0xE7AE49F883C825B05681B3E00E8BE6FDEA9ED2A8A45E4C6ECB9390FC44CCE615 SWAP1 PUSH1 0x20 ADD PUSH1 0x40 MLOAD DUP1 SWAP2 SUB SWAP1 LOG1 POP JUMP JUMPDEST PUSH1 0x60 PUSH1 0x5 DUP1 SLOAD DUP1 PUSH1 0x20 MUL PUSH1 0x20 ADD PUSH1 0x40 MLOAD SWAP1 DUP2 ADD PUSH1 0x40 MSTORE DUP1 SWAP3 SWAP2 SWAP1 DUP2 DUP2 MSTORE PUSH1 0x20 ADD DUP3 DUP1 SLOAD DUP1 ISZERO PUSH2 0xE46 JUMPI PUSH1 0x20 MUL DUP3 ADD SWAP2 SWAP1 PUSH1 0x0 MSTORE PUSH1 0x20 PUSH1 0x0 KECCAK256 SWAP1 JUMPDEST DUP2 SLOAD PUSH1 0x1 PUSH1 0x1 PUSH1 0xA0 SHL SUB AND DUP2 MSTORE PUSH1 0x1 SWAP1 SWAP2 ADD SWAP1 PUSH1 0x20 ADD DUP1 DUP4 GT PUSH2 0xE28 JUMPI JUMPDEST POP POP POP POP POP SWAP1 POP SWAP1 JUMP JUMPDEST PUSH2 0xE58 PUSH2 0x17DE JUMP JUMPDEST PUSH1 0x0 DUP3 DUP2 MSTORE PUSH1 0x4 PUSH1 0x20 SWAP1 DUP2 MSTORE PUSH1 0x40 DUP1 DUP4 KECCAK256 SLOAD PUSH1 0x1 PUSH1 0x1 PUSH1 0xA0 SHL SUB AND DUP1 DUP5 MSTORE PUSH1 0x2 SWAP1 SWAP3 MSTORE DUP1 DUP4 KECCAK256 DUP2 MLOAD PUSH2 0x120 DUP2 ADD SWAP1 SWAP3 MSTORE DUP1 SLOAD SWAP1 SWAP2 DUP4 SWAP2 DUP4 SWAP1 DUP3 SWAP1 DUP3 SWAP1 PUSH2 0xE9D SWAP1 PUSH2 0x1CB1 JUMP JUMPDEST DUP1 PUSH1 0x1F ADD PUSH1 0x20 DUP1 SWAP2 DIV MUL PUSH1 0x20 ADD PUSH1 0x40 MLOAD SWAP1 DUP2 ADD PUSH1 0x40 MSTORE DUP1 SWAP3 SWAP2 SWAP1 DUP2 DUP2 MSTORE PUSH1 0x20 ADD DUP3 DUP1 SLOAD PUSH2 0xEC9 SWAP1 PUSH2 0x1CB1 JUMP JUMPDEST DUP1 ISZERO PUSH2 0xF16 JUMPI DUP1 PUSH1 0x1F LT PUSH2 0xEEB JUMPI PUSH2 0x100 DUP1 DUP4 SLOAD DIV MUL DUP4 MSTORE SWAP2 PUSH1 0x20 ADD SWAP2 PUSH2 0xF16 JUMP JUMPDEST DUP3 ADD SWAP2 SWAP1 PUSH1 0x0 MSTORE PUSH1 0x20 PUSH1 0x0 KECCAK256 SWAP1 JUMPDEST DUP2 SLOAD DUP2 MSTORE SWAP1 PUSH1 0x1 ADD SWAP1 PUSH1 0x20 ADD DUP1 DUP4 GT PUSH2 0xEF9 JUMPI DUP3 SWAP1 SUB PUSH1 0x1F AND DUP3 ADD SWAP2 JUMPDEST POP POP POP SWAP2 DUP4 MSTORE POP POP PUSH1 0x1 DUP3 ADD SLOAD PUSH1 0x20 DUP3 ADD MSTORE PUSH1 0x2 DUP1 DUP4 ADD SLOAD PUSH1 0x40 SWAP1 SWAP3 ADD SWAP2 PUSH1 0xFF AND SWAP1 DUP2 GT ISZERO PUSH2 0xF47 JUMPI PUSH2 0xF47 PUSH2 0x18F7 JUMP JUMPDEST PUSH1 0x2 DUP2 GT ISZERO PUSH2 0xF58 JUMPI PUSH2 0xF58 PUSH2 0x18F7 JUMP JUMPDEST DUP2 MSTORE PUSH1 0x20 ADD PUSH1 0x2 DUP3 ADD PUSH1 0x1 SWAP1 SLOAD SWAP1 PUSH2 0x100 EXP SWAP1 DIV PUSH1 0xFF AND PUSH1 0x4 DUP2 GT ISZERO PUSH2 0xF80 JUMPI PUSH2 0xF80 PUSH2 0x18F7 JUMP JUMPDEST PUSH1 0x4 DUP2 GT ISZERO PUSH2 0xF91 JUMPI PUSH2 0xF91 PUSH2 0x18F7 JUMP JUMPDEST DUP2 MSTORE PUSH1 0x3 DUP3 ADD SLOAD PUSH1 0x20 DUP3 ADD MSTORE PUSH1 0x4 DUP3 ADD SLOAD PUSH1 0x40 DUP3 ADD MSTORE PUSH1 0x5 DUP3 ADD SLOAD PUSH1 0x60 DUP3 ADD MSTORE PUSH1 0x6 DUP3 ADD SLOAD PUSH1 0x80 DUP3 ADD MSTORE PUSH1 0x7 SWAP1 SWAP2 ADD SLOAD PUSH1 0xFF AND ISZERO ISZERO PUSH1 0xA0 SWAP1 SWAP2 ADD MSTORE SWAP7 SWAP1 SWAP6 POP SWAP4 POP POP POP POP JUMP JUMPDEST PUSH1 0x1 SLOAD PUSH1 0x1 PUSH1 0x1 PUSH1 0xA0 SHL SUB AND CALLER EQ PUSH2 0x1001 JUMPI PUSH1 0x40 MLOAD PUSH3 0x461BCD PUSH1 0xE5 SHL DUP2 MSTORE PUSH1 0x4 ADD PUSH2 0x682 SWAP1 PUSH2 0x1CEB JUMP JUMPDEST PUSH1 0x1 PUSH1 0x1 PUSH1 0xA0 SHL SUB DUP2 AND PUSH1 0x0 SWAP1 DUP2 MSTORE PUSH1 0x2 PUSH1 0x20 MSTORE PUSH1 0x40 SWAP1 KECCAK256 PUSH1 0x7 ADD SLOAD PUSH1 0xFF AND ISZERO PUSH2 0x6DC JUMPI PUSH1 0x1 PUSH1 0x1 PUSH1 0xA0 SHL SUB DUP2 AND PUSH1 0x0 SWAP1 DUP2 MSTORE PUSH1 0x2 PUSH1 0x20 MSTORE PUSH1 0x40 DUP2 KECCAK256 PUSH1 0x5 ADD DUP1 SLOAD SWAP2 PUSH2 0x6D6 DUP4 PUSH2 0x1D0E JUMP JUMPDEST PUSH1 0x1 PUSH1 0x1 PUSH1 0xA0 SHL SUB DUP2 AND PUSH1 0x0 SWAP1 DUP2 MSTORE PUSH1 0x2 PUSH1 0x20 MSTORE PUSH1 0x40 DUP2 KECCAK256 PUSH1 0x7 ADD SLOAD PUSH1 0xFF AND DUP1 ISZERO PUSH2 0x10AD JUMPI POP PUSH1 0x4 JUMPDEST PUSH1 0x1 PUSH1 0x1 PUSH1 0xA0 SHL SUB DUP4 AND PUSH1 0x0 SWAP1 DUP2 MSTORE PUSH1 0x2 PUSH1 0x20 DUP2 SWAP1 MSTORE PUSH1 0x40 SWAP1 SWAP2 KECCAK256 ADD SLOAD PUSH2 0x100 SWAP1 DIV PUSH1 0xFF AND PUSH1 0x4 DUP2 GT ISZERO PUSH2 0x10AB JUMPI PUSH2 0x10AB PUSH2 0x18F7 JUMP JUMPDEST EQ JUMPDEST SWAP3 SWAP2 POP POP JUMP JUMPDEST PUSH1 0x1 PUSH1 0x1 PUSH1 0xA0 SHL SUB DUP2 AND PUSH1 0x0 SWAP1 DUP2 MSTORE PUSH1 0x2 PUSH1 0x20 MSTORE PUSH1 0x40 DUP2 KECCAK256 PUSH1 0x7 ADD SLOAD PUSH1 0xFF AND DUP1 ISZERO PUSH2 0x10AD JUMPI POP PUSH1 0x1 PUSH2 0x1075 JUMP JUMPDEST PUSH1 0x0 SLOAD PUSH1 0x1 PUSH1 0x1 PUSH1 0xA0 SHL SUB AND CALLER EQ PUSH2 0x1126 JUMPI PUSH1 0x40 MLOAD PUSH3 0x461BCD PUSH1 0xE5 SHL DUP2 MSTORE PUSH1 0x20 PUSH1 0x4 DUP3 ADD MSTORE PUSH1 0x9 PUSH1 0x24 DUP3 ADD MSTORE PUSH9 0x2737BA1037BBB732B9 PUSH1 0xB9 SHL PUSH1 0x44 DUP3 ADD MSTORE PUSH1 0x64 ADD PUSH2 0x682 JUMP JUMPDEST PUSH1 0x1 PUSH1 0x1 PUSH1 0xA0 SHL SUB DUP6 AND PUSH1 0x0 SWAP1 DUP2 MSTORE PUSH1 0x2 PUSH1 0x20 MSTORE PUSH1 0x40 SWAP1 KECCAK256 PUSH1 0x7 ADD SLOAD PUSH1 0xFF AND ISZERO PUSH2 0x1187 JUMPI PUSH1 0x40 MLOAD PUSH3 0x461BCD PUSH1 0xE5 SHL DUP2 MSTORE PUSH1 0x20 PUSH1 0x4 DUP3 ADD MSTORE PUSH1 0x12 PUSH1 0x24 DUP3 ADD MSTORE PUSH18 0x105B1C9958591E481C9959DA5CDD195C9959 PUSH1 0x72 SHL PUSH1 0x44 DUP3 ADD MSTORE PUSH1 0x64 ADD PUSH2 0x682 JUMP JUMPDEST PUSH7 0x2386F26FC10000 CALLVALUE LT ISZERO PUSH2 0x11D3 JUMPI PUSH1 0x40 MLOAD PUSH3 0x461BCD PUSH1 0xE5 SHL DUP2 MSTORE PUSH1 0x20 PUSH1 0x4 DUP3 ADD MSTORE PUSH1 0x12 PUSH1 0x24 DUP3 ADD MSTORE PUSH18 0x496E73756666696369656E74207374616B65 PUSH1 0x70 SHL PUSH1 0x44 DUP3 ADD MSTORE PUSH1 0x64 ADD PUSH2 0x682 JUMP JUMPDEST DUP3 PUSH2 0x1211 JUMPI PUSH1 0x40 MLOAD PUSH3 0x461BCD PUSH1 0xE5 SHL DUP2 MSTORE PUSH1 0x20 PUSH1 0x4 DUP3 ADD MSTORE PUSH1 0xE PUSH1 0x24 DUP3 ADD MSTORE PUSH14 0x456D70747920454E53206E616D65 PUSH1 0x90 SHL PUSH1 0x44 DUP3 ADD MSTORE PUSH1 0x64 ADD PUSH2 0x682 JUMP JUMPDEST PUSH1 0x0 PUSH1 0x1 PUSH1 0x1 PUSH1 0xA0 SHL SUB AND PUSH1 0x3 DUP6 DUP6 PUSH1 0x40 MLOAD PUSH2 0x122E SWAP3 SWAP2 SWAP1 PUSH2 0x1CA1 JUMP JUMPDEST SWAP1 DUP2 MSTORE PUSH1 0x40 MLOAD SWAP1 DUP2 SWAP1 SUB PUSH1 0x20 ADD SWAP1 KECCAK256 SLOAD PUSH1 0x1 PUSH1 0x1 PUSH1 0xA0 SHL SUB AND EQ PUSH2 0x1285 JUMPI PUSH1 0x40 MLOAD PUSH3 0x461BCD PUSH1 0xE5 SHL DUP2 MSTORE PUSH1 0x20 PUSH1 0x4 DUP3 ADD MSTORE PUSH1 0xE PUSH1 0x24 DUP3 ADD MSTORE PUSH14 0x22A729903730B6B2903A30B5B2B7 PUSH1 0x91 SHL PUSH1 0x44 DUP3 ADD MSTORE PUSH1 0x64 ADD PUSH2 0x682 JUMP JUMPDEST PUSH1 0x1 SLOAD PUSH1 0x1 PUSH1 0x1 PUSH1 0xA0 SHL SUB AND PUSH2 0x12CD JUMPI PUSH1 0x40 MLOAD PUSH3 0x461BCD PUSH1 0xE5 SHL DUP2 MSTORE PUSH1 0x20 PUSH1 0x4 DUP3 ADD MSTORE PUSH1 0xD PUSH1 0x24 DUP3 ADD MSTORE PUSH13 0x15985D5B1D081B9BDD081CD95D PUSH1 0x9A SHL PUSH1 0x44 DUP3 ADD MSTORE PUSH1 0x64 ADD PUSH2 0x682 JUMP JUMPDEST PUSH1 0x40 MLOAD DUP1 PUSH2 0x120 ADD PUSH1 0x40 MSTORE DUP1 DUP6 DUP6 DUP1 DUP1 PUSH1 0x1F ADD PUSH1 0x20 DUP1 SWAP2 DIV MUL PUSH1 0x20 ADD PUSH1 0x40 MLOAD SWAP1 DUP2 ADD PUSH1 0x40 MSTORE DUP1 SWAP4 SWAP3 SWAP2 SWAP1 DUP2 DUP2 MSTORE PUSH1 0x20 ADD DUP4 DUP4 DUP1 DUP3 DUP5 CALLDATACOPY PUSH1 0x0 SWAP3 ADD SWAP2 SWAP1 SWAP2 MSTORE POP POP POP SWAP1 DUP3 MSTORE POP PUSH1 0x20 DUP2 ADD DUP5 SWAP1 MSTORE PUSH1 0x40 ADD DUP3 PUSH1 0x2 DUP2 GT ISZERO PUSH2 0x132E JUMPI PUSH2 0x132E PUSH2 0x18F7 JUMP JUMPDEST DUP2 MSTORE PUSH1 0x20 ADD PUSH1 0x1 DUP2 MSTORE PUSH1 0x0 PUSH1 0x20 DUP1 DUP4 ADD DUP3 SWAP1 MSTORE PUSH1 0x40 DUP1 DUP5 ADD DUP4 SWAP1 MSTORE PUSH1 0x60 DUP5 ADD DUP4 SWAP1 MSTORE TIMESTAMP PUSH1 0x80 DUP6 ADD MSTORE PUSH1 0x1 PUSH1 0xA0 SWAP1 SWAP5 ADD SWAP4 SWAP1 SWAP4 MSTORE PUSH1 0x1 PUSH1 0x1 PUSH1 0xA0 SHL SUB DUP10 AND DUP3 MSTORE PUSH1 0x2 SWAP1 MSTORE KECCAK256 DUP2 MLOAD DUP2 SWAP1 PUSH2 0x1380 SWAP1 DUP3 PUSH2 0x1D9F JUMP JUMPDEST POP PUSH1 0x20 DUP3 ADD MLOAD DUP2 PUSH1 0x1 ADD SSTORE PUSH1 0x40 DUP3 ADD MLOAD DUP2 PUSH1 0x2 ADD PUSH1 0x0 PUSH2 0x100 EXP DUP2 SLOAD DUP2 PUSH1 0xFF MUL NOT AND SWAP1 DUP4 PUSH1 0x2 DUP2 GT ISZERO PUSH2 0x13B5 JUMPI PUSH2 0x13B5 PUSH2 0x18F7 JUMP JUMPDEST MUL OR SWAP1 SSTORE POP PUSH1 0x60 DUP3 ADD MLOAD PUSH1 0x2 DUP3 ADD DUP1 SLOAD PUSH2 0xFF00 NOT AND PUSH2 0x100 DUP4 PUSH1 0x4 DUP2 GT ISZERO PUSH2 0x13DF JUMPI PUSH2 0x13DF PUSH2 0x18F7 JUMP JUMPDEST MUL OR SWAP1 SSTORE POP PUSH1 0x80 DUP3 ADD MLOAD DUP2 PUSH1 0x3 ADD SSTORE PUSH1 0xA0 DUP3 ADD MLOAD DUP2 PUSH1 0x4 ADD SSTORE PUSH1 0xC0 DUP3 ADD MLOAD DUP2 PUSH1 0x5 ADD SSTORE PUSH1 0xE0 DUP3 ADD MLOAD DUP2 PUSH1 0x6 ADD SSTORE PUSH2 0x100 DUP3 ADD MLOAD DUP2 PUSH1 0x7 ADD PUSH1 0x0 PUSH2 0x100 EXP DUP2 SLOAD DUP2 PUSH1 0xFF MUL NOT AND SWAP1 DUP4 ISZERO ISZERO MUL OR SWAP1 SSTORE POP SWAP1 POP POP DUP5 PUSH1 0x3 DUP6 DUP6 PUSH1 0x40 MLOAD PUSH2 0x1443 SWAP3 SWAP2 SWAP1 PUSH2 0x1CA1 JUMP JUMPDEST SWAP1 DUP2 MSTORE PUSH1 0x40 MLOAD SWAP1 DUP2 SWAP1 SUB PUSH1 0x20 ADD SWAP1 KECCAK256 DUP1 SLOAD PUSH1 0x1 PUSH1 0x1 PUSH1 0xA0 SHL SUB SWAP3 SWAP1 SWAP3 AND PUSH1 0x1 PUSH1 0x1 PUSH1 0xA0 SHL SUB NOT SWAP1 SWAP3 AND SWAP2 SWAP1 SWAP2 OR SWAP1 SSTORE DUP2 ISZERO PUSH2 0x14A0 JUMPI PUSH1 0x0 DUP3 DUP2 MSTORE PUSH1 0x4 PUSH1 0x20 MSTORE PUSH1 0x40 SWAP1 KECCAK256 DUP1 SLOAD PUSH1 0x1 PUSH1 0x1 PUSH1 0xA0 SHL SUB NOT AND PUSH1 0x1 PUSH1 0x1 PUSH1 0xA0 SHL SUB DUP8 AND OR SWAP1 SSTORE JUMPDEST PUSH1 0x5 DUP1 SLOAD PUSH1 0x1 DUP1 DUP3 ADD DUP4 SSTORE PUSH1 0x0 SWAP3 SWAP1 SWAP3 MSTORE PUSH32 0x36B6384B5ECA791C62761152D0C79BB0604C104A5FB6F4EB0703F3154BB3DB0 ADD DUP1 SLOAD PUSH1 0x1 PUSH1 0x1 PUSH1 0xA0 SHL SUB NOT AND PUSH1 0x1 PUSH1 0x1 PUSH1 0xA0 SHL SUB DUP9 DUP2 AND SWAP2 DUP3 OR SWAP1 SWAP3 SSTORE SWAP2 SLOAD PUSH1 0x40 MLOAD PUSH4 0xF340FA01 PUSH1 0xE0 SHL DUP2 MSTORE PUSH1 0x4 DUP2 ADD SWAP4 SWAP1 SWAP4 MSTORE AND SWAP1 PUSH4 0xF340FA01 SWAP1 CALLVALUE SWAP1 PUSH1 0x24 ADD PUSH1 0x0 PUSH1 0x40 MLOAD DUP1 DUP4 SUB DUP2 DUP6 DUP9 DUP1 EXTCODESIZE ISZERO DUP1 ISZERO PUSH2 0x152D JUMPI PUSH1 0x0 DUP1 REVERT JUMPDEST POP GAS CALL ISZERO DUP1 ISZERO PUSH2 0x1541 JUMPI RETURNDATASIZE PUSH1 0x0 DUP1 RETURNDATACOPY RETURNDATASIZE PUSH1 0x0 REVERT JUMPDEST POP POP POP POP POP DUP5 PUSH1 0x1 PUSH1 0x1 PUSH1 0xA0 SHL SUB AND PUSH32 0xCAF4744410BF6030B7336F90D0D79FAF0CDE9AA6DAD8920C16B387268AECF50 DUP6 DUP6 DUP6 DUP6 PUSH1 0x40 MLOAD PUSH2 0x1585 SWAP5 SWAP4 SWAP3 SWAP2 SWAP1 PUSH2 0x1E5F JUMP JUMPDEST PUSH1 0x40 MLOAD DUP1 SWAP2 SUB SWAP1 LOG2 POP POP POP POP POP JUMP JUMPDEST PUSH2 0x159C PUSH2 0x17DE JUMP JUMPDEST PUSH1 0x1 PUSH1 0x1 PUSH1 0xA0 SHL SUB DUP3 AND PUSH1 0x0 SWAP1 DUP2 MSTORE PUSH1 0x2 PUSH1 0x20 MSTORE PUSH1 0x40 SWAP1 DUP2 SWAP1 KECCAK256 DUP2 MLOAD PUSH2 0x120 DUP2 ADD SWAP1 SWAP3 MSTORE DUP1 SLOAD DUP3 SWAP1 DUP3 SWAP1 PUSH2 0x15CF SWAP1 PUSH2 0x1CB1 JUMP JUMPDEST DUP1 PUSH1 0x1F ADD PUSH1 0x20 DUP1 SWAP2 DIV MUL PUSH1 0x20 ADD PUSH1 0x40 MLOAD SWAP1 DUP2 ADD PUSH1 0x40 MSTORE DUP1 SWAP3 SWAP2 SWAP1 DUP2 DUP2 MSTORE PUSH1 0x20 ADD DUP3 DUP1 SLOAD PUSH2 0x15FB SWAP1 PUSH2 0x1CB1 JUMP JUMPDEST DUP1 ISZERO PUSH2 0x1648 JUMPI DUP1 PUSH1 0x1F LT PUSH2 0x161D JUMPI PUSH2 0x100 DUP1 DUP4 SLOAD DIV MUL DUP4 MSTORE SWAP2 PUSH1 0x20 ADD SWAP2 PUSH2 0x1648 JUMP JUMPDEST DUP3 ADD SWAP2 SWAP1 PUSH1 0x0 MSTORE PUSH1 0x20 PUSH1 0x0 KECCAK256 SWAP1 JUMPDEST DUP2 SLOAD DUP2 MSTORE SWAP1 PUSH1 0x1 ADD SWAP1 PUSH1 0x20 ADD DUP1 DUP4 GT PUSH2 0x162B JUMPI DUP3 SWAP1 SUB PUSH1 0x1F AND DUP3 ADD SWAP2 JUMPDEST POP POP POP SWAP2 DUP4 MSTORE POP POP PUSH1 0x1 DUP3 ADD SLOAD PUSH1 0x20 DUP3 ADD MSTORE PUSH1 0x2 DUP1 DUP4 ADD SLOAD PUSH1 0x40 SWAP1 SWAP3 ADD SWAP2 PUSH1 0xFF AND SWAP1 DUP2 GT ISZERO PUSH2 0x1679 JUMPI PUSH2 0x1679 PUSH2 0x18F7 JUMP JUMPDEST PUSH1 0x2 DUP2 GT ISZERO PUSH2 0x168A JUMPI PUSH2 0x168A PUSH2 0x18F7 JUMP JUMPDEST DUP2 MSTORE PUSH1 0x20 ADD PUSH1 0x2 DUP3 ADD PUSH1 0x1 SWAP1 SLOAD SWAP1 PUSH2 0x100 EXP SWAP1 DIV PUSH1 0xFF AND PUSH1 0x4 DUP2 GT ISZERO PUSH2 0x16B2 JUMPI PUSH2 0x16B2 PUSH2 0x18F7 JUMP JUMPDEST PUSH1 0x4 DUP2 GT ISZERO PUSH2 0x16C3 JUMPI PUSH2 0x16C3 PUSH2 0x18F7 JUMP JUMPDEST DUP2 MSTORE PUSH1 0x3 DUP3 ADD SLOAD PUSH1 0x20 DUP3 ADD MSTORE PUSH1 0x4 DUP3 ADD SLOAD PUSH1 0x40 DUP3 ADD MSTORE PUSH1 0x5 DUP3 ADD SLOAD PUSH1 0x60 DUP3 ADD MSTORE PUSH1 0x6 DUP3 ADD SLOAD PUSH1 0x80 DUP3 ADD MSTORE PUSH1 0x7 SWAP1 SWAP2 ADD SLOAD PUSH1 0xFF AND ISZERO ISZERO PUSH1 0xA0 SWAP1 SWAP2 ADD MSTORE SWAP3 SWAP2 POP POP JUMP JUMPDEST PUSH1 0x2 PUSH1 0x20 MSTORE PUSH1 0x0 SWAP1 DUP2 MSTORE PUSH1 0x40 SWAP1 KECCAK256 DUP1 SLOAD DUP2 SWAP1 PUSH2 0x171F SWAP1 PUSH2 0x1CB1 JUMP JUMPDEST DUP1 PUSH1 0x1F ADD PUSH1 0x20 DUP1 SWAP2 DIV MUL PUSH1 0x20 ADD PUSH1 0x40 MLOAD SWAP1 DUP2 ADD PUSH1 0x40 MSTORE DUP1 SWAP3 SWAP2 SWAP1 DUP2 DUP2 MSTORE PUSH1 0x20 ADD DUP3 DUP1 SLOAD PUSH2 0x174B SWAP1 PUSH2 0x1CB1 JUMP JUMPDEST DUP1 ISZERO PUSH2 0x1798 JUMPI DUP1 PUSH1 0x1F LT PUSH2 0x176D JUMPI PUSH2 0x100 DUP1 DUP4 SLOAD DIV MUL DUP4 MSTORE SWAP2 PUSH1 0x20 ADD SWAP2 PUSH2 0x1798 JUMP JUMPDEST DUP3 ADD SWAP2 SWAP1 PUSH1 0x0 MSTORE PUSH1 0x20 PUSH1 0x0 KECCAK256 SWAP1 JUMPDEST DUP2 SLOAD DUP2 MSTORE SWAP1 PUSH1 0x1 ADD SWAP1 PUSH1 0x20 ADD DUP1 DUP4 GT PUSH2 0x177B JUMPI DUP3 SWAP1 SUB PUSH1 0x1F AND DUP3 ADD SWAP2 JUMPDEST POP POP POP PUSH1 0x1 DUP5 ADD SLOAD PUSH1 0x2 DUP6 ADD SLOAD PUSH1 0x3 DUP7 ADD SLOAD PUSH1 0x4 DUP8 ADD SLOAD PUSH1 0x5 DUP9 ADD SLOAD PUSH1 0x6 DUP10 ADD SLOAD PUSH1 0x7 SWAP1 SWAP10 ADD SLOAD SWAP8 SWAP9 SWAP5 SWAP8 PUSH1 0xFF DUP1 DUP7 AND SWAP9 POP PUSH2 0x100 SWAP1 SWAP6 DIV DUP6 AND SWAP7 POP SWAP3 SWAP5 SWAP2 SWAP4 SWAP1 SWAP3 AND DUP10 JUMP JUMPDEST PUSH1 0x40 DUP1 MLOAD PUSH2 0x120 DUP2 ADD DUP3 MSTORE PUSH1 0x60 DUP2 MSTORE PUSH1 0x0 PUSH1 0x20 DUP3 ADD DUP2 SWAP1 MSTORE SWAP1 SWAP2 DUP3 ADD SWAP1 DUP2 MSTORE PUSH1 0x20 ADD PUSH1 0x0 DUP2 MSTORE PUSH1 0x20 ADD PUSH1 0x0 DUP2 MSTORE PUSH1 0x20 ADD PUSH1 0x0 DUP2 MSTORE PUSH1 0x20 ADD PUSH1 0x0 DUP2 MSTORE PUSH1 0x20 ADD PUSH1 0x0 DUP2 MSTORE PUSH1 0x20 ADD PUSH1 0x0 ISZERO ISZERO DUP2 MSTORE POP SWAP1 JUMP JUMPDEST PUSH1 0x0 DUP1 DUP4 PUSH1 0x1F DUP5 ADD SLT PUSH2 0x183F JUMPI PUSH1 0x0 DUP1 REVERT JUMPDEST POP DUP2 CALLDATALOAD PUSH8 0xFFFFFFFFFFFFFFFF DUP2 GT ISZERO PUSH2 0x1857 JUMPI PUSH1 0x0 DUP1 REVERT JUMPDEST PUSH1 0x20 DUP4 ADD SWAP2 POP DUP4 PUSH1 0x20 DUP3 DUP6 ADD ADD GT ISZERO PUSH2 0x627 JUMPI PUSH1 0x0 DUP1 REVERT JUMPDEST PUSH1 0x0 DUP1 PUSH1 0x20 DUP4 DUP6 SUB SLT ISZERO PUSH2 0x1882 JUMPI PUSH1 0x0 DUP1 REVERT JUMPDEST DUP3 CALLDATALOAD PUSH8 0xFFFFFFFFFFFFFFFF DUP2 GT ISZERO PUSH2 0x1899 JUMPI PUSH1 0x0 DUP1 REVERT JUMPDEST PUSH2 0x18A5 DUP6 DUP3 DUP7 ADD PUSH2 0x182D JUMP JUMPDEST SWAP1 SWAP7 SWAP1 SWAP6 POP SWAP4 POP POP POP POP JUMP JUMPDEST PUSH1 0x0 DUP2 MLOAD DUP1 DUP5 MSTORE PUSH1 0x0 JUMPDEST DUP2 DUP2 LT ISZERO PUSH2 0x18D7 JUMPI PUSH1 0x20 DUP2 DUP6 ADD DUP2 ADD MLOAD DUP7 DUP4 ADD DUP3 ADD MSTORE ADD PUSH2 0x18BB JUMP JUMPDEST POP PUSH1 0x0 PUSH1 0x20 DUP3 DUP7 ADD ADD MSTORE PUSH1 0x20 PUSH1 0x1F NOT PUSH1 0x1F DUP4 ADD AND DUP6 ADD ADD SWAP2 POP POP SWAP3 SWAP2 POP POP JUMP JUMPDEST PUSH4 0x4E487B71 PUSH1 0xE0 SHL PUSH1 0x0 MSTORE PUSH1 0x21 PUSH1 0x4 MSTORE PUSH1 0x24 PUSH1 0x0 REVERT JUMPDEST PUSH1 0x3 DUP2 LT PUSH2 0x191D JUMPI PUSH2 0x191D PUSH2 0x18F7 JUMP JUMPDEST SWAP1 MSTORE JUMP JUMPDEST PUSH1 0x5 DUP2 LT PUSH2 0x191D JUMPI PUSH2 0x191D PUSH2 0x18F7 JUMP JUMPDEST PUSH1 0x0 PUSH2 0x120 DUP3 MLOAD DUP2 DUP6 MSTORE PUSH2 0x1947 DUP3 DUP7 ADD DUP3 PUSH2 0x18B1 JUMP JUMPDEST SWAP2 POP POP PUSH1 0x20 DUP4 ADD MLOAD PUSH1 0x20 DUP6 ADD MSTORE PUSH1 0x40 DUP4 ADD MLOAD PUSH2 0x1966 PUSH1 0x40 DUP7 ADD DUP3 PUSH2 0x190D JUMP JUMPDEST POP PUSH1 0x60 DUP4 ADD MLOAD PUSH2 0x1979 PUSH1 0x60 DUP7 ADD DUP3 PUSH2 0x1921 JUMP JUMPDEST POP PUSH1 0x80 DUP4 ADD MLOAD PUSH1 0x80 DUP6 ADD MSTORE PUSH1 0xA0 DUP4 ADD MLOAD PUSH1 0xA0 DUP6 ADD MSTORE PUSH1 0xC0 DUP4 ADD MLOAD PUSH1 0xC0 DUP6 ADD MSTORE PUSH1 0xE0 DUP4 ADD MLOAD PUSH1 0xE0 DUP6 ADD MSTORE PUSH2 0x100 DUP1 DUP5 ADD MLOAD ISZERO ISZERO DUP2 DUP7 ADD MSTORE POP DUP1 SWAP2 POP POP SWAP3 SWAP2 POP POP JUMP JUMPDEST PUSH1 0x40 DUP2 MSTORE PUSH1 0x0 PUSH2 0x19CD PUSH1 0x40 DUP4 ADD DUP6 PUSH2 0x1931 JUMP JUMPDEST SWAP1 POP PUSH1 0x1 DUP1 PUSH1 0xA0 SHL SUB DUP4 AND PUSH1 0x20 DUP4 ADD MSTORE SWAP4 SWAP3 POP POP POP JUMP JUMPDEST PUSH1 0x0 PUSH1 0x20 DUP3 DUP5 SUB SLT ISZERO PUSH2 0x19F6 JUMPI PUSH1 0x0 DUP1 REVERT JUMPDEST POP CALLDATALOAD SWAP2 SWAP1 POP JUMP JUMPDEST PUSH4 0x4E487B71 PUSH1 0xE0 SHL PUSH1 0x0 MSTORE PUSH1 0x41 PUSH1 0x4 MSTORE PUSH1 0x24 PUSH1 0x0 REVERT JUMPDEST PUSH1 0x0 PUSH1 0x20 DUP3 DUP5 SUB SLT ISZERO PUSH2 0x1A25 JUMPI PUSH1 0x0 DUP1 REVERT JUMPDEST DUP2 CALLDATALOAD PUSH8 0xFFFFFFFFFFFFFFFF DUP1 DUP3 GT ISZERO PUSH2 0x1A3D JUMPI PUSH1 0x0 DUP1 REVERT JUMPDEST DUP2 DUP5 ADD SWAP2 POP DUP5 PUSH1 0x1F DUP4 ADD SLT PUSH2 0x1A51 JUMPI PUSH1 0x0 DUP1 REVERT JUMPDEST DUP2 CALLDATALOAD DUP2 DUP2 GT ISZERO PUSH2 0x1A63 JUMPI PUSH2 0x1A63 PUSH2 0x19FD JUMP JUMPDEST PUSH1 0x40 MLOAD PUSH1 0x1F DUP3 ADD PUSH1 0x1F NOT SWAP1 DUP2 AND PUSH1 0x3F ADD AND DUP2 ADD SWAP1 DUP4 DUP3 GT DUP2 DUP4 LT OR ISZERO PUSH2 0x1A8B JUMPI PUSH2 0x1A8B PUSH2 0x19FD JUMP JUMPDEST DUP2 PUSH1 0x40 MSTORE DUP3 DUP2 MSTORE DUP8 PUSH1 0x20 DUP5 DUP8 ADD ADD GT ISZERO PUSH2 0x1AA4 JUMPI PUSH1 0x0 DUP1 REVERT JUMPDEST DUP3 PUSH1 0x20 DUP7 ADD PUSH1 0x20 DUP4 ADD CALLDATACOPY PUSH1 0x0 SWAP3 DUP2 ADD PUSH1 0x20 ADD SWAP3 SWAP1 SWAP3 MSTORE POP SWAP6 SWAP5 POP POP POP POP POP JUMP JUMPDEST DUP1 CALLDATALOAD PUSH1 0x1 PUSH1 0x1 PUSH1 0xA0 SHL SUB DUP2 AND DUP2 EQ PUSH2 0x1ADB JUMPI PUSH1 0x0 DUP1 REVERT JUMPDEST SWAP2 SWAP1 POP JUMP JUMPDEST PUSH1 0x0 PUSH1 0x20 DUP3 DUP5 SUB SLT ISZERO PUSH2 0x1AF2 JUMPI PUSH1 0x0 DUP1 REVERT JUMPDEST PUSH2 0x1AFB DUP3 PUSH2 0x1AC4 JUMP JUMPDEST SWAP4 SWAP3 POP POP POP JUMP JUMPDEST DUP1 CALLDATALOAD PUSH1 0x3 DUP2 LT PUSH2 0x1ADB JUMPI PUSH1 0x0 DUP1 REVERT JUMPDEST PUSH1 0x0 DUP1 PUSH1 0x0 DUP1 PUSH1 0x60 DUP6 DUP8 SUB SLT ISZERO PUSH2 0x1B27 JUMPI PUSH1 0x0 DUP1 REVERT JUMPDEST DUP5 CALLDATALOAD PUSH8 0xFFFFFFFFFFFFFFFF DUP2 GT ISZERO PUSH2 0x1B3E JUMPI PUSH1 0x0 DUP1 REVERT JUMPDEST PUSH2 0x1B4A DUP8 DUP3 DUP9 ADD PUSH2 0x182D JUMP JUMPDEST SWAP1 SWAP6 POP SWAP4 POP POP PUSH1 0x20 DUP6 ADD CALLDATALOAD SWAP2 POP PUSH2 0x1B63 PUSH1 0x40 DUP7 ADD PUSH2 0x1B02 JUMP JUMPDEST SWAP1 POP SWAP3 SWAP6 SWAP2 SWAP5 POP SWAP3 POP JUMP JUMPDEST PUSH1 0x20 DUP1 DUP3 MSTORE DUP3 MLOAD DUP3 DUP3 ADD DUP2 SWAP1 MSTORE PUSH1 0x0 SWAP2 SWAP1 DUP5 DUP3 ADD SWAP1 PUSH1 0x40 DUP6 ADD SWAP1 DUP5 JUMPDEST DUP2 DUP2 LT ISZERO PUSH2 0x1BAF JUMPI DUP4 MLOAD PUSH1 0x1 PUSH1 0x1 PUSH1 0xA0 SHL SUB AND DUP4 MSTORE SWAP3 DUP5 ADD SWAP3 SWAP2 DUP5 ADD SWAP2 PUSH1 0x1 ADD PUSH2 0x1B8A JUMP JUMPDEST POP SWAP1 SWAP7 SWAP6 POP POP POP POP POP POP JUMP JUMPDEST PUSH1 0x0 DUP1 PUSH1 0x0 DUP1 PUSH1 0x0 PUSH1 0x80 DUP7 DUP9 SUB SLT ISZERO PUSH2 0x1BD3 JUMPI PUSH1 0x0 DUP1 REVERT JUMPDEST PUSH2 0x1BDC DUP7 PUSH2 0x1AC4 JUMP JUMPDEST SWAP5 POP PUSH1 0x20 DUP7 ADD CALLDATALOAD PUSH8 0xFFFFFFFFFFFFFFFF DUP2 GT ISZERO PUSH2 0x1BF8 JUMPI PUSH1 0x0 DUP1 REVERT JUMPDEST PUSH2 0x1C04 DUP9 DUP3 DUP10 ADD PUSH2 0x182D JUMP JUMPDEST SWAP1 SWAP6 POP SWAP4 POP POP PUSH1 0x40 DUP7 ADD CALLDATALOAD SWAP2 POP PUSH2 0x1C1D PUSH1 0x60 DUP8 ADD PUSH2 0x1B02 JUMP JUMPDEST SWAP1 POP SWAP3 SWAP6 POP SWAP3 SWAP6 SWAP1 SWAP4 POP JUMP JUMPDEST PUSH1 0x20 DUP2 MSTORE PUSH1 0x0 PUSH2 0x1AFB PUSH1 0x20 DUP4 ADD DUP5 PUSH2 0x1931 JUMP JUMPDEST PUSH1 0x0 PUSH2 0x120 DUP1 DUP4 MSTORE PUSH2 0x1C50 DUP2 DUP5 ADD DUP14 PUSH2 0x18B1 JUMP JUMPDEST SWAP2 POP POP DUP10 PUSH1 0x20 DUP4 ADD MSTORE PUSH2 0x1C66 PUSH1 0x40 DUP4 ADD DUP11 PUSH2 0x190D JUMP JUMPDEST PUSH2 0x1C73 PUSH1 0x60 DUP4 ADD DUP10 PUSH2 0x1921 JUMP JUMPDEST PUSH1 0x80 DUP3 ADD SWAP7 SWAP1 SWAP7 MSTORE PUSH1 0xA0 DUP2 ADD SWAP5 SWAP1 SWAP5 MSTORE PUSH1 0xC0 DUP5 ADD SWAP3 SWAP1 SWAP3 MSTORE PUSH1 0xE0 DUP4 ADD MSTORE ISZERO ISZERO PUSH2 0x100 SWAP1 SWAP2 ADD MSTORE SWAP5 SWAP4 POP POP POP POP JUMP JUMPDEST DUP2 DUP4 DUP3 CALLDATACOPY PUSH1 0x0 SWAP2 ADD SWAP1 DUP2 MSTORE SWAP2 SWAP1 POP JUMP JUMPDEST PUSH1 0x1 DUP2 DUP2 SHR SWAP1 DUP3 AND DUP1 PUSH2 0x1CC5 JUMPI PUSH1 0x7F DUP3 AND SWAP2 POP JUMPDEST PUSH1 0x20 DUP3 LT DUP2 SUB PUSH2 0x1CE5 JUMPI PUSH4 0x4E487B71 PUSH1 0xE0 SHL PUSH1 0x0 MSTORE PUSH1 0x22 PUSH1 0x4 MSTORE PUSH1 0x24 PUSH1 0x0 REVERT JUMPDEST POP SWAP2 SWAP1 POP JUMP JUMPDEST PUSH1 0x20 DUP1 DUP3 MSTORE PUSH1 0x9 SWAP1 DUP3 ADD MSTORE PUSH9 0x139BDD081D985D5B1D PUSH1 0xBA SHL PUSH1 0x40 DUP3 ADD MSTORE PUSH1 0x60 ADD SWAP1 JUMP JUMPDEST PUSH1 0x0 PUSH1 0x1 DUP3 ADD PUSH2 0x1D2E JUMPI PUSH4 0x4E487B71 PUSH1 0xE0 SHL PUSH1 0x0 MSTORE PUSH1 0x11 PUSH1 0x4 MSTORE PUSH1 0x24 PUSH1 0x0 REVERT JUMPDEST POP PUSH1 0x1 ADD SWAP1 JUMP JUMPDEST PUSH1 0x40 DUP2 ADD PUSH2 0x1D43 DUP3 DUP6 PUSH2 0x1921 JUMP JUMPDEST PUSH2 0x1AFB PUSH1 0x20 DUP4 ADD DUP5 PUSH2 0x1921 JUMP JUMPDEST PUSH1 0x1F DUP3 GT ISZERO PUSH2 0x1D9A JUMPI PUSH1 0x0 DUP2 DUP2 MSTORE PUSH1 0x20 DUP2 KECCAK256 PUSH1 0x1F DUP6 ADD PUSH1 0x5 SHR DUP2 ADD PUSH1 0x20 DUP7 LT ISZERO PUSH2 0x1D77 JUMPI POP DUP1 JUMPDEST PUSH1 0x1F DUP6 ADD PUSH1 0x5 SHR DUP3 ADD SWAP2 POP JUMPDEST DUP2 DUP2 LT ISZERO PUSH2 0x1D96 JUMPI DUP3 DUP2 SSTORE PUSH1 0x1 ADD PUSH2 0x1D83 JUMP JUMPDEST POP POP POP JUMPDEST POP POP POP JUMP JUMPDEST DUP2 MLOAD PUSH8 0xFFFFFFFFFFFFFFFF DUP2 GT ISZERO PUSH2 0x1DB9 JUMPI PUSH2 0x1DB9 PUSH2 0x19FD JUMP JUMPDEST PUSH2 0x1DCD DUP2 PUSH2 0x1DC7 DUP5 SLOAD PUSH2 0x1CB1 JUMP JUMPDEST DUP5 PUSH2 0x1D50 JUMP JUMPDEST PUSH1 0x20 DUP1 PUSH1 0x1F DUP4 GT PUSH1 0x1 DUP2 EQ PUSH2 0x1E02 JUMPI PUSH1 0x0 DUP5 ISZERO PUSH2 0x1DEA JUMPI POP DUP6 DUP4 ADD MLOAD JUMPDEST PUSH1 0x0 NOT PUSH1 0x3 DUP7 SWAP1 SHL SHR NOT AND PUSH1 0x1 DUP6 SWAP1 SHL OR DUP6 SSTORE PUSH2 0x1D96 JUMP JUMPDEST PUSH1 0x0 DUP6 DUP2 MSTORE PUSH1 0x20 DUP2 KECCAK256 PUSH1 0x1F NOT DUP7 AND SWAP2 JUMPDEST DUP3 DUP2 LT ISZERO PUSH2 0x1E31 JUMPI DUP9 DUP7 ADD MLOAD DUP3 SSTORE SWAP5 DUP5 ADD SWAP5 PUSH1 0x1 SWAP1 SWAP2 ADD SWAP1 DUP5 ADD PUSH2 0x1E12 JUMP JUMPDEST POP DUP6 DUP3 LT ISZERO PUSH2 0x1E4F JUMPI DUP8 DUP6 ADD MLOAD PUSH1 0x0 NOT PUSH1 0x3 DUP9 SWAP1 SHL PUSH1 0xF8 AND SHR NOT AND DUP2 SSTORE JUMPDEST POP POP POP POP POP PUSH1 0x1 SWAP1 DUP2 SHL ADD SWAP1 SSTORE POP JUMP JUMPDEST PUSH1 0x60 DUP2 MSTORE DUP4 PUSH1 0x60 DUP3 ADD MSTORE DUP4 DUP6 PUSH1 0x80 DUP4 ADD CALLDATACOPY PUSH1 0x0 PUSH1 0x80 DUP6 DUP4 ADD ADD MSTORE PUSH1 0x0 PUSH1 0x80 PUSH1 0x1F NOT PUSH1 0x1F DUP8 ADD AND DUP4 ADD ADD SWAP1 POP DUP4 PUSH1 0x20 DUP4 ADD MSTORE PUSH2 0x1E9D PUSH1 0x40 DUP4 ADD DUP5 PUSH2 0x190D JUMP JUMPDEST SWAP6 SWAP5 POP POP POP POP POP JUMP INVALID LOG2 PUSH5 0x6970667358 0x22 SLT KECCAK256 0xD5 SUB SWAP10 DELEGATECALL DUP6 LOG2 PUSH15 0x4466FE43E1A959F247172FC6A31B70 CREATE2 SWAP4 COINBASE 0xCF 0x21 SWAP2 0xC8 CALLER 0x2E EQ PUSH5 0x736F6C6343 STOP ADDMOD EQ STOP CALLER "},"methodIdentifiers":{"BAN_THRESHOLD()":"df230361","MIN_STAKE()":"cb1c2b5c","SLASH_AMOUNT()":"37720606","WARN_THRESHOLD()":"5979cfe6","adminRegister(address,string,bytes32,uint8)":"b5885047","agentList(uint256)":"2f80c54f","agents(address)":"fd66091e","axlToAddress(bytes32)":"21db2687","ensToAddress(string)":"33097df6","getAgent(address)":"fb3551ff","getAgentByAXL(bytes32)":"8a325765","getAgentByENS(string)":"06bb23f6","getAgentCount()":"91cab63e","getAllAgents()":"860e4ac6","isActive(address)":"9f8a13d7","isBanned(address)":"97f735d5","owner()":"8da5cb5b","recordDetection(address)":"4bb43882","recordSlash(address)":"5309564c","recordVote(address)":"92c1ff44","register(string,bytes32,uint8)":"5b2d75fc","setVault(address)":"6817031b","vault()":"fbfa77cf"}}}}}