{
  "_format": "hh-sol-artifact-1",
  "contractName": "SYBILRegistry",
  "sourceName": "contracts/SYBILRegistry.sol",
  "abi": [
    {
      "inputs": [],
      "stateMutability": "nonpayable",
      "type": "constructor"
    },
    {
      "anonymous": false,
      "inputs": [
        {
          "indexed": true,
          "internalType": "address",
          "name": "agent",
          "type": "address"
        },
        {
          "indexed": false,
          "internalType": "string",
          "name": "ensName",
          "type": "string"
        },
        {
          "indexed": false,
          "internalType": "bytes32",
          "name": "axlPubKey",
          "type": "bytes32"
        },
        {
          "indexed": false,
          "internalType": "enum SYBILRegistry.AgentRole",
          "name": "role",
          "type": "uint8"
        }
      ],
      "name": "AgentRegistered",
      "type": "event"
    },
    {
      "anonymous": false,
      "inputs": [
        {
          "indexed": true,
          "internalType": "address",
          "name": "attacker",
          "type": "address"
        },
        {
          "indexed": false,
          "internalType": "uint256",
          "name": "totalSlashes",
          "type": "uint256"
        }
      ],
      "name": "AgentSlashRecorded",
      "type": "event"
    },
    {
      "anonymous": false,
      "inputs": [
        {
          "indexed": true,
          "internalType": "address",
          "name": "agent",
          "type": "address"
        },
        {
          "indexed": false,
          "internalType": "enum SYBILRegistry.AgentStatus",
          "name": "oldStatus",
          "type": "uint8"
        },
        {
          "indexed": false,
          "internalType": "enum SYBILRegistry.AgentStatus",
          "name": "newStatus",
          "type": "uint8"
        }
      ],
      "name": "AgentStatusChanged",
      "type": "event"
    },
    {
      "anonymous": false,
      "inputs": [
        {
          "indexed": false,
          "internalType": "address",
          "name": "vault",
          "type": "address"
        }
      ],
      "name": "VaultSet",
      "type": "event"
    },
    {
      "inputs": [],
      "name": "BAN_THRESHOLD",
      "outputs": [
        {
          "internalType": "uint256",
          "name": "",
          "type": "uint256"
        }
      ],
      "stateMutability": "view",
      "type": "function"
    },
    {
      "inputs": [],
      "name": "MIN_STAKE",
      "outputs": [
        {
          "internalType": "uint256",
          "name": "",
          "type": "uint256"
        }
      ],
      "stateMutability": "view",
      "type": "function"
    },
    {
      "inputs": [],
      "name": "SLASH_AMOUNT",
      "outputs": [
        {
          "internalType": "uint256",
          "name": "",
          "type": "uint256"
        }
      ],
      "stateMutability": "view",
      "type": "function"
    },
    {
      "inputs": [],
      "name": "WARN_THRESHOLD",
      "outputs": [
        {
          "internalType": "uint256",
          "name": "",
          "type": "uint256"
        }
      ],
      "stateMutability": "view",
      "type": "function"
    },
    {
      "inputs": [
        {
          "internalType": "uint256",
          "name": "",
          "type": "uint256"
        }
      ],
      "name": "agentList",
      "outputs": [
        {
          "internalType": "address",
          "name": "",
          "type": "address"
        }
      ],
      "stateMutability": "view",
      "type": "function"
    },
    {
      "inputs": [
        {
          "internalType": "address",
          "name": "",
          "type": "address"
        }
      ],
      "name": "agents",
      "outputs": [
        {
          "internalType": "string",
          "name": "ensName",
          "type": "string"
        },
        {
          "internalType": "bytes32",
          "name": "axlPubKey",
          "type": "bytes32"
        },
        {
          "internalType": "enum SYBILRegistry.AgentRole",
          "name": "role",
          "type": "uint8"
        },
        {
          "internalType": "enum SYBILRegistry.AgentStatus",
          "name": "status",
          "type": "uint8"
        },
        {
          "internalType": "uint256",
          "name": "attacksDetected",
          "type": "uint256"
        },
        {
          "internalType": "uint256",
          "name": "attacksLaunched",
          "type": "uint256"
        },
        {
          "internalType": "uint256",
          "name": "votesCast",
          "type": "uint256"
        },
        {
          "internalType": "uint256",
          "name": "registeredAt",
          "type": "uint256"
        },
        {
          "internalType": "bool",
          "name": "exists",
          "type": "bool"
        }
      ],
      "stateMutability": "view",
      "type": "function"
    },
    {
      "inputs": [
        {
          "internalType": "bytes32",
          "name": "",
          "type": "bytes32"
        }
      ],
      "name": "axlToAddress",
      "outputs": [
        {
          "internalType": "address",
          "name": "",
          "type": "address"
        }
      ],
      "stateMutability": "view",
      "type": "function"
    },
    {
      "inputs": [
        {
          "internalType": "string",
          "name": "",
          "type": "string"
        }
      ],
      "name": "ensToAddress",
      "outputs": [
        {
          "internalType": "address",
          "name": "",
          "type": "address"
        }
      ],
      "stateMutability": "view",
      "type": "function"
    },
    {
      "inputs": [
        {
          "internalType": "address",
          "name": "addr",
          "type": "address"
        }
      ],
      "name": "getAgent",
      "outputs": [
        {
          "components": [
            {
              "internalType": "string",
              "name": "ensName",
              "type": "string"
            },
            {
              "internalType": "bytes32",
              "name": "axlPubKey",
              "type": "bytes32"
            },
            {
              "internalType": "enum SYBILRegistry.AgentRole",
              "name": "role",
              "type": "uint8"
            },
            {
              "internalType": "enum SYBILRegistry.AgentStatus",
              "name": "status",
              "type": "uint8"
            },
            {
              "internalType": "uint256",
              "name": "attacksDetected",
              "type": "uint256"
            },
            {
              "internalType": "uint256",
              "name": "attacksLaunched",
              "type": "uint256"
            },
            {
              "internalType": "uint256",
              "name": "votesCast",
              "type": "uint256"
            },
            {
              "internalType": "uint256",
              "name": "registeredAt",
              "type": "uint256"
            },
            {
              "internalType": "bool",
              "name": "exists",
              "type": "bool"
            }
          ],
          "internalType": "struct SYBILRegistry.Agent",
          "name": "",
          "type": "tuple"
        }
      ],
      "stateMutability": "view",
      "type": "function"
    },
    {
      "inputs": [
        {
          "internalType": "bytes32",
          "name": "axlKey",
          "type": "bytes32"
        }
      ],
      "name": "getAgentByAXL",
      "outputs": [
        {
          "components": [
            {
              "internalType": "string",
              "name": "ensName",
              "type": "string"
            },
            {
              "internalType": "bytes32",
              "name": "axlPubKey",
              "type": "bytes32"
            },
            {
              "internalType": "enum SYBILRegistry.AgentRole",
              "name": "role",
              "type": "uint8"
            },
            {
              "internalType": "enum SYBILRegistry.AgentStatus",
              "name": "status",
              "type": "uint8"
            },
            {
              "internalType": "uint256",
              "name": "attacksDetected",
              "type": "uint256"
            },
            {
              "internalType": "uint256",
              "name": "attacksLaunched",
              "type": "uint256"
            },
            {
              "internalType": "uint256",
              "name": "votesCast",
              "type": "uint256"
            },
            {
              "internalType": "uint256",
              "name": "registeredAt",
              "type": "uint256"
            },
            {
              "internalType": "bool",
              "name": "exists",
              "type": "bool"
            }
          ],
          "internalType": "struct SYBILRegistry.Agent",
          "name": "",
          "type": "tuple"
        },
        {
          "internalType": "address",
          "name": "",
          "type": "address"
        }
      ],
      "stateMutability": "view",
      "type": "function"
    },
    {
      "inputs": [
        {
          "internalType": "string",
          "name": "ensName",
          "type": "string"
        }
      ],
      "name": "getAgentByENS",
      "outputs": [
        {
          "components": [
            {
              "internalType": "string",
              "name": "ensName",
              "type": "string"
            },
            {
              "internalType": "bytes32",
              "name": "axlPubKey",
              "type": "bytes32"
            },
            {
              "internalType": "enum SYBILRegistry.AgentRole",
              "name": "role",
              "type": "uint8"
            },
            {
              "internalType": "enum SYBILRegistry.AgentStatus",
              "name": "status",
              "type": "uint8"
            },
            {
              "internalType": "uint256",
              "name": "attacksDetected",
              "type": "uint256"
            },
            {
              "internalType": "uint256",
              "name": "attacksLaunched",
              "type": "uint256"
            },
            {
              "internalType": "uint256",
              "name": "votesCast",
              "type": "uint256"
            },
            {
              "internalType": "uint256",
              "name": "registeredAt",
              "type": "uint256"
            },
            {
              "internalType": "bool",
              "name": "exists",
              "type": "bool"
            }
          ],
          "internalType": "struct SYBILRegistry.Agent",
          "name": "",
          "type": "tuple"
        },
        {
          "internalType": "address",
          "name": "",
          "type": "address"
        }
      ],
      "stateMutability": "view",
      "type": "function"
    },
    {
      "inputs": [],
      "name": "getAgentCount",
      "outputs": [
        {
          "internalType": "uint256",
          "name": "",
          "type": "uint256"
        }
      ],
      "stateMutability": "view",
      "type": "function"
    },
    {
      "inputs": [],
      "name": "getAllAgents",
      "outputs": [
        {
          "internalType": "address[]",
          "name": "",
          "type": "address[]"
        }
      ],
      "stateMutability": "view",
      "type": "function"
    },
    {
      "inputs": [
        {
          "internalType": "address",
          "name": "addr",
          "type": "address"
        }
      ],
      "name": "isActive",
      "outputs": [
        {
          "internalType": "bool",
          "name": "",
          "type": "bool"
        }
      ],
      "stateMutability": "view",
      "type": "function"
    },
    {
      "inputs": [
        {
          "internalType": "address",
          "name": "addr",
          "type": "address"
        }
      ],
      "name": "isBanned",
      "outputs": [
        {
          "internalType": "bool",
          "name": "",
          "type": "bool"
        }
      ],
      "stateMutability": "view",
      "type": "function"
    },
    {
      "inputs": [],
      "name": "owner",
      "outputs": [
        {
          "internalType": "address",
          "name": "",
          "type": "address"
        }
      ],
      "stateMutability": "view",
      "type": "function"
    },
    {
      "inputs": [
        {
          "internalType": "address",
          "name": "victim",
          "type": "address"
        }
      ],
      "name": "recordDetection",
      "outputs": [],
      "stateMutability": "nonpayable",
      "type": "function"
    },
    {
      "inputs": [
        {
          "internalType": "address",
          "name": "attacker",
          "type": "address"
        }
      ],
      "name": "recordSlash",
      "outputs": [],
      "stateMutability": "nonpayable",
      "type": "function"
    },
    {
      "inputs": [
        {
          "internalType": "address",
          "name": "validator",
          "type": "address"
        }
      ],
      "name": "recordVote",
      "outputs": [],
      "stateMutability": "nonpayable",
      "type": "function"
    },
    {
      "inputs": [
        {
          "internalType": "string",
          "name": "ensName",
          "type": "string"
        },
        {
          "internalType": "bytes32",
          "name": "axlPubKey",
          "type": "bytes32"
        },
        {
          "internalType": "enum SYBILRegistry.AgentRole",
          "name": "role",
          "type": "uint8"
        }
      ],
      "name": "register",
      "outputs": [],
      "stateMutability": "payable",
      "type": "function"
    },
    {
      "inputs": [
        {
          "internalType": "address",
          "name": "_vault",
          "type": "address"
        }
      ],
      "name": "setVault",
      "outputs": [],
      "stateMutability": "nonpayable",
      "type": "function"
    },
    {
      "inputs": [],
      "name": "vault",
      "outputs": [
        {
          "internalType": "contract ISlashingVault",
          "name": "",
          "type": "address"
        }
      ],
      "stateMutability": "view",
      "type": "function"
    }
  ],
  "bytecode": "0x608060405234801561001057600080fd5b50600080546001600160a01b03191633179055611985806100326000396000f3fe6080604052600436106101355760003560e01c80638a325765116100ab5780639f8a13d71161006f5780639f8a13d71461039a578063cb1c2b5c146103ba578063df230361146103d5578063fb3551ff146103ea578063fbfa77cf14610417578063fd66091e1461043757600080fd5b80638a325765146102f55780638da5cb5b1461031557806391cab63e1461033557806392c1ff441461034a57806397f735d51461036a57600080fd5b80634bb43882116100fd5780634bb43882146102495780635309564c1461026b5780635979cfe61461028b5780635b2d75fc146102a05780636817031b146102b3578063860e4ac6146102d357600080fd5b806306bb23f61461013a57806321db2687146101715780632f80c54f146101bf57806333097df6146101df5780633772060614610220575b600080fd5b34801561014657600080fd5b5061015a61015536600461139d565b61046c565b6040516101689291906114e8565b60405180910390f35b34801561017d57600080fd5b506101a761018c366004611512565b6004602052600090815260409020546001600160a01b031681565b6040516001600160a01b039091168152602001610168565b3480156101cb57600080fd5b506101a76101da366004611512565b610610565b3480156101eb57600080fd5b506101a76101fa366004611541565b80516020818301810180516003825292820191909301209152546001600160a01b031681565b34801561022c57600080fd5b5061023b6611c37937e0800081565b604051908152602001610168565b34801561025557600080fd5b506102696102643660046115f2565b61063a565b005b34801561027757600080fd5b506102696102863660046115f2565b6106c1565b34801561029757600080fd5b5061023b600181565b6102696102ae366004611622565b6108c0565b3480156102bf57600080fd5b506102696102ce3660046115f2565b610d36565b3480156102df57600080fd5b506102e8610dd0565b6040516101689190611685565b34801561030157600080fd5b5061015a610310366004611512565b610e32565b34801561032157600080fd5b506000546101a7906001600160a01b031681565b34801561034157600080fd5b5060055461023b565b34801561035657600080fd5b506102696103653660046115f2565b610fb9565b34801561037657600080fd5b5061038a6103853660046115f2565b61102e565b6040519015158152602001610168565b3480156103a657600080fd5b5061038a6103b53660046115f2565b611095565b3480156103c657600080fd5b5061023b662386f26fc1000081565b3480156103e157600080fd5b5061023b600381565b3480156103f657600080fd5b5061040a6104053660046115f2565b6110c2565b60405161016891906116d2565b34801561042357600080fd5b506001546101a7906001600160a01b031681565b34801561044357600080fd5b506104576104523660046115f2565b611232565b604051610168999897969594939291906116e5565b61047461130c565b6000806003858560405161048992919061174a565b908152604080519182900360209081018320546001600160a01b0316600081815260029092529082902061012084019092528154909350909183918390829082906104d39061175a565b80601f01602080910402602001604051908101604052809291908181526020018280546104ff9061175a565b801561054c5780601f106105215761010080835404028352916020019161054c565b820191906000526020600020905b81548152906001019060200180831161052f57829003601f168201915b50505091835250506001820154602082015260028083015460409092019160ff169081111561057d5761057d611425565b600281111561058e5761058e611425565b81526020016002820160019054906101000a900460ff1660048111156105b6576105b6611425565b60048111156105c7576105c7611425565b81526003820154602082015260048201546040820152600582015460608201526006820154608082015260079091015460ff16151560a0909101529450925050505b9250929050565b6005818154811061062057600080fd5b6000918252602090912001546001600160a01b0316905081565b6001546001600160a01b0316331461066d5760405162461bcd60e51b815260040161066490611794565b60405180910390fd5b6001600160a01b03811660009081526002602052604090206007015460ff16156106be576001600160a01b03811660009081526002602052604081206003018054916106b8836117b7565b91905055505b50565b6001546001600160a01b031633146106eb5760405162461bcd60e51b815260040161066490611794565b6001600160a01b03811660009081526002602052604090206007015460ff166107485760405162461bcd60e51b815260206004820152600f60248201526e1059d95b9d081b9bdd08199bdd5b99608a1b6044820152606401610664565b6001600160a01b038116600090815260026020526040812060040180549161076f836117b7565b90915550506001600160a01b038116600090815260026020819052604082209081015460049091015461010090910460ff169190600381106107b457600491506107ca565b600181106107c557600291506107ca565b600191505b8260048111156107dc576107dc611425565b8260048111156107ee576107ee611425565b14610877576001600160a01b038416600090815260026020819052604090912001805483919061ff00191661010083600481111561082e5761082e611425565b0217905550836001600160a01b03167f618b78a8918b9c4ea0ba1d536d95aa64efb54925e7559eb0a38eb509e7a99f55848460405161086e9291906117de565b60405180910390a25b836001600160a01b03167fff39fe34c04df0b5359e1afd071a892d400968f9b8453f81931568f2c1c20082826040516108b291815260200190565b60405180910390a250505050565b3360009081526002602052604090206007015460ff16156109185760405162461bcd60e51b8152602060048201526012602482015271105b1c9958591e481c9959da5cdd195c995960721b6044820152606401610664565b662386f26fc100003410156109645760405162461bcd60e51b8152602060048201526012602482015271496e73756666696369656e74207374616b6560701b6044820152606401610664565b826109a25760405162461bcd60e51b815260206004820152600e60248201526d456d70747920454e53206e616d6560901b6044820152606401610664565b60006001600160a01b0316600385856040516109bf92919061174a565b908152604051908190036020019020546001600160a01b031614610a165760405162461bcd60e51b815260206004820152600e60248201526d22a729903730b6b2903a30b5b2b760911b6044820152606401610664565b6000828152600460205260409020546001600160a01b031615610a6b5760405162461bcd60e51b815260206004820152600d60248201526c20ac261035b2bc903a30b5b2b760991b6044820152606401610664565b6001546001600160a01b0316610ab35760405162461bcd60e51b815260206004820152600d60248201526c15985d5b1d081b9bdd081cd95d609a1b6044820152606401610664565b60405180610120016040528085858080601f01602080910402602001604051908101604052809392919081815260200183838082843760009201919091525050509082525060208101849052604001826002811115610b1457610b14611425565b81526020016001815260006020808301829052604080840183905260608401839052426080850152600160a090940193909352338252600290522081518190610b5d9082611848565b506020820151816001015560408201518160020160006101000a81548160ff02191690836002811115610b9257610b92611425565b0217905550606082015160028201805461ff001916610100836004811115610bbc57610bbc611425565b02179055506080820151816003015560a0820151816004015560c0820151816005015560e082015181600601556101008201518160070160006101000a81548160ff0219169083151502179055509050503360038585604051610c2092919061174a565b908152604080516020928190038301812080546001600160a01b03199081166001600160a01b0396871617909155600087815260049485905292832080543390831681179091556005805460018181018355919095527f036b6384b5eca791c62761152d0c79bb0604c104a5fb6f4eb0703f3154bb3db090940180549092168117909155915463f340fa0160e01b82529281019190915291169063f340fa019034906024016000604051808303818588803b158015610cde57600080fd5b505af1158015610cf2573d6000803e3d6000fd5b5050505050336001600160a01b03167f0caf4744410bf6030b7336f90d0d79faf0cde9aa6dad8920c16b387268aecf50858585856040516108b29493929190611908565b6000546001600160a01b03163314610d7c5760405162461bcd60e51b81526020600482015260096024820152682737ba1037bbb732b960b91b6044820152606401610664565b600180546001600160a01b0319166001600160a01b0383169081179091556040519081527fe7ae49f883c825b05681b3e00e8be6fdea9ed2a8a45e4c6ecb9390fc44cce6159060200160405180910390a150565b60606005805480602002602001604051908101604052809291908181526020018280548015610e2857602002820191906000526020600020905b81546001600160a01b03168152600190910190602001808311610e0a575b5050505050905090565b610e3a61130c565b6000828152600460209081526040808320546001600160a01b0316808452600290925280832081516101208101909252805490918391839082908290610e7f9061175a565b80601f0160208091040260200160405190810160405280929190818152602001828054610eab9061175a565b8015610ef85780601f10610ecd57610100808354040283529160200191610ef8565b820191906000526020600020905b815481529060010190602001808311610edb57829003601f168201915b50505091835250506001820154602082015260028083015460409092019160ff1690811115610f2957610f29611425565b6002811115610f3a57610f3a611425565b81526020016002820160019054906101000a900460ff166004811115610f6257610f62611425565b6004811115610f7357610f73611425565b81526003820154602082015260048201546040820152600582015460608201526006820154608082015260079091015460ff16151560a090910152969095509350505050565b6001546001600160a01b03163314610fe35760405162461bcd60e51b815260040161066490611794565b6001600160a01b03811660009081526002602052604090206007015460ff16156106be576001600160a01b03811660009081526002602052604081206005018054916106b8836117b7565b6001600160a01b03811660009081526002602052604081206007015460ff16801561108f575060045b6001600160a01b03831660009081526002602081905260409091200154610100900460ff16600481111561108d5761108d611425565b145b92915050565b6001600160a01b03811660009081526002602052604081206007015460ff16801561108f57506001611057565b6110ca61130c565b6001600160a01b03821660009081526002602052604090819020815161012081019092528054829082906110fd9061175a565b80601f01602080910402602001604051908101604052809291908181526020018280546111299061175a565b80156111765780601f1061114b57610100808354040283529160200191611176565b820191906000526020600020905b81548152906001019060200180831161115957829003601f168201915b50505091835250506001820154602082015260028083015460409092019160ff16908111156111a7576111a7611425565b60028111156111b8576111b8611425565b81526020016002820160019054906101000a900460ff1660048111156111e0576111e0611425565b60048111156111f1576111f1611425565b81526003820154602082015260048201546040820152600582015460608201526006820154608082015260079091015460ff16151560a09091015292915050565b60026020526000908152604090208054819061124d9061175a565b80601f01602080910402602001604051908101604052809291908181526020018280546112799061175a565b80156112c65780601f1061129b576101008083540402835291602001916112c6565b820191906000526020600020905b8154815290600101906020018083116112a957829003601f168201915b5050506001840154600285015460038601546004870154600588015460068901546007909901549798949760ff8086169850610100909504851696509294919390921689565b6040805161012081018252606081526000602082018190529091820190815260200160008152602001600081526020016000815260200160008152602001600081526020016000151581525090565b60008083601f84011261136d57600080fd5b50813567ffffffffffffffff81111561138557600080fd5b60208301915083602082850101111561060957600080fd5b600080602083850312156113b057600080fd5b823567ffffffffffffffff8111156113c757600080fd5b6113d38582860161135b565b90969095509350505050565b6000815180845260005b81811015611405576020818501810151868301820152016113e9565b506000602082860101526020601f19601f83011685010191505092915050565b634e487b7160e01b600052602160045260246000fd5b6003811061144b5761144b611425565b9052565b6005811061144b5761144b611425565b60006101208251818552611475828601826113df565b915050602083015160208501526040830151611494604086018261143b565b5060608301516114a7606086018261144f565b506080830151608085015260a083015160a085015260c083015160c085015260e083015160e085015261010080840151151581860152508091505092915050565b6040815260006114fb604083018561145f565b905060018060a01b03831660208301529392505050565b60006020828403121561152457600080fd5b5035919050565b634e487b7160e01b600052604160045260246000fd5b60006020828403121561155357600080fd5b813567ffffffffffffffff8082111561156b57600080fd5b818401915084601f83011261157f57600080fd5b8135818111156115915761159161152b565b604051601f8201601f19908116603f011681019083821181831017156115b9576115b961152b565b816040528281528760208487010111156115d257600080fd5b826020860160208301376000928101602001929092525095945050505050565b60006020828403121561160457600080fd5b81356001600160a01b038116811461161b57600080fd5b9392505050565b6000806000806060858703121561163857600080fd5b843567ffffffffffffffff81111561164f57600080fd5b61165b8782880161135b565b9095509350506020850135915060408501356003811061167a57600080fd5b939692955090935050565b6020808252825182820181905260009190848201906040850190845b818110156116c65783516001600160a01b0316835292840192918401916001016116a1565b50909695505050505050565b60208152600061161b602083018461145f565b60006101208083526116f98184018d6113df565b91505089602083015261170f604083018a61143b565b61171c606083018961144f565b608082019690965260a081019490945260c084019290925260e0830152151561010090910152949350505050565b8183823760009101908152919050565b600181811c9082168061176e57607f821691505b60208210810361178e57634e487b7160e01b600052602260045260246000fd5b50919050565b602080825260099082015268139bdd081d985d5b1d60ba1b604082015260600190565b6000600182016117d757634e487b7160e01b600052601160045260246000fd5b5060010190565b604081016117ec828561144f565b61161b602083018461144f565b601f82111561184357600081815260208120601f850160051c810160208610156118205750805b601f850160051c820191505b8181101561183f5782815560010161182c565b5050505b505050565b815167ffffffffffffffff8111156118625761186261152b565b61187681611870845461175a565b846117f9565b602080601f8311600181146118ab57600084156118935750858301515b600019600386901b1c1916600185901b17855561183f565b600085815260208120601f198616915b828110156118da578886015182559484019460019091019084016118bb565b50858210156118f85787850151600019600388901b60f8161c191681555b5050505050600190811b01905550565b606081528360608201528385608083013760006080858301015260006080601f19601f8701168301019050836020830152611946604083018461143b565b9594505050505056fea2646970667358221220e12917d7e1ddaf67d41bc79e889e660bf8c2b04623f3a4622b96f3b221a879b164736f6c63430008140033",
  "linkReferences": {},
  "deployedLinkReferences": {}
}