{
  "_format": "hh-sol-artifact-1",
  "contractName": "SYBILRegistry",
  "sourceName": "contracts/SYBILRegistry.sol",
  "abi": [
    {
      "inputs": [],
      "stateMutability": "nonpayable",
      "type": "constructor"
    },
    {
      "anonymous": false,
      "inputs": [
        {
          "indexed": true,
          "internalType": "address",
          "name": "agent",
          "type": "address"
        },
        {
          "indexed": false,
          "internalType": "string",
          "name": "ensName",
          "type": "string"
        },
        {
          "indexed": false,
          "internalType": "bytes32",
          "name": "axlPubKey",
          "type": "bytes32"
        },
        {
          "indexed": false,
          "internalType": "enum SYBILRegistry.AgentRole",
          "name": "role",
          "type": "uint8"
        }
      ],
      "name": "AgentRegistered",
      "type": "event"
    },
    {
      "anonymous": false,
      "inputs": [
        {
          "indexed": true,
          "internalType": "address",
          "name": "attacker",
          "type": "address"
        },
        {
          "indexed": false,
          "internalType": "uint256",
          "name": "totalSlashes",
          "type": "uint256"
        }
      ],
      "name": "AgentSlashRecorded",
      "type": "event"
    },
    {
      "anonymous": false,
      "inputs": [
        {
          "indexed": true,
          "internalType": "address",
          "name": "agent",
          "type": "address"
        },
        {
          "indexed": false,
          "internalType": "enum SYBILRegistry.AgentStatus",
          "name": "oldStatus",
          "type": "uint8"
        },
        {
          "indexed": false,
          "internalType": "enum SYBILRegistry.AgentStatus",
          "name": "newStatus",
          "type": "uint8"
        }
      ],
      "name": "AgentStatusChanged",
      "type": "event"
    },
    {
      "anonymous": false,
      "inputs": [
        {
          "indexed": false,
          "internalType": "address",
          "name": "vault",
          "type": "address"
        }
      ],
      "name": "VaultSet",
      "type": "event"
    },
    {
      "inputs": [],
      "name": "BAN_THRESHOLD",
      "outputs": [
        {
          "internalType": "uint256",
          "name": "",
          "type": "uint256"
        }
      ],
      "stateMutability": "view",
      "type": "function"
    },
    {
      "inputs": [],
      "name": "MIN_STAKE",
      "outputs": [
        {
          "internalType": "uint256",
          "name": "",
          "type": "uint256"
        }
      ],
      "stateMutability": "view",
      "type": "function"
    },
    {
      "inputs": [],
      "name": "SLASH_AMOUNT",
      "outputs": [
        {
          "internalType": "uint256",
          "name": "",
          "type": "uint256"
        }
      ],
      "stateMutability": "view",
      "type": "function"
    },
    {
      "inputs": [],
      "name": "WARN_THRESHOLD",
      "outputs": [
        {
          "internalType": "uint256",
          "name": "",
          "type": "uint256"
        }
      ],
      "stateMutability": "view",
      "type": "function"
    },
    {
      "inputs": [
        {
          "internalType": "address",
          "name": "agentAddr",
          "type": "address"
        },
        {
          "internalType": "string",
          "name": "ensName",
          "type": "string"
        },
        {
          "internalType": "bytes32",
          "name": "axlPubKey",
          "type": "bytes32"
        },
        {
          "internalType": "enum SYBILRegistry.AgentRole",
          "name": "role",
          "type": "uint8"
        }
      ],
      "name": "adminRegister",
      "outputs": [],
      "stateMutability": "payable",
      "type": "function"
    },
    {
      "inputs": [
        {
          "internalType": "uint256",
          "name": "",
          "type": "uint256"
        }
      ],
      "name": "agentList",
      "outputs": [
        {
          "internalType": "address",
          "name": "",
          "type": "address"
        }
      ],
      "stateMutability": "view",
      "type": "function"
    },
    {
      "inputs": [
        {
          "internalType": "address",
          "name": "",
          "type": "address"
        }
      ],
      "name": "agents",
      "outputs": [
        {
          "internalType": "string",
          "name": "ensName",
          "type": "string"
        },
        {
          "internalType": "bytes32",
          "name": "axlPubKey",
          "type": "bytes32"
        },
        {
          "internalType": "enum SYBILRegistry.AgentRole",
          "name": "role",
          "type": "uint8"
        },
        {
          "internalType": "enum SYBILRegistry.AgentStatus",
          "name": "status",
          "type": "uint8"
        },
        {
          "internalType": "uint256",
          "name": "attacksDetected",
          "type": "uint256"
        },
        {
          "internalType": "uint256",
          "name": "attacksLaunched",
          "type": "uint256"
        },
        {
          "internalType": "uint256",
          "name": "votesCast",
          "type": "uint256"
        },
        {
          "internalType": "uint256",
          "name": "registeredAt",
          "type": "uint256"
        },
        {
          "internalType": "bool",
          "name": "exists",
          "type": "bool"
        }
      ],
      "stateMutability": "view",
      "type": "function"
    },
    {
      "inputs": [
        {
          "internalType": "bytes32",
          "name": "",
          "type": "bytes32"
        }
      ],
      "name": "axlToAddress",
      "outputs": [
        {
          "internalType": "address",
          "name": "",
          "type": "address"
        }
      ],
      "stateMutability": "view",
      "type": "function"
    },
    {
      "inputs": [
        {
          "internalType": "string",
          "name": "",
          "type": "string"
        }
      ],
      "name": "ensToAddress",
      "outputs": [
        {
          "internalType": "address",
          "name": "",
          "type": "address"
        }
      ],
      "stateMutability": "view",
      "type": "function"
    },
    {
      "inputs": [
        {
          "internalType": "address",
          "name": "addr",
          "type": "address"
        }
      ],
      "name": "getAgent",
      "outputs": [
        {
          "components": [
            {
              "internalType": "string",
              "name": "ensName",
              "type": "string"
            },
            {
              "internalType": "bytes32",
              "name": "axlPubKey",
              "type": "bytes32"
            },
            {
              "internalType": "enum SYBILRegistry.AgentRole",
              "name": "role",
              "type": "uint8"
            },
            {
              "internalType": "enum SYBILRegistry.AgentStatus",
              "name": "status",
              "type": "uint8"
            },
            {
              "internalType": "uint256",
              "name": "attacksDetected",
              "type": "uint256"
            },
            {
              "internalType": "uint256",
              "name": "attacksLaunched",
              "type": "uint256"
            },
            {
              "internalType": "uint256",
              "name": "votesCast",
              "type": "uint256"
            },
            {
              "internalType": "uint256",
              "name": "registeredAt",
              "type": "uint256"
            },
            {
              "internalType": "bool",
              "name": "exists",
              "type": "bool"
            }
          ],
          "internalType": "struct SYBILRegistry.Agent",
          "name": "",
          "type": "tuple"
        }
      ],
      "stateMutability": "view",
      "type": "function"
    },
    {
      "inputs": [
        {
          "internalType": "bytes32",
          "name": "axlKey",
          "type": "bytes32"
        }
      ],
      "name": "getAgentByAXL",
      "outputs": [
        {
          "components": [
            {
              "internalType": "string",
              "name": "ensName",
              "type": "string"
            },
            {
              "internalType": "bytes32",
              "name": "axlPubKey",
              "type": "bytes32"
            },
            {
              "internalType": "enum SYBILRegistry.AgentRole",
              "name": "role",
              "type": "uint8"
            },
            {
              "internalType": "enum SYBILRegistry.AgentStatus",
              "name": "status",
              "type": "uint8"
            },
            {
              "internalType": "uint256",
              "name": "attacksDetected",
              "type": "uint256"
            },
            {
              "internalType": "uint256",
              "name": "attacksLaunched",
              "type": "uint256"
            },
            {
              "internalType": "uint256",
              "name": "votesCast",
              "type": "uint256"
            },
            {
              "internalType": "uint256",
              "name": "registeredAt",
              "type": "uint256"
            },
            {
              "internalType": "bool",
              "name": "exists",
              "type": "bool"
            }
          ],
          "internalType": "struct SYBILRegistry.Agent",
          "name": "",
          "type": "tuple"
        },
        {
          "internalType": "address",
          "name": "",
          "type": "address"
        }
      ],
      "stateMutability": "view",
      "type": "function"
    },
    {
      "inputs": [
        {
          "internalType": "string",
          "name": "ensName",
          "type": "string"
        }
      ],
      "name": "getAgentByENS",
      "outputs": [
        {
          "components": [
            {
              "internalType": "string",
              "name": "ensName",
              "type": "string"
            },
            {
              "internalType": "bytes32",
              "name": "axlPubKey",
              "type": "bytes32"
            },
            {
              "internalType": "enum SYBILRegistry.AgentRole",
              "name": "role",
              "type": "uint8"
            },
            {
              "internalType": "enum SYBILRegistry.AgentStatus",
              "name": "status",
              "type": "uint8"
            },
            {
              "internalType": "uint256",
              "name": "attacksDetected",
              "type": "uint256"
            },
            {
              "internalType": "uint256",
              "name": "attacksLaunched",
              "type": "uint256"
            },
            {
              "internalType": "uint256",
              "name": "votesCast",
              "type": "uint256"
            },
            {
              "internalType": "uint256",
              "name": "registeredAt",
              "type": "uint256"
            },
            {
              "internalType": "bool",
              "name": "exists",
              "type": "bool"
            }
          ],
          "internalType": "struct SYBILRegistry.Agent",
          "name": "",
          "type": "tuple"
        },
        {
          "internalType": "address",
          "name": "",
          "type": "address"
        }
      ],
      "stateMutability": "view",
      "type": "function"
    },
    {
      "inputs": [],
      "name": "getAgentCount",
      "outputs": [
        {
          "internalType": "uint256",
          "name": "",
          "type": "uint256"
        }
      ],
      "stateMutability": "view",
      "type": "function"
    },
    {
      "inputs": [],
      "name": "getAllAgents",
      "outputs": [
        {
          "internalType": "address[]",
          "name": "",
          "type": "address[]"
        }
      ],
      "stateMutability": "view",
      "type": "function"
    },
    {
      "inputs": [
        {
          "internalType": "address",
          "name": "addr",
          "type": "address"
        }
      ],
      "name": "isActive",
      "outputs": [
        {
          "internalType": "bool",
          "name": "",
          "type": "bool"
        }
      ],
      "stateMutability": "view",
      "type": "function"
    },
    {
      "inputs": [
        {
          "internalType": "address",
          "name": "addr",
          "type": "address"
        }
      ],
      "name": "isBanned",
      "outputs": [
        {
          "internalType": "bool",
          "name": "",
          "type": "bool"
        }
      ],
      "stateMutability": "view",
      "type": "function"
    },
    {
      "inputs": [],
      "name": "owner",
      "outputs": [
        {
          "internalType": "address",
          "name": "",
          "type": "address"
        }
      ],
      "stateMutability": "view",
      "type": "function"
    },
    {
      "inputs": [
        {
          "internalType": "address",
          "name": "victim",
          "type": "address"
        }
      ],
      "name": "recordDetection",
      "outputs": [],
      "stateMutability": "nonpayable",
      "type": "function"
    },
    {
      "inputs": [
        {
          "internalType": "address",
          "name": "attacker",
          "type": "address"
        }
      ],
      "name": "recordSlash",
      "outputs": [],
      "stateMutability": "nonpayable",
      "type": "function"
    },
    {
      "inputs": [
        {
          "internalType": "address",
          "name": "validator",
          "type": "address"
        }
      ],
      "name": "recordVote",
      "outputs": [],
      "stateMutability": "nonpayable",
      "type": "function"
    },
    {
      "inputs": [
        {
          "internalType": "string",
          "name": "ensName",
          "type": "string"
        },
        {
          "internalType": "bytes32",
          "name": "axlPubKey",
          "type": "bytes32"
        },
        {
          "internalType": "enum SYBILRegistry.AgentRole",
          "name": "role",
          "type": "uint8"
        }
      ],
      "name": "register",
      "outputs": [],
      "stateMutability": "payable",
      "type": "function"
    },
    {
      "inputs": [
        {
          "internalType": "address",
          "name": "_vault",
          "type": "address"
        }
      ],
      "name": "setVault",
      "outputs": [],
      "stateMutability": "nonpayable",
      "type": "function"
    },
    {
      "inputs": [],
      "name": "vault",
      "outputs": [
        {
          "internalType": "contract ISlashingVault",
          "name": "",
          "type": "address"
        }
      ],
      "stateMutability": "view",
      "type": "function"
    }
  ],
  "bytecode": "0x608060405234801561001057600080fd5b50600080546001600160a01b03191633179055611edc806100326000396000f3fe6080604052600436106101405760003560e01c80638a325765116100b6578063b58850471161006f578063b5885047146103c5578063cb1c2b5c146103d8578063df230361146103f3578063fb3551ff14610408578063fbfa77cf14610435578063fd66091e1461045557600080fd5b80638a325765146103005780638da5cb5b1461032057806391cab63e1461034057806392c1ff441461035557806397f735d5146103755780639f8a13d7146103a557600080fd5b80634bb43882116101085780634bb43882146102545780635309564c146102765780635979cfe6146102965780635b2d75fc146102ab5780636817031b146102be578063860e4ac6146102de57600080fd5b806306bb23f61461014557806321db26871461017c5780632f80c54f146101ca57806333097df6146101ea578063377206061461022b575b600080fd5b34801561015157600080fd5b5061016561016036600461186f565b61048a565b6040516101739291906119ba565b60405180910390f35b34801561018857600080fd5b506101b26101973660046119e4565b6004602052600090815260409020546001600160a01b031681565b6040516001600160a01b039091168152602001610173565b3480156101d657600080fd5b506101b26101e53660046119e4565b61062e565b3480156101f657600080fd5b506101b2610205366004611a13565b80516020818301810180516003825292820191909301209152546001600160a01b031681565b34801561023757600080fd5b506102466611c37937e0800081565b604051908152602001610173565b34801561026057600080fd5b5061027461026f366004611ae0565b610658565b005b34801561028257600080fd5b50610274610291366004611ae0565b6106df565b3480156102a257600080fd5b50610246600181565b6102746102b9366004611b11565b6108de565b3480156102ca57600080fd5b506102746102d9366004611ae0565b610d54565b3480156102ea57600080fd5b506102f3610dee565b6040516101739190611b6e565b34801561030c57600080fd5b5061016561031b3660046119e4565b610e50565b34801561032c57600080fd5b506000546101b2906001600160a01b031681565b34801561034c57600080fd5b50600554610246565b34801561036157600080fd5b50610274610370366004611ae0565b610fd7565b34801561038157600080fd5b50610395610390366004611ae0565b61104c565b6040519015158152602001610173565b3480156103b157600080fd5b506103956103c0366004611ae0565b6110b3565b6102746103d3366004611bbb565b6110e0565b3480156103e457600080fd5b50610246662386f26fc1000081565b3480156103ff57600080fd5b50610246600381565b34801561041457600080fd5b50610428610423366004611ae0565b611594565b6040516101739190611c29565b34801561044157600080fd5b506001546101b2906001600160a01b031681565b34801561046157600080fd5b50610475610470366004611ae0565b611704565b60405161017399989796959493929190611c3c565b6104926117de565b600080600385856040516104a7929190611ca1565b908152604080519182900360209081018320546001600160a01b0316600081815260029092529082902061012084019092528154909350909183918390829082906104f190611cb1565b80601f016020809104026020016040519081016040528092919081815260200182805461051d90611cb1565b801561056a5780601f1061053f5761010080835404028352916020019161056a565b820191906000526020600020905b81548152906001019060200180831161054d57829003601f168201915b50505091835250506001820154602082015260028083015460409092019160ff169081111561059b5761059b6118f7565b60028111156105ac576105ac6118f7565b81526020016002820160019054906101000a900460ff1660048111156105d4576105d46118f7565b60048111156105e5576105e56118f7565b81526003820154602082015260048201546040820152600582015460608201526006820154608082015260079091015460ff16151560a0909101529450925050505b9250929050565b6005818154811061063e57600080fd5b6000918252602090912001546001600160a01b0316905081565b6001546001600160a01b0316331461068b5760405162461bcd60e51b815260040161068290611ceb565b60405180910390fd5b6001600160a01b03811660009081526002602052604090206007015460ff16156106dc576001600160a01b03811660009081526002602052604081206003018054916106d683611d0e565b91905055505b50565b6001546001600160a01b031633146107095760405162461bcd60e51b815260040161068290611ceb565b6001600160a01b03811660009081526002602052604090206007015460ff166107665760405162461bcd60e51b815260206004820152600f60248201526e1059d95b9d081b9bdd08199bdd5b99608a1b6044820152606401610682565b6001600160a01b038116600090815260026020526040812060040180549161078d83611d0e565b90915550506001600160a01b038116600090815260026020819052604082209081015460049091015461010090910460ff169190600381106107d257600491506107e8565b600181106107e357600291506107e8565b600191505b8260048111156107fa576107fa6118f7565b82600481111561080c5761080c6118f7565b14610895576001600160a01b038416600090815260026020819052604090912001805483919061ff00191661010083600481111561084c5761084c6118f7565b0217905550836001600160a01b03167f618b78a8918b9c4ea0ba1d536d95aa64efb54925e7559eb0a38eb509e7a99f55848460405161088c929190611d35565b60405180910390a25b836001600160a01b03167fff39fe34c04df0b5359e1afd071a892d400968f9b8453f81931568f2c1c20082826040516108d091815260200190565b60405180910390a250505050565b3360009081526002602052604090206007015460ff16156109365760405162461bcd60e51b8152602060048201526012602482015271105b1c9958591e481c9959da5cdd195c995960721b6044820152606401610682565b662386f26fc100003410156109825760405162461bcd60e51b8152602060048201526012602482015271496e73756666696369656e74207374616b6560701b6044820152606401610682565b826109c05760405162461bcd60e51b815260206004820152600e60248201526d456d70747920454e53206e616d6560901b6044820152606401610682565b60006001600160a01b0316600385856040516109dd929190611ca1565b908152604051908190036020019020546001600160a01b031614610a345760405162461bcd60e51b815260206004820152600e60248201526d22a729903730b6b2903a30b5b2b760911b6044820152606401610682565b6000828152600460205260409020546001600160a01b031615610a895760405162461bcd60e51b815260206004820152600d60248201526c20ac261035b2bc903a30b5b2b760991b6044820152606401610682565b6001546001600160a01b0316610ad15760405162461bcd60e51b815260206004820152600d60248201526c15985d5b1d081b9bdd081cd95d609a1b6044820152606401610682565b60405180610120016040528085858080601f01602080910402602001604051908101604052809392919081815260200183838082843760009201919091525050509082525060208101849052604001826002811115610b3257610b326118f7565b81526020016001815260006020808301829052604080840183905260608401839052426080850152600160a090940193909352338252600290522081518190610b7b9082611d9f565b506020820151816001015560408201518160020160006101000a81548160ff02191690836002811115610bb057610bb06118f7565b0217905550606082015160028201805461ff001916610100836004811115610bda57610bda6118f7565b02179055506080820151816003015560a0820151816004015560c0820151816005015560e082015181600601556101008201518160070160006101000a81548160ff0219169083151502179055509050503360038585604051610c3e929190611ca1565b908152604080516020928190038301812080546001600160a01b03199081166001600160a01b0396871617909155600087815260049485905292832080543390831681179091556005805460018181018355919095527f036b6384b5eca791c62761152d0c79bb0604c104a5fb6f4eb0703f3154bb3db090940180549092168117909155915463f340fa0160e01b82529281019190915291169063f340fa019034906024016000604051808303818588803b158015610cfc57600080fd5b505af1158015610d10573d6000803e3d6000fd5b5050505050336001600160a01b03167f0caf4744410bf6030b7336f90d0d79faf0cde9aa6dad8920c16b387268aecf50858585856040516108d09493929190611e5f565b6000546001600160a01b03163314610d9a5760405162461bcd60e51b81526020600482015260096024820152682737ba1037bbb732b960b91b6044820152606401610682565b600180546001600160a01b0319166001600160a01b0383169081179091556040519081527fe7ae49f883c825b05681b3e00e8be6fdea9ed2a8a45e4c6ecb9390fc44cce6159060200160405180910390a150565b60606005805480602002602001604051908101604052809291908181526020018280548015610e4657602002820191906000526020600020905b81546001600160a01b03168152600190910190602001808311610e28575b5050505050905090565b610e586117de565b6000828152600460209081526040808320546001600160a01b0316808452600290925280832081516101208101909252805490918391839082908290610e9d90611cb1565b80601f0160208091040260200160405190810160405280929190818152602001828054610ec990611cb1565b8015610f165780601f10610eeb57610100808354040283529160200191610f16565b820191906000526020600020905b815481529060010190602001808311610ef957829003601f168201915b50505091835250506001820154602082015260028083015460409092019160ff1690811115610f4757610f476118f7565b6002811115610f5857610f586118f7565b81526020016002820160019054906101000a900460ff166004811115610f8057610f806118f7565b6004811115610f9157610f916118f7565b81526003820154602082015260048201546040820152600582015460608201526006820154608082015260079091015460ff16151560a090910152969095509350505050565b6001546001600160a01b031633146110015760405162461bcd60e51b815260040161068290611ceb565b6001600160a01b03811660009081526002602052604090206007015460ff16156106dc576001600160a01b03811660009081526002602052604081206005018054916106d683611d0e565b6001600160a01b03811660009081526002602052604081206007015460ff1680156110ad575060045b6001600160a01b03831660009081526002602081905260409091200154610100900460ff1660048111156110ab576110ab6118f7565b145b92915050565b6001600160a01b03811660009081526002602052604081206007015460ff1680156110ad57506001611075565b6000546001600160a01b031633146111265760405162461bcd60e51b81526020600482015260096024820152682737ba1037bbb732b960b91b6044820152606401610682565b6001600160a01b03851660009081526002602052604090206007015460ff16156111875760405162461bcd60e51b8152602060048201526012602482015271105b1c9958591e481c9959da5cdd195c995960721b6044820152606401610682565b662386f26fc100003410156111d35760405162461bcd60e51b8152602060048201526012602482015271496e73756666696369656e74207374616b6560701b6044820152606401610682565b826112115760405162461bcd60e51b815260206004820152600e60248201526d456d70747920454e53206e616d6560901b6044820152606401610682565b60006001600160a01b03166003858560405161122e929190611ca1565b908152604051908190036020019020546001600160a01b0316146112855760405162461bcd60e51b815260206004820152600e60248201526d22a729903730b6b2903a30b5b2b760911b6044820152606401610682565b6001546001600160a01b03166112cd5760405162461bcd60e51b815260206004820152600d60248201526c15985d5b1d081b9bdd081cd95d609a1b6044820152606401610682565b60405180610120016040528085858080601f0160208091040260200160405190810160405280939291908181526020018383808284376000920191909152505050908252506020810184905260400182600281111561132e5761132e6118f7565b81526020016001815260006020808301829052604080840183905260608401839052426080850152600160a0909401939093526001600160a01b03891682526002905220815181906113809082611d9f565b506020820151816001015560408201518160020160006101000a81548160ff021916908360028111156113b5576113b56118f7565b0217905550606082015160028201805461ff0019166101008360048111156113df576113df6118f7565b02179055506080820151816003015560a0820151816004015560c0820151816005015560e082015181600601556101008201518160070160006101000a81548160ff0219169083151502179055509050508460038585604051611443929190611ca1565b90815260405190819003602001902080546001600160a01b03929092166001600160a01b031990921691909117905581156114a057600082815260046020526040902080546001600160a01b0319166001600160a01b0387161790555b60058054600180820183556000929092527f036b6384b5eca791c62761152d0c79bb0604c104a5fb6f4eb0703f3154bb3db00180546001600160a01b0319166001600160a01b03888116918217909255915460405163f340fa0160e01b81526004810193909352169063f340fa019034906024016000604051808303818588803b15801561152d57600080fd5b505af1158015611541573d6000803e3d6000fd5b5050505050846001600160a01b03167f0caf4744410bf6030b7336f90d0d79faf0cde9aa6dad8920c16b387268aecf50858585856040516115859493929190611e5f565b60405180910390a25050505050565b61159c6117de565b6001600160a01b03821660009081526002602052604090819020815161012081019092528054829082906115cf90611cb1565b80601f01602080910402602001604051908101604052809291908181526020018280546115fb90611cb1565b80156116485780601f1061161d57610100808354040283529160200191611648565b820191906000526020600020905b81548152906001019060200180831161162b57829003601f168201915b50505091835250506001820154602082015260028083015460409092019160ff1690811115611679576116796118f7565b600281111561168a5761168a6118f7565b81526020016002820160019054906101000a900460ff1660048111156116b2576116b26118f7565b60048111156116c3576116c36118f7565b81526003820154602082015260048201546040820152600582015460608201526006820154608082015260079091015460ff16151560a09091015292915050565b60026020526000908152604090208054819061171f90611cb1565b80601f016020809104026020016040519081016040528092919081815260200182805461174b90611cb1565b80156117985780601f1061176d57610100808354040283529160200191611798565b820191906000526020600020905b81548152906001019060200180831161177b57829003601f168201915b5050506001840154600285015460038601546004870154600588015460068901546007909901549798949760ff8086169850610100909504851696509294919390921689565b6040805161012081018252606081526000602082018190529091820190815260200160008152602001600081526020016000815260200160008152602001600081526020016000151581525090565b60008083601f84011261183f57600080fd5b50813567ffffffffffffffff81111561185757600080fd5b60208301915083602082850101111561062757600080fd5b6000806020838503121561188257600080fd5b823567ffffffffffffffff81111561189957600080fd5b6118a58582860161182d565b90969095509350505050565b6000815180845260005b818110156118d7576020818501810151868301820152016118bb565b506000602082860101526020601f19601f83011685010191505092915050565b634e487b7160e01b600052602160045260246000fd5b6003811061191d5761191d6118f7565b9052565b6005811061191d5761191d6118f7565b60006101208251818552611947828601826118b1565b915050602083015160208501526040830151611966604086018261190d565b5060608301516119796060860182611921565b506080830151608085015260a083015160a085015260c083015160c085015260e083015160e085015261010080840151151581860152508091505092915050565b6040815260006119cd6040830185611931565b905060018060a01b03831660208301529392505050565b6000602082840312156119f657600080fd5b5035919050565b634e487b7160e01b600052604160045260246000fd5b600060208284031215611a2557600080fd5b813567ffffffffffffffff80821115611a3d57600080fd5b818401915084601f830112611a5157600080fd5b813581811115611a6357611a636119fd565b604051601f8201601f19908116603f01168101908382118183101715611a8b57611a8b6119fd565b81604052828152876020848701011115611aa457600080fd5b826020860160208301376000928101602001929092525095945050505050565b80356001600160a01b0381168114611adb57600080fd5b919050565b600060208284031215611af257600080fd5b611afb82611ac4565b9392505050565b803560038110611adb57600080fd5b60008060008060608587031215611b2757600080fd5b843567ffffffffffffffff811115611b3e57600080fd5b611b4a8782880161182d565b90955093505060208501359150611b6360408601611b02565b905092959194509250565b6020808252825182820181905260009190848201906040850190845b81811015611baf5783516001600160a01b031683529284019291840191600101611b8a565b50909695505050505050565b600080600080600060808688031215611bd357600080fd5b611bdc86611ac4565b9450602086013567ffffffffffffffff811115611bf857600080fd5b611c048882890161182d565b90955093505060408601359150611c1d60608701611b02565b90509295509295909350565b602081526000611afb6020830184611931565b6000610120808352611c508184018d6118b1565b915050896020830152611c66604083018a61190d565b611c736060830189611921565b608082019690965260a081019490945260c084019290925260e0830152151561010090910152949350505050565b8183823760009101908152919050565b600181811c90821680611cc557607f821691505b602082108103611ce557634e487b7160e01b600052602260045260246000fd5b50919050565b602080825260099082015268139bdd081d985d5b1d60ba1b604082015260600190565b600060018201611d2e57634e487b7160e01b600052601160045260246000fd5b5060010190565b60408101611d438285611921565b611afb6020830184611921565b601f821115611d9a57600081815260208120601f850160051c81016020861015611d775750805b601f850160051c820191505b81811015611d9657828155600101611d83565b5050505b505050565b815167ffffffffffffffff811115611db957611db96119fd565b611dcd81611dc78454611cb1565b84611d50565b602080601f831160018114611e025760008415611dea5750858301515b600019600386901b1c1916600185901b178555611d96565b600085815260208120601f198616915b82811015611e3157888601518255948401946001909101908401611e12565b5085821015611e4f5787850151600019600388901b60f8161c191681555b5050505050600190811b01905550565b606081528360608201528385608083013760006080858301015260006080601f19601f8701168301019050836020830152611e9d604083018461190d565b9594505050505056fea2646970667358221220d50399f485a26e4466fe43e1a959f247172fc6a31b70f59341cf2191c8332e1464736f6c63430008140033",
  "linkReferences": {},
  "deployedLinkReferences": {}
}